:020000040800F2
:100000000000082401210008F51B0008FB1B000864
:10001000011C0008071C00080D1C0008000000005F
:1000200000000000000000000000000041CF0108B7
:10003000131C00080000000091D10108B59A0108C6
:1000400051210008512100085121000851210008C8
:1000500051210008512100085121000851210008B8
:10006000512100085121000851210008211C0008DD
:100070005121000851210008512100085121000898
:100080005121000851210008512100085121000888
:10009000512100085121000851210008351C000899
:1000A0005121000851210008512100085121000868
:1000B0004D1C000851210008512100085121000861
:1000C0005121000851210008512100085121000848
:1000D000611C00085121000851210008512100082D
:1000E000751C000851210008000000005121000883
:1000F0005121000851210008512100085121000818
:100100005121000851210008512100085121000807
:1001100051210008512100085121000851210008F7
:1001200051210008512100085121000851210008E7
:1001300051210008512100085121000851210008D7
:1001400000000000000000000000000000000000AF
:1001500051210008512100085121000851210008B7
:1001600051210008512100085121000851210008A7
:100170005121000851210008512100080000000011
:100180005121000851210008951C0008A91C0008F5
:100190005121000851210008512100085121000877
:1001A0005121000851210008512100085121000867
:1001B0005121000851210008512100085121000857
:1001C0005121000851210008512100085121000847
:1001D0005121000851210008512100085121000837
:1001E0005121000851210008512100085121000827
:1001F0005121000851210008512100085121000817
:100200005121000851210008512100085121000806
:100210005121000851210008BD1C0008512100088F
:100220005121000851210008512100080000000060
:10023000D11C0008512100080000000051210008D5
:1002400051210008512100085121000851210008C6
:1002500051210008512100085121000851210008B6
:1002600051210008512100085121000851210008A6
:100270005121000851210008512100080000000010
:100280005121000851210008512100080000000000
:080290000000000051210008EC
:1002A00010B5054C237833B9044B13B10448AFF3B0
:1002B00000800123237010BD900000240000000086
:1002C0009C1D020808B5034B1BB103490348AFF35B
:1002D000008008BD00000000940000249C1D02085E
:1002E000034613F8012B002AFBD1181A0138704776
:1002F00001F0FF01102A2BDB10F0070F08D010F8D7
:10030000013B013A8B422DD010F0070F42B3F6D1DA
:10031000F0B441EA012141EA014122F007047FF0F3
:1003200000070023F0E80256083C85EA010586EA4A
:10033000010685FA47F5A3FA87F586FA47F6A5FA86
:1003400087F68EB9EED1F0BC01F0FF0102F0070292
:1003500032B110F8013B013A83EA010313B1F8D13D
:100360000020704701387047002D06BF354603381E
:10037000073815F0010F07D1013015F4807F02BF57
:10038000013015F4C03F0130F0BC0138704700BFA8
:1003900053B94AB9002908BF00281CBF4FF0FF31EC
:1003A0004FF0FF3000F070B9ADF1080C6DE904CEEC
:1003B00000F006F8DDF804E0DDE9022304B0704740
:1003C0002DE9F047089E0D4604460F46002B4AD102
:1003D0008A42944665D9B2FA82F343B102FA03FC29
:1003E000C3F120029F4020FA02F217439C404FEADB
:1003F0001C4E1FFA8CF5B7FBFEF1220C0EFB117799
:1004000042EA074201FB05F090420AD91CEB0202C6
:1004100001F1FF3780F01C81904240F219810239CE
:100420006244121AA4B2B2FBFEF00EFB102244EAA0
:10043000024400FB05F5A5420AD91CEB040400F1B7
:10044000FF3280F00781A54240F204816444023803
:1004500040EA0140641B00211EB1DC400023C6E9D4
:100460000043BDE8F0878B4208D9002E00F0ED80F4
:100470000021C6E900050846BDE8F087B3FA83F11C
:10048000002949D1AB4202D3824200F2F880841A9B
:1004900065EB030201201746002EE2D0C6E90047B3
:1004A000DFE702B9FFDEB2FA82F3002B40F0908062
:1004B0008A1A4FEA1C471FFA8CFE0121B2FBF7F59E
:1004C00007FB1520220C42EA00420EFB05F0904289
:1004D00008D91CEB020205F1FF3802D2904200F26B
:1004E000CB804546121AA4B2B2FBF7F007FB1022EC
:1004F00044EA02440EFB00FEA64508D91CEB0404A6
:1005000000F1FF3202D2A64500F2BB801046A4EBF8
:100510000E0440EA05409FE7C1F120078B4022FA14
:1005200007FC4CEA030C05FA01F420FA07F3FD403E
:100530004FEA1C492343B5FBF9F81FFA8CFE09FB6F
:1005400018551C0C44EA054408FB0EF5A54202FAB6
:1005500001F200FA01F00BD91CEB040408F1FF3A98
:1005600080F08880A54240F28580A8F102086444AA
:10057000641B9DB2B4FBF9F309FB134445EA044440
:1005800003FB0EFEA64508D91CEB040403F1FF355E
:100590006CD2A6456AD9023B644443EA0843A3FBF4
:1005A0000295A4EB0E04AC42C846AE4656D353D0D7
:1005B00056B1B0EB080264EB0E0404FA07F7CA4028
:1005C000CC401743C6E9007418460021BDE8F08707
:1005D000C3F1200102FA03FC20FA01F225FA01F12D
:1005E0009D402A434FEA1C471FFA8CFEB1FBF7F0EF
:1005F00007FB1015110C41EA054100FB0EF58D4279
:1006000004FA03F408D91CEB010100F1FF382FD2E2
:100610008D422DD902386144491B92B2B1FBF7F5E6
:1006200007FB151142EA014205FB0EF1914208D980
:100630001CEB020205F1FF3816D2914214D9023D9B
:100640006244521A45EA004138E73146304608E72D
:100650003946E6E61046FBE64845A9D2B9EB020862
:1006600065EB0C0E013BA3E74546EAE72B4694E712
:100670004046D1E7D0467BE7023D624432E7084678
:100680000AE76444023842E7704700BF80B500AF14
:1006900001224021084806F0B3FB64230222A02176
:1006A000064806F0ABFE0346002B01D1012300E013
:1006B0000023184680BD00BF000402581801002422
:1006C00080B58AB004AF0346B9607A60FB8100222E
:1006D0004021264806F094FBFB8903F00F039BB2F0
:1006E000C3F11003FB82FB8A7A689A4201D27B68CD
:1006F000FB82FB89DB111BB203F00E031BB243F03C
:10070000A0031BB299B2FB89DBB29AB264230293B5
:10071000FB8A0193BB6800930123154806F040FC57
:100720000346002B18D10A2001F070FDFB8A7A687D
:10073000D31A7B60FB8ABA681344BB60FA89FB8AD0
:100740001344FB817B68002BC6D10122402107485E
:1007500006F056FB012305E001224021034806F084
:100760004FFB002318461837BD4680BD00040258D1
:100770001801002480B588B004AF0346B9607A60E0
:10078000FB8101224021124806F03AFBFB89DB1174
:100790001BB203F00E031BB243F0A0031BB299B2CD
:1007A000FB89DBB29AB27B689BB264200290019312
:1007B000BB6800930123074806F006FD0346002BA3
:1007C00001D1012300E0002318461037BD4680BD4B
:1007D000000402581801002480B582B000AFFFF772
:1007E00055FF034683F00103DBB2002B01D0002349
:1007F0003FE0FB1D012219460020FFF7BBFF034627
:1008000083F00103DBB2002B01D0002331E0FB7940
:10081000BB2B2DD0BB23FB71FB1D012219460020F1
:10082000FFF74EFF034683F00103DBB2002B01D03C
:1008300000231EE000233B603B46042219460520AE
:10084000FFF73EFF034683F00103DBB2002B01D02C
:1008500000230EE03B46042219460120FFF730FF3B
:10086000034683F00103DBB2002B01D0002300E03C
:10087000012318460837BD4680BD80B582B000AF61
:1008800003463960FB80FB88042239681846FFF76D
:1008900071FF034683F00103DBB2002B01D000237C
:1008A00000E0012318460837BD4680BD80B582B000
:1008B00000AF03463960FB80FB8804223968184684
:1008C000FFF7FEFE034683F00103DBB2002B01D0ED
:1008D000002300E0012318460837BD4680BD000014
:1008E00080B500AF01F036FC00F092F800F092FB0A
:1008F00000F070FB00F080F900F0BEF900F0DAF9CA
:1009000000F0D0FA00F01AFB00F02AFA00F07CFAAE
:1009100000F0FAF813F06EFF01228021344806F04F
:100920006FFA322001F072FC00224FF4006131486E
:1009300006F066FA00201FF0FBFA00201EF03AFDD8
:10094000012220212C4806F05BFA322001F05EFCE7
:1009500000222021284806F053FA01224FF40061BA
:10096000244806F04DFA05201FF0F8FE4FF40072FF
:100970001F4901201FF00EFF4FF480521C49022036
:100980001FF008FF4FF48062194903201FF002FF97
:100990004FF48072164904201FF0FCFE4FF40062F1
:1009A000134905201FF0F6FE14480DF0D7FC13F094
:1009B0007BF9FFF711FF1CF099FE1DF0DBFB19F02E
:1009C00093F8012019F073FE03460D4A13600D4A97
:1009D00000210D4819F009F903460C4A1360084834
:1009E00001F03EFA19F0C6F800BF0023184680BD9A
:1009F000000C02580010025800040258BC020024E7
:100A0000B0000024942302083D120008A80400242A
:100A100080B59CB000AF07F124034C22002118469A
:100A200020F0F0F83B1D20220021184620F0EAF8C3
:100A3000022007F029F900233B60314BDB6A304A82
:100A400023F00103D3622E4BDB6A03F001033B600A
:100A50002C4B9B6923F440432A4A43F4804393611F
:100A6000284B9B6903F440433B603B6800BF254B28
:100A70009B6903F40053B3F5005FF8D101237B6257
:100A80004FF48033BB620223BB640223FB64012367
:100A90003B6530237B650223BB650423FB65022392
:100AA0003B660C237B660023BB660023FB6607F1D5
:100AB0002403184607F022F90346002B01D000F06A
:100AC000ABFC3F237B600323BB600023FB60082358
:100AD0003B6100237B614023BB610023FB6100235A
:100AE0003B623B1D0221184607F062FD0346002BC6
:100AF00001D000F091FC00BF7037BD4680BD00BF43
:100B0000000400580048025880B58AB000AF07F1D1
:100B10001C0300221A605A609A603B4600221A6049
:100B20005A609A60DA601A615A619A612F4B304AB2
:100B30001A602E4B00225A602C4B00229A602B4BDD
:100B40000022DA60294B04221A61284B00221A7510
:100B5000264B00225A75254B01229A61234B002215
:100B60001A77224B00225A62204B00229A621F4BB6
:100B70000022DA621D4B00221A631C4B00225A63CA
:100B80001A4B002283F83820184801F0A1FD0346D3
:100B9000002B01D000F040FC0023FB6107F11C0397
:100BA0001946124802F06AFF0346002B01D000F0FC
:100BB00033FC104B3B6006237B600023BB6040F29C
:100BC000FF73FB6004233B6100237B6100237B7682
:100BD0003B461946054802F01DF90346002B01D09B
:100BE00000F01AFC00BF2837BD4680BDB4000024C9
:100BF000002002408000501D80B500AF1B4B1C4AF6
:100C00001A601A4B1B4A5A60184B00229A60174B05
:100C10000122DA60154B00221A61144B00225A613E
:100C2000124B00229A61114B0022DA610F4B002215
:100C30001A620E4806F018F90346002B01D000F0A6
:100C4000EBFB0021094806F087FF0346002B01D08B
:100C500000F0E2FB0021054806F0C9FF0346002B27
:100C600001D000F0D9FB00BF80BD00BF18010024F7
:100C7000005400405D3E302080B400AF0B4B0C4A66
:100C80001A600A4B00225A60084B00229A60074BF8
:100C90004FF48042DA60054B00221A61034B0822B0
:100CA0005A6100BFBD465DF8047B70476C010024AB
:100CB0000024024880B500AF274B284A1A60264B13
:100CC0004FF480025A60244B00229A60224B072284
:100CD000DA60214B00221A611F4B00225A611E4B21
:100CE0004FF080629A611C4B4FF08052DA611A4BD0
:100CF00000221A62184B00225A62174B00229A6295
:100D0000154B0022DA62144B4FF080425A63124BAB
:100D100000229A63104B0022DA630F4B00221A6400
:100D20000D4B00225A640C4B00229A640A4B00229D
:100D3000DA64094B00221A65074B00225A65064BFC
:100D400000229A6504480CF063F90346002B01D099
:100D500000F062FB00BF80BDE801002400380040C5
:100D600080B588B000AF07F1100300221A605A6006
:100D70009A60DA603B1D00221A605A609A60204B2C
:100D8000204A1A601E4B5F225A601D4B00229A6057
:100D90001B4B4FF6FF72DA60194B00221A61184B99
:100DA00000225A61164B00229A6115480DF07FFA15
:100DB0000346002B01D000F02FFB4FF480533B6122
:100DC00007F1100319460E480DF048FC0346002BAE
:100DD00001D000F021FB00237B600023BB600023D7
:100DE000FB603B1D194606480DF09CFE0346002B98
:100DF00001D000F011FB00BF2037BD4680BD00BF11
:100E0000700200240000014080B588B000AF07F1F7
:100E1000100300221A605A609A60DA603B1D0022BB
:100E20001A605A609A601E4B4FF080421A601C4B49
:100E300040F2BF325A601A4B00229A60184B42F2BD
:100E40001072DA60164B00221A61154B00229A616B
:100E500013480DF02CFA0346002B01D000F0DCFA09
:100E60004FF480533B6107F1100319460C480DF015
:100E7000F5FB0346002B01D000F0CEFA00237B6087
:100E80000023FB603B1D194605480DF04BFE034651
:100E9000002B01D000F0C0FA00BF2037BD4680BD56
:100EA000BC02002480B500AF224B234A1A60214BBC
:100EB0004FF4E1325A601F4B00229A601D4B002212
:100EC000DA601C4B00221A611A4B0C225A61194B32
:100ED00000229A61174B0022DA61164B00221A6237
:100EE000144B00225A62134B00229A6211480DF0F3
:100EF000C5FE0346002B01D000F08EFA00210D48FC
:100F00000FF01FFF0346002B01D000F085FA0021EF
:100F100008480FF054FF0346002B01D000F07CFA84
:100F200004480FF0D5FE0346002B01D000F074FA00
:100F300000BF80BD080300240078004080B500AFEA
:100F4000224B234A1A60214B4FF4E1325A601F4B67
:100F500000229A601D4B0022DA601C4B00221A61AD
:100F60001A4B0C225A61194B00229A61174B00222E
:100F7000DA61164B00221A62144B00225A62134B9C
:100F800000229A6211480DF079FE0346002B01D031
:100F900000F042FA00210D480FF0D3FE0346002B6B
:100FA00001D000F039FA002108480FF008FF03468D
:100FB000002B01D000F030FA04480FF089FE034600
:100FC000002B01D000F028FA00BF80BD9C03002454
:100FD000007C004080B582B000AF0D4BD3F8D83014
:100FE0000B4A43F00103C2F8D830094BD3F8D8308C
:100FF00003F001037B607B68002205210B2002F0D7
:10100000D3FE0B2002F0EAFE00BF0837BD4680BDCC
:101010000044025880B58CB000AF07F11C030022D9
:101020001A605A609A60DA601A617F4BD3F8E03038
:101030007D4A43F01003C2F8E0307B4BD3F8E03038
:1010400003F01003BB61BB69774BD3F8E030764AFD
:1010500043F08003C2F8E030734BD3F8E03003F084
:1010600080037B617B69704BD3F8E0306E4A43F0BC
:101070000403C2F8E0306C4BD3F8E03003F0040313
:101080003B613B69684BD3F8E030674A43F00103AA
:10109000C2F8E030644BD3F8E03003F00103FB60AA
:1010A000FB68614BD3F8E0305F4A43F00203C2F8BB
:1010B000E0305D4BD3F8E03003F00203BB60BB6867
:1010C000594BD3F8E030584A43F00803C2F8E030F7
:1010D000554BD3F8E03003F008037B607B680122B6
:1010E0000821524805F08CFE00223021504805F0BE
:1010F00087FE00224FF400614C4805F081FE00227B
:101100004EF280014B4805F07BFE002220214A4828
:1011100005F076FE01224021474805F071FE0823C4
:10112000FB6101233B6201237B620023BB6207F169
:101130001C0319463D4805F09BFC3023FB6101234D
:101140003B6200237B620023BB6207F11C0319464C
:10115000374805F08DFC4FF40063FB6101233B62CF
:1011600000237B620023BB6207F11C0319462F4852
:1011700005F07EFC4FF40063FB6100233B6201231A
:101180007B6207F11C0319462B4805F071FC4FF4F4
:10119000F853FB614FF404133B6201237B6207F1B8
:1011A0001C031946234805F063FC4EF28003FB61E3
:1011B00001233B6200237B620023BB6207F11C0317
:1011C00019461C4805F054FC2023FB6101233B62B7
:1011D00000237B620023BB6207F11C0319461648FB
:1011E00005F046FC4023FB6101233B6201237B6247
:1011F0000023BB6207F11C0319460F4805F038FCB9
:1012000000220521172002F0CFFD172002F0E6FD95
:1012100000220521282002F0C7FD282002F0DEFD73
:1012200000BF3037BD4680BD004402580010025850
:1012300000080258000C025800040258B0B590B0E3
:1012400008AF786005201FF0E9FA0346012B0DD1A5
:101250005B4B1B680133052293FBF2F101FB02F2A9
:101260009B1A574A1360574B01221A7001201FF036
:10127000D5FA0346012B14D1514B1B68013B0522C3
:1012800093FBF2F101FB02F29B1A4D4A13604C4BA7
:101290001B68002B02DA0522494B1A60494B0122D8
:1012A0001A70494B1B684FF0FF31184619F088FD42
:1012B000464B1B78002B09D0454800F0DFFE00F0BC
:1012C0006FFE00F00FFF414B00221A703D4B1B7860
:1012D000002B25D03F4B07F10C041D460FCD0FC44A
:1012E0002B68236005239DB2354B1B6807F10C0466
:1012F000002206924FF6FF720592374903AA03C9EE
:1013000082E8030002939F2301937B2300931E2313
:101310000522294620461EF067F82A4B00221A7043
:10132000294B186800230022002119F043FA0320FA
:101330001FF074FA0346012B36D1214B1B68002B9A
:1013400003D1264812F004FF23E01D4B1B68012B3C
:1013500003D122481CF0D2F91BE0194B1B68022B69
:1013600003D11E4811F088F813E0154B1B68032BBE
:1013700003D11A4810F0CEFB0BE000224FF40061BD
:10138000174805F03DFD00228021164805F038FD84
:101390000EE000201AF0D2FA1FF0DEFA094B01220B
:1013A0001A700A4B01221A70FA2018F0B0FC49E7B3
:1013B00000201AF01DFA00BF2037BD46B0BD00BFA7
:1013C000AC00002401000024B00000240000002430
:1013D000C01D0208101E02082C000024A8040024CE
:1013E00000100258000C025880B582B000AF78603F
:1013F0007B681B68074A934201D100F0E7FE7B68D7
:101400001B68B3F1804F01D11FF026F800BF0837E9
:10141000BD4680BD0048014080B400AF72B600BF39
:10142000FEE7000080B582B000AF0C4BD3F8F4307B
:101430000A4A43F00203C2F8F430084BD3F8F43000
:1014400003F002037B607B6800220F216FF0010034
:1014500002F0AAFC00BF0837BD4680BD0044025818
:1014600080B5BAB000AF786007F1D40300221A60EB
:101470005A609A60DA601A6107F11003C0220021F5
:1014800018461FF0BFFB7B681B682B4A93424FD165
:101490004FF400224FF00003C7E904230423BB618B
:1014A0006023FB6110233B6202237B620223BB6249
:1014B0004023FB6200233B6300237B630023C7F8C8
:1014C000B43007F11003184607F040FC0346002B28
:1014D00001D0FFF7A1FF194BD3F8D830174A43F0DA
:1014E0002003C2F8D830154BD3F8D83003F02003CE
:1014F000FB60FB68114BD3F8E030104A43F0010366
:10150000C2F8E0300D4BD3F8E03003F00103BB60CC
:10151000BB688023C7F8D4300323C7F8D830002332
:10152000C7F8DC3007F1D4031946054805F0A0FAE6
:1015300000BFE837BD4680BD00200240004402588D
:101540000000025880B5BAB000AF786007F1D4034C
:1015500000221A605A609A60DA601A6107F110037B
:10156000C022002118461FF04DFB7B681B68274AEC
:10157000934246D14FF008024FF00003C7E904231D
:101580000023C7F8943007F11003184607F0DEFB7C
:101590000346002B01D0FFF73FFF1D4BD3F8E0308F
:1015A0001B4A43F00203C2F8E030194BD3F8E03095
:1015B00003F00203FB60FB684FF44073C7F8D430BC
:1015C0001223C7F8D8300023C7F8DC300023C7F84F
:1015D000E0300423C7F8E43007F1D40319460D487E
:1015E00005F046FA0A4BD3F8E830094A43F40013F1
:1015F000C2F8E830064BD3F8E83003F40013BB60C0
:10160000BB6800BFE837BD4680BD00BF0054004046
:10161000004402580004025880B5BCB000AF7860A6
:1016200007F1DC0300221A605A609A60DA601A61DE
:1016300007F11803C022002118461FF0E3FA7B6867
:101640001B684F4A934240F096804FF480324FF02F
:101650000003C7E906230023BB6607F118031846F9
:1016600007F074FB0346002B01D0FFF7D5FE454B76
:10167000D3F8DC30434A43F40073C2F8DC30414B0A
:10168000D3F8DC3003F400737B617B693D4BD3F806
:10169000E0303C4A43F00403C2F8E030394BD3F861
:1016A000E03003F004033B613B69364BD3F8E03094
:1016B000344A43F00103C2F8E030324BD3F8E03053
:1016C00003F00103FB60FB682E4BD3F8E0302D4A9A
:1016D00043F00203C2F8E0302A4BD3F8E03003F0C5
:1016E0000203BB60BB680223C7F8DC300223C7F8E3
:1016F000E0300023C7F8E4300323C7F8E8300923BB
:10170000C7F8EC3007F1DC0319461F4805F0B0F9C3
:101710000123C7F8DC300223C7F8E0300023C7F804
:10172000E4300323C7F8E8300923C7F8EC3007F1A9
:10173000DC031946154805F09BF94CF21803C7F86D
:10174000DC300223C7F8E0300023C7F8E43003237D
:10175000C7F8E8300923C7F8EC3007F1DC03194675
:101760000B4805F085F9002205217C2002F01CFBC6
:101770007C2002F033FB00BFF037BD4680BD00BFC8
:101780000024024800440258000802580000025891
:101790000004025880B5BCB000AF786007F1DC03EC
:1017A00000221A605A609A60DA601A6107F1180321
:1017B000C022002118461FF025FA7B681B683C4AAE
:1017C000934271D14FF480524FF00003C7E90623D2
:1017D0000023BB6707F11803184607F0B7FA034662
:1017E000002B01D0FFF718FE324BD3F8E830314A16
:1017F00043F48043C2F8E8302E4BD3F8E83003F4CA
:1018000080437B617B692B4BD3F8E030294A43F05E
:101810000403C2F8E030274BD3F8E03003F00403B0
:101820003B613B69234BD3F8E030224A43F002038B
:10183000C2F8E0301F4BD3F8E03003F00203FB6046
:10184000FB680C23C7F8DC300223C7F8E030002324
:10185000C7F8E4300023C7F8E8300523C7F8EC30B8
:1018600007F1DC031946144805F002F94FF4005360
:10187000C7F8DC300223C7F8E0300023C7F8E430B3
:101880000023C7F8E8300523C7F8EC3007F1DC0384
:1018900019460A4805F0ECF800220521242002F040
:1018A00083FA242002F09AFA00BFF037BD4680BDCB
:1018B0000038004000440258000802580004025852
:1018C00080B584B000AF78607B681B68194A93428A
:1018D0000FD1194BD3F8F030174A43F00103C2F887
:1018E000F030154BD3F8F03003F00103FB60FB68D8
:1018F0001BE07B681B68B3F1804F16D10E4BD3F809
:10190000E8300D4A43F00103C2F8E8300A4BD3F83F
:10191000E83003F00103BB60BB68002205211C20F6
:1019200002F042FA1C2002F059FA00BF1037BD46FF
:1019300080BD00BF000001400044025880B5BCB02B
:1019400000AF786007F1DC0300221A605A609A60E9
:10195000DA601A6107F11803C022002118461FF04F
:1019600051F97B681B686C4A93424FD14FF00202D9
:101970004FF00003C7E906230023C7F8903007F1B2
:101980001803184607F0E2F90346002B01D0FFF7D1
:1019900043FD624BD3F8E830604A43F08043C2F81D
:1019A000E8305E4BD3F8E83003F080437B617B691D
:1019B0005A4BD3F8E030594A43F00103C2F8E03003
:1019C000564BD3F8E03003F001033B613B694FF421
:1019D0000143C7F8DC300223C7F8E0300023C7F822
:1019E000E4300023C7F8E8300B23C7F8EC3007F1E8
:1019F000DC0319464A4805F03BF800220521522035
:101A000002F0D2F9522002F0E9F980E07B681B680D
:101A1000444A93427BD14FF002024FF00003C7E9E2
:101A200006230023C7F8903007F11803184607F083
:101A30008DF90346002B01D0FFF7EEFC374BD3F8AE
:101A4000E830364A43F00043C2F8E830334BD3F86D
:101A5000E83003F00043FB60FB68304BD3F8E03024
:101A60002E4A43F01003C2F8E0302C4BD3F8E0309C
:101A700003F01003BB60BB680323C7F8DC3002230C
:101A8000C7F8E0300023C7F8E4300023C7F8E83097
:101A90000823C7F8EC3007F1DC031946224804F0AC
:101AA000E7FF224B224A1A60204B51225A601F4BFB
:101AB00000229A601D4B0022DA601C4B4FF48062BA
:101AC0001A611A4B00225A61184B00229A61174B77
:101AD0000022DA61154B00221A62144B00225A626E
:101AE000124802F089F90346002B01D0FFF794FC5D
:101AF0007B680E4AC3F880200C4A7B6893630022FF
:101B00000521532002F050F9532002F067F900BF7D
:101B1000F037BD4680BD00BF007800400044025849
:101B200000000258007C00400010025830040024DD
:101B30001000024080B58EB000AF78607B680F2B3C
:101B400042D800227968762002F02EF9762002F041
:101B500045F9234A7B681360224BD3F8F030214AC1
:101B600043F48023C2F8F0301E4BD3F8F03003F476
:101B70008023BB60BB6807F10C0207F1100311461C
:101B8000184607F0A1F807F089F878637B6B164ACE
:101B9000A2FB03239B0C013B3B63144B144A1A60CA
:101BA000124B40F2E732DA60104A3B6B53600F4B46
:101BB00000221A610D4B00229A600C480CF077FB52
:101BC0000346002B07D101E0012305E007480CF094
:101BD000C5FB034600E0012318463837BD4680BDEB
:101BE0000C0000240044025883DE1B43AC04002494
:101BF0000048014080B400AFFEE780B400AFFEE7CC
:101C000080B400AFFEE780B400AFFEE780B400AF61
:101C1000FEE780B400AF00BFBD465DF8047B7047AF
:101C200080B500AF024803F011FC00BF80BD00BFCB
:101C30003004002480B500AF4FF4807005F0F9F84F
:101C40004FF4007005F0F5F800BF80BD80B500AF1F
:101C500002480CF0FBFB00BF80BD00BFBC020024AB
:101C600080B500AF02480CF01FF800BF80BD00BF78
:101C7000E801002480B500AF4FF4806005F0D9F88A
:101C80004FF4006005F0D5F84FF4805005F0D1F81E
:101C900000BF80BD80B500AF02480DF0D3F800BF93
:101CA00080BD00BF0803002480B500AF02480DF0DE
:101CB000C9F800BF80BD00BF9C03002480B500AF01
:101CC00002480CF0C3FB00BF80BD00BFAC04002481
:101CD00080B500AF024809F0A7FF00BF80BD00BF7C
:101CE0006C01002480B586B000AF7860144A154BB3
:101CF000D31A7B617B693B61134B1B68002B02D1BC
:101D0000114B124A1A60104B1A687B6813443A69E7
:101D10009A4207D21EF0F8FF03460C221A604FF0D9
:101D2000FF3309E0084B1B68FB60074B1A687B68B0
:101D30001344054A1360FB6818461837BD4680BD3A
:101D40000000082400080000F804002420CD01242D
:101D500080B400AF374BD3F88830364A43F4700371
:101D6000C2F88830344B1B6803F00F03062B07D8EA
:101D7000314B1B6823F00F032F4A43F00703136016
:101D80002E4B1B682D4A43F0010313602B4B00229E
:101D90001A612A4B1A682949294B13400B60264BBC
:101DA0001B6803F00803002B07D0234B1B6823F0AC
:101DB0000F03214A43F007031360204B00229A616E
:101DC0001E4B0022DA611D4B00221A621B4B1D4A7A
:101DD0009A621A4B1C4ADA62184B1C4A1A63174B58
:101DE00000225A63154B194A9A63144B0022DA6396
:101DF000124B164A1A64114B00225A640F4B1B688F
:101E00000E4A23F4802313600C4B00221A66104BF9
:101E10001A68104B1340B3F1005F02D20E4B01223F
:101E20001A600E4B43F2D2021A6000BFBD465DF845
:101E3000047B704700ED00E000200052004402588F
:101E40007FEDF6EA000202020000FF0180020101BC
:101E50000010005C0000FFFF0881005100400052AC
:101E600080B584B002AF7860084B00221A7000235E
:101E70000193082300937B684FF48052044905487E
:101E800019F05BFB00BF0837BD4680BDFC04002491
:101E9000241E0208991E000880B586B000AF786045
:101EA0007B687B614FF000033B610023FB810022D4
:101EB0000821334804F0A4FF324800F0ABFD642150
:101EC000304800F0A5FE2F4800F096FF0346FB8146
:101ED0002C4800F069FE01220821294804F090FFF7
:101EE000FB8907EE903AF8EEE77A9FED277A27EE26
:101EF000877ADFED266AC7EE267AC7ED047A97ED7A
:101F0000047ADFED236AC7EE267AC7ED047AD7EDAF
:101F1000047AB0EE087A37EEC77ADFED1E6AC7EEB4
:101F2000267A9FED1D7A67EE877AFDEEE77A17EE47
:101F3000902A1A4B1A60194B1B68002B03DA174BB7
:101F400000221A6006E0154B1B68642B02DD134B60
:101F500064221A607B691B684FF0FF31184618F045
:101F60002FFF00F01DF87B69186800230022002174
:101F700018F020FC41F2883017F0C9FE97E700BF47
:101F800000100258B40000244C37514000FF7F4736
:101F9000F47F243F9899993F0000C842000500242F
:101FA00080B586B004AF2C4B1B78002B10D02B4B88
:101FB000002202924FF6FF7201925A6800921B684B
:101FC000274A012101201EF015F9234B00221A7027
:101FD0002348FEF785F903469BB21A46D200D31A6E
:101FE0009BB20233FB80B7F90600FB88C3F1800384
:101FF0009BB21AB2002300930B2300211CF031FC8A
:10200000184B1B681A46184918481EF0ADFD134BB3
:10201000002202924FF6FF7201925A6800921B68EA
:10202000124A012163201EF0E5F8114B1B78002BAA
:102030000DD0104B002202924FF6FF7201925A68A7
:1020400000921B680C4A012157201EF0D3F800BFF4
:102050000837BD4680BD00BF1B0500242C000024AE
:102060001005002400050024341E02080405002485
:10207000FC040024240000243C1E020880B584B027
:1020800000AF78607868FEF72BF90346FB81FB8987
:102090000A2B28BF0A23FB81FB891A467968074867
:1020A0001EF05EFEFB89054A0021D154044B01223B
:1020B0001A7000BF1037BD4680BD00BF1005002458
:1020C0001B05002480B483B000AF0346FB71044AB3
:1020D000FB79137000BF0C37BD465DF8047B704779
:1020E000FC04002480B582B002AF00230093952346
:1020F00080220C2100201CF0B4FB00BFBD4680BD37
:10210000DFF834D0FFF724FE0C480D490D4A0023B8
:1021100002E0D458C4500433C4188C42F9D30A4A9C
:102120000A4C002301E013600432A242FBD31EF0EC
:10213000F1FDFEF7D5FB70470000082400000024E5
:102140008C0000243C440208900000241CCD012493
:10215000FEE7000080B582B000AF032001F019FE59
:1021600006F0DCFB0246154B9B691B0A03F00F03CC
:102170001349CB5C03F01F0322FA03F37B600F4B80
:102180009B6903F00F030E4AD35C03F01F037A68C8
:1021900022FA03F30B4A13600B4A7B6813600F208B
:1021A000FFF7C8FC0346002B01D0012302E0FFF734
:1021B00039F9002318460837BD4680BD004402584F
:1021C000B8230208080000240400002480B400AFF3
:1021D000064B1B781A46064B1B681344044A1360CF
:1021E00000BFBD465DF8047B704700BF10000024AF
:1021F0001C05002480B400AF034B1B681846BD4685
:102200005DF8047B704700BF1C05002480B584B0D6
:1022100000AF7860FFF7EEFFB8607B68FB60FB689B
:10222000B3F1FF3F05D00A4B1B781A46FB681344F5
:10223000FB6000BFFFF7DEFF0246BB68D31AFA68F7
:102240009A42F7D800BF00BF1037BD4680BD00BF1F
:102250001000002480B400AF034B1B681B0C184611
:10226000BD465DF8047B70470010005C80B483B00D
:1022700000AF786039607B689B6823F47C123B6810
:102280001A437B689A6000BF0C37BD465DF8047B3B
:10229000704780B483B000AF786039607B689B681A
:1022A00023F0E0723B681A437B689A6000BF0C37EA
:1022B000BD465DF8047B704780B483B000AF7860A2
:1022C0007B689B6803F0E07318460C37BD465DF8E9
:1022D000047B704780B487B000AFF860B9607A6063
:1022E0003B60FB6860331A46BB689B0013447B610C
:1022F0007B691B6803F000427B6803F0F8413B6890
:102300000B431A437B691A6000BF1C37BD465DF85A
:10231000047B704780B485B000AFF860B9607A6024
:10232000FB681B6923F4F042BB6803F01F03796864
:1023300001FA03F31A43FB681A6100BF1437BD4664
:102340005DF8047B704780B487B000AFF860B96077
:102350007A60FB6860331A46BB689B0013447B615C
:102360007B691B6823F000427B681A437B691A6013
:1023700000BF1C37BD465DF8047B704780B483B056
:1023800000AF78607B68DB6803F44063002B01D109
:10239000012300E0002318460C37BD465DF8047B9E
:1023A000704780B487B000AFF860B9607A60FB68AE
:1023B00030331A46BB681B0A9B0003F00C0313441E
:1023C0007B617B691A68BB6803F01F031F2101FA58
:1023D00003F3DB431A407B689B0E03F01F01BB68CD
:1023E00003F01F0301FA03F31A437B691A6000BF6D
:1023F0001C37BD465DF8047B704780B487B000AFE2
:10240000F860B9607A60FB6814331A46BB685B0EEB
:102410009B0003F0040313447B617B691A68BB686B
:102420001B0D03F01F03072101FA03F3DB431A40DE
:10243000BB681B0D03F01F03796801FA03F31A430D
:102440007B691A6000BF1C37BD465DF8047B70478E
:1024500080B485B000AFF860B9607A60FB68D3F8EB
:10246000C020BB68C3F31303DB431A407B6803F04F
:1024700018030849D940BB680B40C3F313031A4340
:10248000FB68C3F8C02000BF1437BD465DF8047B6D
:10249000704700BFFFFF0F0080B483B000AF7860CB
:1024A0007B689B6803F01F0318460C37BD465DF838
:1024B000047B704780B483B000AF78607B689B6812
:1024C00003F4404318460C37BD465DF8047B704763
:1024D00080B483B000AF78607B689A68044B134087
:1024E0007A68936000BF0C37BD465DF8047B704787
:1024F000C0FFFF5F80B483B000AF78607B689B68EB
:1025000003F00053B3F1005F01D1012300E0002389
:1025100018460C37BD465DF8047B704780B483B025
:1025200000AF78607B689A68054B134043F0805297
:102530007B689A6000BF0C37BD465DF8047B70472E
:10254000C0FFFF6F80B483B000AF78607B689B688A
:1025500003F08053B3F1805F01D1012300E0002339
:1025600018460C37BD465DF8047B704780B483B0D5
:1025700000AF78607B689A68054B134043F0010216
:102580007B689A6000BF0C37BD465DF8047B7047DE
:10259000C0FFFF7F80B483B000AF78607B689A682B
:1025A000054B134043F002027B689A6000BF0C3772
:1025B000BD465DF8047B7047C0FFFF7F80B483B0E9
:1025C00000AF78607B689B6803F00103012B01D1A9
:1025D000012300E0002318460C37BD465DF8047B5C
:1025E000704780B483B000AF78607B689B6803F06D
:1025F0000203022B01D1012300E0002318460C370F
:10260000BD465DF8047B704780B483B000AF78604E
:102610007B689A68054B134043F004027B689A601C
:1026200000BF0C37BD465DF8047B7047C0FFFF7FDD
:1026300080B483B000AF78607B689A68054B134024
:1026400043F010027B689A6000BF0C37BD465DF80E
:10265000047B7047C0FFFF7F80B483B000AF786019
:102660007B689B6803F00403042B01D1012300E085
:10267000002318460C37BD465DF8047B7047000008
:1026800080B483B000AF78607B689A68054B1340D4
:1026900043F020027B689A6000BF0C37BD465DF8AE
:1026A000047B7047C0FFFF7F80B483B000AF7860C9
:1026B0007B689B6803F00803082B01D1012300E02D
:1026C000002318460C37BD465DF8047B70470000B8
:1026D00090B589B000AF78600023FB770023BB6022
:1026E0007B68002B01D101238FE17B68DB68002B25
:1026F0007B685B6D002B09D17868FEF7B1FE7B68C3
:1027000000229A657B68002283F850207B681B6852
:102710001846FFF7EFFE0346002B04D07B681B68CA
:102720001846FFF7D5FE7B681B681846FFF70AFFBF
:102730000346002B14D17B681B681846FFF7EEFE9A
:10274000874B1B689B09874AA2FB03239B09013324
:10275000BB6002E0BB68013BBB60BB68002BF9D1EA
:102760007B681B681846FFF7EDFE0346002B0DD172
:102770007B685B6D43F010027B685A657B689B6DDC
:1027800043F001027B689A650123FB777B681B6835
:102790001846FFF761FF78617B685B6D03F01003FB
:1027A000002B40F029817B69002B40F025817B685C
:1027B0005B6D23F4817343F002027B685A657B688A
:1027C0001B681846FFF7FAFE0346002B36D17B68DC
:1027D0001B68654A934204D07B681B68634A934236
:1027E0000ED16148FFF7EAFE04466048FFF7E6FEB7
:1027F00003462343002B0CBF01230023DBB208E078
:102800005B48FFF7DBFE0346002B0CBF01230023D0
:10281000DBB2002B12D07B681B68534A934204D072
:102820007B681B68514A934201D1524A00E0524AE8
:102830007B685B6819461046FFF718FDFFF70AFD35
:10284000034641F20302934214D97B689B68102B24
:1028500010D17B685B7D5A037B681B6B1A437B68D6
:102860009B681A437B681B7F1B04134343F00C03D4
:10287000BB610DE07B685B7D5A037B681B6B1A4371
:102880007B689B681A437B681B7F1B041343BB61F7
:102890007B681B7F012B06D17B681B6A013B5B04B5
:1028A000BA691343BB617B685B6A002B09D07B6804
:1028B0005B6A03F478727B689B6A1343BA691343BB
:1028C000BB617B681B68DA682C4B13407A6812681E
:1028D000B9690B43D3607B681B681846FFF7BCFEE1
:1028E00038617B681B681846FFF7DEFEF8603B69BD
:1028F000002B5FD1FB68002B5CD17B681B7D9A03AA
:102900007B68DB6A1343BB617B681B68DA681C4B1E
:1029100013407A681268B9690B43D3607B6893F8F7
:102920003830012B30D17B685B6A002B7B681B68D9
:102930001A69144B13407A68D26B013A11047A6811
:10294000126C11437A68526C11437A68926C0A4394
:102950001A437B681B6842F001021A611CE000BF49
:1029600004000024632D3E050020024000210240A7
:1029700000600258002302400063025803C0F0FFC9
:10298000FCBFFFFF1EF800FC7B681B681A697B68B0
:102990001B6822F001021A617B681B681B6923F027
:1029A00070417B685A6B7B681B680A431A617868C0
:1029B00000F032FF7B68DB68012B0CD17B681B6861
:1029C0001B6B23F00F017B689B695A1E7B681B6899
:1029D0000A431A6307E07B681B681A6B7B681B68F5
:1029E00022F00F021A637B685B6D23F0030343F050
:1029F00001027B685A6507E07B685B6D43F010025B
:102A00007B685A650123FB77FB7F18462437BD4658
:102A100090BD00BF80B586B000AF78607B681B6852
:102A20005C4A934204D07B681B685B4A934201D1A5
:102A30005A4B00E05A4B1846FFF72EFD38617B6871
:102A40001B681846FFF708FE0346002B40F09A80EB
:102A50007B6893F85030012B01D1022395E07B680D
:102A6000012283F85020786800F0ECFD0346FB75E6
:102A7000FB7D002B40F081807B685A6D494B1340F1
:102A800043F480727B685A657B681B68424A9342B4
:102A900002D07B681B6800E03E4B7A681268934264
:102AA00002D03B69002B05D17B685B6D23F480125B
:102AB0007B685A657B685B6D03F48053B3F5805F78
:102AC00006D17B689B6D23F006027B689A6502E065
:102AD0007B6800229A657B681B681C221A607B68F1
:102AE000002283F850207B681B682B4A934202D057
:102AF0007B681B6800E0274B7A681268934208D015
:102B00003B69002B05D03B69052B02D03B69092BA3
:102B100014D17B681B68DB6803F00073002B07D0BF
:102B20007B685B6D23F4405343F480527B685A65A5
:102B30007B681B681846FFF767FD25E07B685B6DC7
:102B400043F480127B685A657B681B68124A934283
:102B500002D07B681B6800E00E4BFB60FB68DB6803
:102B600003F00073002B0FD07B685B6D23F44053A0
:102B700043F480527B685A6506E07B68002283F844
:102B8000502001E00223FB75FB7D18461837BD4637
:102B900080BD00BF0020024000210240002302400F
:102BA00000630258FEF0FFFF80B584B000AF78608C
:102BB0007B6893F85030012B01D1022321E07B6820
:102BC000012283F850200321786800F07FFC03463F
:102BD000FB73FB7B002B0FD1786800F0BDFD034633
:102BE000FB73FB7B002B07D17B685A6D074B1340AF
:102BF00043F001027B685A657B68002283F850200D
:102C0000FB7B18461037BD4680BD00BFFEEEFFFFC0
:102C100080B588B000AF786039607B681B68724A05
:102C2000934204D07B681B68704A934201D1704B79
:102C300000E0704B1846FFF72FFC78617B681B693A
:102C4000082B02D10823FB6137E07B69002B05D0FC
:102C50007B69052B02D07B69092B11D17B681B682E
:102C6000DB6803F00103002B07D07B685B6D43F04A
:102C700020027B685A650123B1E00423FB611CE05C
:102C80007B681B68584A934204D07B681B68574A8C
:102C9000934201D1564B00E0564B1846FFF70AFC11
:102CA0000346002B07D07B685B6D43F020027B68F6
:102CB0005A65012393E00423FB61FFF79BFA386117
:102CC00021E03B68B3F1FF3F1DD0FFF793FA0246C6
:102CD0003B69D31A3A689A4202D33B68002B12D15F
:102CE0007B681B681A68FB691340002B0BD17B685B
:102CF0005B6D43F004027B685A657B68002283F8B1
:102D0000502003236BE07B681B681A68FB69134043
:102D1000002BD6D07B685B6D43F400727B685A65EC
:102D20007B681B681846FFF729FB0346002B1CD065
:102D30007B685B7D002B18D17B681B681B6803F0E8
:102D40000803082B11D17B685B6D23F480727B68CC
:102D50005A657B685B6D03F48053002B05D17B685B
:102D60005B6D43F001027B685A657B681B681F4AF4
:102D7000934202D07B681B6800E01B4B7A681268A4
:102D8000934208D07B69002B05D07B69052B02D0CC
:102D90007B69092B04D17B681B68DB68BB610CE095
:102DA0007B681B68114A934202D07B681B6800E075
:102DB0000D4BFB60FB68DB68BB61FB69082B04D132
:102DC0007B681B6808221A6008E0BB6903F4804333
:102DD000002B03D17B681B680C221A600023184665
:102DE0002037BD4680BD00BF0020024000210240C8
:102DF000002302400063025880B483B000AF7860C3
:102E00007B681B681B6C18460C37BD465DF8047B5D
:102E10007047000090B5A1B000AF78603960002322
:102E200087F87F300023BB603B68DB68654A9342CC
:102E30007B6893F85030012B01D102232EE37B688D
:102E4000012283F850207B681B681846FFF704FCBA
:102E50000346002B40F013833B681B68002B2CDBE0
:102E60003B681B68C3F31303002B08D13B681B6846
:102E70009B0E03F01F03012202FA03F316E03B68E6
:102E80001B687B667B6E93FAA3F33B663B6EBB6667
:102E9000BB6E002B01D1202303E0BB6EB3FA83F39A
:102EA000DBB203F01F03012202FA03F37A6812680F
:102EB000D1697A6812680B43D3617B6818683B68F4
:102EC00059683B681B681A46FFF76BFA7B681B68FA
:102ED0001846FFF7C1FBB8677B681B681846FFF709
:102EE000E3FB7867BB6F002B40F0B8807B6F002B53
:102EF00040F0B4807B6818683B6819683B689B6841
:102F00001A46FFF77AFA304B1B6803F07043B3F1AF
:102F1000805F0BD13B685A697B681B68DB689B0844
:102F200003F007035B0002FA03F31DE07B681B68F4
:102F3000DB6803F01003002B0BD13B685A697B68F8
:102F40001B68DB689B0803F007035B0002FA03F3CE
:102F50000AE03B685A697B681B68DB689B0803F0E2
:102F600004035B0002FA03F33B673B681B69042B15
:102F70002CD07B6818683B6819693B681A683B6FFE
:102F8000FFF7A8F97B6818683B6819693B685B7EA6
:102F9000012B02D14FF0004300E000231A46FFF757
:102FA000D2F97B6818683B6819693B681B7E012B66
:102FB00002D14FF4006300E000231A46FFF7AAF99C
:102FC0004CE000BF0000FF470010005C7B681B68FE
:102FD0001B6E03F0F8423B681B689B069A4207D1C0
:102FE0007B681B681A6E7B681B6822F000421A66B9
:102FF0007B681B685B6E03F0F8423B681B689B06AE
:103000009A4207D17B681B685A6E7B681B6822F066
:1030100000425A667B681B689B6E03F0F8423B686F
:103020001B689B069A4207D17B681B689A6E7B6877
:103030001B6822F000429A667B681B68DB6E03F017
:10304000F8423B681B689B069A4207D17B681B6865
:10305000DA6E7B681B6822F00042DA667B681B68C8
:103060001846FFF7ABFA0346002B40F011827B684D
:1030700018683B6819683B68DB681A46FFF7E8F98F
:103080003B68DB68A14A934240F02E817B68186858
:103090003B681B68C3F31303002B0BD13B681B6811
:1030A0009B0E013303F01F03092B94BF0123002360
:1030B000DBB219E03B681B68BB65BB6D93FAA3F3F9
:1030C0007B657B6DFB65FB6D002B01D1202303E04D
:1030D000FB6DB3FA83F3DBB2013303F01F03092B5B
:1030E00094BF01230023DBB2002B79D03B681B681F
:1030F000C3F31303002B07D13B681B689B0E0133FE
:103100009B0603F0F84215E03B681B68FB64FB6C10
:1031100093FAA3F3BB64BB6C3B653B6D002B01D101
:10312000202303E03B6DB3FA83F3DBB201339B064C
:1031300003F0F8423B681B68C3F31303002B09D16B
:103140003B681B689B0E013303F01F03012101FA4A
:1031500003F317E03B681B683B643B6C93FAA3F3F3
:10316000FB63FB6B7B647B6C002B01D1202303E0B2
:103170007B6CB3FA83F3DBB2013303F01F0301214D
:1031800001FA03F342EA03013B681B68C3F313032C
:10319000002B0AD13B681B689B0E013303F01F0212
:1031A00013465B0013441B0518E03B681B687B63F8
:1031B0007B6B93FAA3F33B633B6BBB63BB6B002B53
:1031C00001D1202303E0BB6BB3FA83F3DBB20133FD
:1031D00003F01F0213465B0013441B050B437EE004
:1031E0003B681B68C3F31303002B07D13B681B68C4
:1031F0009B0E01339B0603F0F84215E03B681B6809
:10320000BB62BB6A93FAA3F37B627B6AFB62FB6AD5
:10321000002B01D1202303E0FB6AB3FA83F3DBB276
:1032200001339B0603F0F8423B681B68C3F31303AA
:10323000002B09D13B681B689B0E013303F01F0371
:10324000012101FA03F317E03B681B68FB61FB698E
:1032500093FAA3F3BB61BB693B623B6A002B01D1CC
:10326000202303E03B6AB3FA83F3DBB2013303F0BC
:103270001F03012101FA03F342EA03013B681B68C3
:10328000C3F31303002B0DD13B681B689B0E013366
:1032900003F01F0213465B0013441E3B1B0543F063
:1032A00000731BE03B681B683B613B6993FAA3F327
:1032B000FB60FB687B617B69002B01D1202303E06D
:1032C0007B69B3FA83F3DBB2013303F01F021346C9
:1032D0005B0013441E3B1B0543F000730B433A682D
:1032E00092681946FFF789F83B681B68002B80F24B
:1032F000CF807B681B68064A934204D07B681B68BA
:10330000044A93420AD1044B09E000BF0000FF4782
:10331000002002400021024000230240614B184679
:10332000FEF7CAFFF8667B681B685F4A934204D0C9
:103330007B681B685D4A93420ED15B48FFF73EF9FC
:1033400004465A48FFF73AF903462343002B0CBFC3
:1033500001230023DBB208E05548FFF72FF90346AD
:10336000002B0CBF01230023DBB2002B7DD03B6878
:103370001B68504A934230D1FB6E03F40003002BCC
:103380002BD17B681B684A4A934240F081807B685E
:103390001B68454A934204D07B681B68434A9342AA
:1033A00001D1454A00E03F4AFB6E43F40003194651
:1033B0001046FEF76EFF414B1B689B09404AA2FB7B
:1033C00003239B0901335B00BB6002E0BB68013B48
:1033D000BB60BB68002BF9D15AE03B681B68394AD7
:1033E00093421ED1FB6E03F08073002B19D17B68D2
:1033F0001B682F4A93424BD17B681B682A4A934231
:1034000004D07B681B68294A934201D12A4A00E014
:10341000244AFB6E43F0807319461046FEF739FFCD
:1034200036E03B681B68284A934231D1FB6E03F4B7
:103430008003002B2CD17B681B681D4A934227D147
:103440007B681B68184A934204D07B681B68174A44
:10345000934201D1184A00E0124AFB6E43F4800304
:1034600019461046FEF715FF12E07B685B6D43F0CE
:1034700020027B685A65012387F87F3008E07B686B
:103480005B6D43F020027B685A65012387F87F302B
:103490007B68002283F8502097F87F3018468437E5
:1034A000BD4690BD0063025800200240002102404A
:1034B00000600258000084CB002302400400002476
:1034C000632D3E05000052C70000B8CF80B588B01C
:1034D00000AF786039600023FB613B68BB617B68AB
:1034E0001B681846FFF7B8F838617B681B681846F8
:1034F000FFF7DAF8F8603B69002B03D1FB68002B7B
:1035000000F098807B681B68DB6803F00073002B79
:103510002AD07B685B7D012B26D17B681B7D012B2C
:1035200022D10123BB6114E0FB69454A93420DD9C6
:103530007B685B6D43F010027B685A657B689B6D0E
:1035400043F001027B689A65012374E0FB69013353
:10355000FB617B681B681B6803F04003402BE3D1D1
:103560007B681B6840221A60BB69022B14D07B6801
:103570001B681846FFF770F80346002B0CD07B68D9
:103580001B681846FFF72DF80346002B04D17B6813
:103590001B681846FFF74CF8BB69012B14D07B68F9
:1035A0001B681846FFF780F80346002B0CD07B6899
:1035B0001B681846FFF715F80346002B04D17B68FB
:1035C0001B681846FFF75CF8BB69022B05D0BB6986
:1035D000032B05D10C237B6105E008237B6102E00E
:1035E00004237B6100BFFEF705FEB8601BE0FEF719
:1035F00001FE0246BB68D31A052B14D97B681B68F1
:103600009A687B691340002B0DD07B685B6D43F09B
:1036100010027B685A657B689B6D43F001027B68F2
:103620009A65012307E07B681B689A687B691340F1
:10363000002BDCD1002318462037BD4680BD00BFDB
:10364000FFDB0C0080B584B000AF78607B681B683E
:103650001846FEF7B3FF0346002B6ED17B681B684C
:103660009A68384B1340002B0DD07B685B6D43F09C
:1036700010027B685A657B689B6D43F001027B6892
:103680009A6501235AE07B681B681846FEF76EFFB7
:10369000FEF7B0FDF8607B681B682B4A934204D0AC
:1036A0007B681B68294A934201D1294B00E0294BD2
:1036B0001846FEF7F1FEB8607B681B68234A934208
:1036C00002D07B681B6800E01F4B7A681268934247
:1036D0002CD0BB68002B30D128E07B681B681846D3
:1036E000FEF76CFF0346002B04D17B681B6818466D
:1036F000FEF73CFFFEF77EFD0246FB68D31A022B65
:1037000014D97B681B681B6803F00103012B0DD0E3
:103710007B685B6D43F010027B685A657B689B6D2C
:1037200043F001027B689A65012307E07B681B6810
:103730001B6803F00103012BCFD10023184610377B
:10374000BD4680BD3F0000800020024000210240B5
:10375000002302400063025880B584B000AF786057
:103760007B681B681846FEF73CFFF8607B681B68A7
:103770001846FEF723FF0346002B47D0FB68002BBB
:1037800044D17B681B689B6803F00D03012B0CD1AF
:103790007B681B681846FEF7FDFE7B681B680322EA
:1037A0001A60FEF727FDB86029E07B685B6D43F087
:1037B00010027B685A657B689B6D43F001027B6851
:1037C0009A65012323E0FEF715FD0246BB68D31A74
:1037D000022B14D97B681B689B6803F00103002B44
:1037E0000DD07B685B6D43F010027B685A657B6887
:1037F0009B6D43F001027B689A65012307E07B68BB
:103800001B689B6803F00103002BDCD100231846E2
:103810001037BD4680BD000080B584B000AF786031
:103820007B681B687A4A934204D07B681B68794A9C
:10383000934209D1784B9B6803F44033002B14BFAB
:1038400001230023DBB208E0744B9B6803F4403390
:10385000002B14BF01230023DBB2002B1CD005F08A
:10386000D7F9F8607B685B68B3F5403F10D0B3F5DB
:10387000403F73D8B3F5803F02D0B3F5003F6DD120
:103880007B685B681B0CFA68B2FBF3F3FB6068E0D3
:10389000FB689B08FB6064E04FF400204FF00001E0
:1038A00006F05EFCF8607B685B68B3F5301F51D0B2
:1038B000B3F5301F54D8B3F5201F47D0B3F5201F00
:1038C0004ED8B3F5101F3DD0B3F5101F48D8B3F54F
:1038D000001F33D0B3F5001F42D8B3F5E01F29D045
:1038E000B3F5E01F3CD8B3F5C01F1AD0B3F5C01F25
:1038F00036D8B3F5A01F14D0B3F5A01F30D8B3F558
:10390000801F0ED0B3F5801F2AD8B3F5402F08D002
:10391000B3F5402F24D8B3F5802F02D0B3F5002F94
:103920001ED17B685B689B0C5B00FA68B2FBF3F30B
:10393000FB6016E0FB681B09FB6012E0FB685B099B
:10394000FB600EE0FB689B09FB600AE0FB68DB099B
:10395000FB6006E0FB681B0AFB6002E000BF00E0C2
:1039600000BFFEF777FC034641F20302934215D8ED
:10397000FB682B4A934208D97B681B689A687B686E
:103980001B6842F480729A603EE07B681B689A680C
:103990007B681B6822F480729A6035E0FB685B08E4
:1039A000FB60FB681F4A934208D87B681B689A68D3
:1039B0007B681B6822F440729A6025E0FB681A4A13
:1039C00093420AD87B681B689B6823F440727B682B
:1039D0001B6842F480729A6016E0FB68134A9342B7
:1039E0000AD87B681B689B6823F440727B681B685D
:1039F00042F400729A6007E07B681B689A687B68F3
:103A00001B6842F440729A6000BF1037BD4680BD0B
:103A100000200240002102400023024000630258BF
:103A2000002D3101105E5F0020BCBE0040787D019A
:103A300080B483B000AF78607B689B6803F00103BB
:103A4000012B01D1012300E0002318460C37BD46AD
:103A50005DF8047B704780B483B000AF78607B680A
:103A60009B6803F00403042B01D1012300E0002331
:103A700018460C37BD465DF8047B704790B59FB083
:103A800000AF78603960002387F877307B6893F85F
:103A90005030012B01D10223BEE07B68012283F864
:103AA00050200023FB6500233B667B681B685C4A53
:103AB000934202D15B4BBB6001E00023BB60BB685B
:103AC000002B0BD17B685B6D43F020027B685A654D
:103AD0007B68002283F8502001239DE0BB681846D4
:103AE000FFF7B9FF38677B681B681846FFF7B3FF1D
:103AF0000346002B7FD13B6F002B7CD17B681B687A
:103B0000474A934204D07B681B68464A934201D1DE
:103B1000454B00E0454BFB663B681B68002B39D0EA
:103B2000FB6E9B6823F440423B685B681A43FB6E64
:103B30009A607B681B683A4A934204D07B681B6892
:103B4000384A93420ED13648FFF772FF0446354893
:103B5000FFF76EFF03462343002B0CBF0123002316
:103B6000DBB208E03248FFF763FF0346002B0CBFCF
:103B700001230023DBB2002B47D0FB6E9A682D4B4C
:103B800013403A6811683A6892680A431A43FB6E18
:103B90009A603AE0FB6E9B6823F44042FB6E9A60A9
:103BA0007B681B681E4A934204D07B681B681D4AD1
:103BB00093420ED11A48FFF73BFF04461948FFF71E
:103BC00037FF03462343002B0CBF01230023DBB246
:103BD00008E01748FFF72CFF0346002B0CBF01231A
:103BE0000023DBB2002B10D0FB6E9A68114B134000
:103BF000FA6E936009E07B685B6D43F020027B689E
:103C00005A65012387F8773000E000BF7B68002207
:103C100083F8502097F8773018467C37BD4690BD22
:103C200000200240002102400023024000630258AD
:103C300000600258E0F0FFFF80B485B000AF78600C
:103C40007B6803F00703FB600B4BDB68BB60BA6863
:103C50004FF6FF031340BB60FB681A02BB681A43B0
:103C6000064B1343BB60044ABB68D36000BF1437E4
:103C7000BD465DF8047B704700ED00E00000FA05EA
:103C800080B400AF044BDB681B0A03F0070318463F
:103C9000BD465DF8047B704700ED00E080B483B062
:103CA00000AF0346FB80B7F90630002B0BDBFB8827
:103CB00003F01F020749B7F906305B09012000FA3B
:103CC00002F241F8232000BF0C37BD465DF8047BAB
:103CD000704700BF00E100E080B483B000AF03464E
:103CE0003960FB80B7F90630002B0ADB3B68DAB29B
:103CF0000C49B7F906301201D2B20B4483F8002305
:103D00000AE03B68DAB20849FB8803F00F03043B82
:103D10001201D2B20B441A7600BF0C37BD465DF8D3
:103D2000047B704700E100E000ED00E080B489B062
:103D300000AFF860B9607A60FB6803F00703FB61CD
:103D4000FB69C3F10703042B28BF0423BB61FB6994
:103D50000433062B02D9FB69033B00E000237B619F
:103D60004FF0FF32BB6902FA03F3DA43BB681A4033
:103D70007B699A404FF0FF317B6901FA03F3D94325
:103D80007B680B40134318462437BD465DF8047B1F
:103D9000704780B582B000AF78607868FFF74CFF5D
:103DA00000BF0837BD4680BD80B586B000AF034672
:103DB000B9607A60FB81FFF763FF78617A68B96860
:103DC0007869FFF7B3FF0246B7F90E30114618467F
:103DD000FFF782FF00BF1837BD4680BD80B582B0B7
:103DE00000AF0346FB80B7F906301846FFF756FFD1
:103DF00000BF0837BD4680BD80B586B000AF786093
:103E0000FEF7F8F938617B68002B01D1012316E336
:103E10007B681B68664A93424AD07B681B68654A88
:103E2000934245D07B681B68634A934240D07B68CD
:103E30001B68624A93423BD07B681B68604A93428E
:103E400036D07B681B685F4A934231D07B681B6821
:103E50005D4A93422CD07B681B685C4A934227D012
:103E60007B681B685A4A934222D07B681B68594A78
:103E700093421DD07B681B68574A934218D07B68D9
:103E80001B68564A934213D07B681B68544A93427E
:103E90000ED07B681B68534A934209D07B681B682D
:103EA000514A934204D07B681B68504A934201D127
:103EB000012300E00023002B00F03B817B680222FD
:103EC00083F835207B68002283F834207B681B68E8
:103ED000374A93424AD07B681B68364A934245D0A2
:103EE0007B681B68344A934240D07B681B68334A26
:103EF00093423BD07B681B68314A934236D07B6843
:103F00001B68304A934231D07B681B682E4A93422B
:103F10002CD07B681B682D4A934227D07B681B6896
:103F20002B4A934222D07B681B682A4A93421DD0B9
:103F30007B681B68284A934218D07B681B68274A15
:103F4000934213D07B681B68254A93420ED07B684E
:103F50001B68244A934209D07B681B68224A93421B
:103F600004D07B681B68214A934208D17B681B6898
:103F70001A687B681B6822F001021A6007E07B6800
:103F80001B681A687B681B6822F001021A602FE028
:103F9000FEF730F902463B69D31A052B28D97B6816
:103FA00020225A657B68032283F83520012346E2EC
:103FB0001000024028000240400002405800024029
:103FC0007000024088000240A0000240B800024099
:103FD00010040240280402404004024058040240F9
:103FE0007004024088040240A0040240B804024069
:103FF0007B681B681B6803F00103002BC8D17B683A
:104000001B681B687B617A69834B13407B617B680B
:104010009A687B68DB681A437B681B691A437B6874
:104020005B691A437B689B691A437B68DB691A43A7
:104030007B681B6A13437A6913437B617B685B6A05
:10404000042B07D17B68DA6A7B681B6B13437A69A0
:1040500013437B61714B1A68714B1340B3F1005FDE
:1040600028D37B685B68282B03D97B685B682E2B81
:1040700017D97B685B683E2B03D97B685B68422B52
:104080000FD97B685B68462B03D97B685B68482B3C
:1040900007D97B685B684E2B05D97B685B68522B20
:1040A00001D8012300E00023002B03D07B6943F4F7
:1040B00080137B617B681B687A691A607B681B6868
:1040C0005B697B617B6923F007037B617B685B6ACB
:1040D0007A6913437B617B685B6A042B17D17B6829
:1040E0009B6A7A6913437B617B68DB6A002B0ED085
:1040F000786802F033FB0346002B08D07B6840222F
:104100005A657B68012283F83520012397E17B689B
:104110001B687A695A61786802F06EFA0346BB60E0
:104120007B68DB6D03F01F033F229A40BB689A60F7
:10413000CDE07B681B683B4A934222D07B681B68BA
:10414000394A93421DD07B681B68384A934218D085
:104150007B681B68364A934213D07B681B68354ADC
:1041600093420ED07B681B68334A934209D07B6828
:104170001B68324A934204D07B681B68304A9342E2
:1041800001D1012300E00023002B00F097807B6821
:104190001B68244A934221D07B681B68224A9342C1
:1041A0001CD07B681B68214A934217D07B681B6830
:1041B0001F4A934212D07B681B681E4A93420DD05F
:1041C0007B681B681C4A934208D07B681B681B4AAB
:1041D000934203D07B681B68194A93427B68022292
:1041E00083F835207B68002283F834207B681B68C5
:1041F0001B687B617A69134B13407B617B689B680A
:10420000402B21D07B689B68802B02D14FF48043E8
:104210001BE0002319E000BF3F8010FE0010005C8F
:104220000000FFFF085402581C5402583054025832
:1042300044540258585402586C540258805402583E
:10424000945402580F00FEFF10237A68D268D208F7
:104250001A437B681B69DB081A437B685B69DB08D0
:104260001A437B689B69DB081A437B68DB69DB08C0
:104270001A437B681B6A1B0913437A6913437B61EA
:104280007B681B687A691A607B681B681A466E4BEC
:1042900013446E4AA2FB03231B099A007B68DA656C
:1042A000786802F0A9F90346FB607B68DB6D03F0D8
:1042B0001F0301229A40FB685A6008E07B68402295
:1042C0005A657B68032283F835200123B7E07B68B9
:1042D0001B685F4A934272D07B681B685D4A9342B9
:1042E0006DD07B681B685C4A934268D07B681B6812
:1042F0005A4A934263D07B681B68594A93425ED006
:104300007B681B68574A934259D07B681B68564AA2
:10431000934254D07B681B68544A93424FD07B68C9
:104320001B68534A93424AD07B681B68514A9342A8
:1043300045D07B681B68504A934240D07B681B681D
:104340004E4A93423BD07B681B684D4A934236D01D
:104350007B681B684B4A934231D07B681B684A4A92
:1043600093422CD07B681B68484A934227D07B68D5
:104370001B68474A934222D07B681B68454A934298
:104380001DD07B681B68444A934218D07B681B6829
:10439000424A934213D07B681B68414A93420ED035
:1043A0007B681B683F4A934209D07B681B683E4A82
:1043B000934204D07B681B683C4A934201D101239D
:1043C00000E00023002B32D0786802F043FA7B68CB
:1043D0009B68802B02D17B6800225A607B685A68F8
:1043E0007B681B6ED2B21A607B685B6E7A68926ED5
:1043F0005A607B685B68002B10D07B685B68082B79
:104400000CD8786802F0C0FA7B68DB6E00221A6074
:104410007B681B6F7A68526F5A6008E07B680022E5
:10442000DA667B6800221A677B6800225A677B681D
:1044300000225A657B68012283F835200023184644
:104440001837BD4680BD00BFF8ABFDA7CDCCCCCCA6
:104450001000024028000240400002405800024084
:104460007000024088000240A0000240B8000240F4
:104470001004024028040240400402405804024054
:104480007004024088040240A0040240B8040240C4
:10449000085402581C5402583054025844540258CC
:1044A000585402586C54025880540258945402587C
:1044B00080B586B000AFF860B9607A603B600023D9
:1044C000FB75FB68002B01D1012326E2FB6893F802
:1044D0003430012B01D102231FE2FB68012283F853
:1044E0003420FB6893F83530DBB2012B40F00A82B0
:1044F000FB68022283F83520FB6800225A65FB68BE
:104500001B68684A93424AD0FB681B68664A93421C
:1045100045D0FB681B68654A934240D0FB681B6826
:10452000634A93423BD0FB681B68624A934236D091
:10453000FB681B68604A934231D0FB681B685F4A86
:1045400093422CD0FB681B685D4A934227D0FB68DE
:104550001B685C4A934222D0FB681B685A4A93420C
:104560001DD0FB681B68594A934218D0FB681B6832
:10457000574A934213D0FB681B68564A93420ED0A9
:10458000FB681B68544A934209D0FB681B68534A76
:10459000934204D0FB681B68514A934208D1FB68E0
:1045A0001B681A68FB681B6822F001021A6007E0AA
:1045B000FB681B681A68FB681B6822F001021A601E
:1045C0003B687A68B968F86801F06AFEFB681B68A6
:1045D000344A93424AD0FB681B68334A934245D021
:1045E000FB681B68314A934240D0FB681B68304A25
:1045F00093423BD0FB681B682E4A934236D0FB683F
:104600001B682D4A934231D0FB681B682B4A9342AA
:104610002CD0FB681B682A4A934227D0FB681B6892
:10462000284A934222D0FB681B68274A93421DD038
:10463000FB681B68254A934218D0FB681B68244A14
:10464000934213D0FB681B68224A93420ED0FB684A
:104650001B68214A934209D0FB681B681F4A93429A
:1046600004D0FB681B681E4A934201D1012300E07D
:104670000023002B36D0FB681B681B6823F01E024A
:10468000FB681B6842F016021A60FB681B6C002B6B
:104690003ED0FB681B681A68FB681B6842F0080282
:1046A0001A6035E01000024028000240400002403D
:1046B000580002407000024088000240A000024002
:1046C000B8000240100402402804024040040240A6
:1046D000580402407004024088040240A0040240D2
:1046E000B8040240FB681B681B6823F00E02FB68DD
:1046F0001B6842F00A021A60FB681B6C002B07D093
:10470000FB681B681A68FB681B6842F004021A60A9
:10471000FB681B68834A934272D0FB681B68824A1D
:1047200093426DD0FB681B68804A934268D0FB6857
:104730001B687F4A934263D0FB681B687D4A9342A3
:104740005ED0FB681B687C4A934259D0FB681B68AB
:104750007A4A934254D0FB681B68794A93424FD0FF
:10476000FB681B68774A93424AD0FB681B68764A0D
:10477000934245D0FB681B68744A934240D0FB6863
:104780001B68734A93423BD0FB681B68714A934293
:1047900036D0FB681B68704A934231D0FB681B68B7
:1047A0006E4A93422CD0FB681B686D4A934227D017
:1047B000FB681B686B4A934222D0FB681B686A4AFD
:1047C00093421DD0FB681B68684A934218D0FB686F
:1047D0001B68674A934213D0FB681B68654A934283
:1047E0000ED0FB681B68644A934209D0FB681B68C3
:1047F000624A934204D0FB681B68614A934201D12C
:10480000012300E00023002B1AD0FB681B6E1B68FD
:1048100003F48033002B07D0FB681B6E1A68FB681B
:104820001B6E42F480721A60FB68DB6E002B07D0AF
:10483000FB68DB6E1A68FB68DB6E42F480721A60FC
:10484000FB681B68374A93424AD0FB681B68364AAC
:10485000934245D0FB681B68344A934240D0FB68C2
:104860001B68334A93423BD0FB681B68314A934232
:1048700036D0FB681B68304A934231D0FB681B6816
:104880002E4A93422CD0FB681B682D4A934227D0B6
:10489000FB681B682B4A934222D0FB681B682A4A9C
:1048A00093421DD0FB681B68284A934218D0FB68CE
:1048B0001B68274A934213D0FB681B68254A934222
:1048C0000ED0FB681B68244A934209D0FB681B6822
:1048D000224A934204D0FB681B68214A934208D1C4
:1048E000FB681B681A68FB681B6842F001021A60CB
:1048F00012E0FB681B681A68FB681B6842F0010243
:104900001A6009E0FB684FF400625A65FB680022F8
:1049100083F834200123FB75FB7D18461837BD460C
:1049200080BD00BF1000024028000240400002404D
:10493000580002407000024088000240A00002407F
:10494000B800024010040240280402404004024023
:10495000580402407004024088040240A00402404F
:10496000B8040240085402581C54025830540258EB
:1049700044540258585402586C54025880540258F7
:104980009454025880B586B000AF7860FDF732FCD1
:1049900038617B68002B01D10123DCE27B6893F84E
:1049A0003530DBB2022B08D07B6880225A657B68E9
:1049B000002283F834200123CDE27B681B68764A0D
:1049C00093424AD07B681B68744A934245D07B6807
:1049D0001B68734A934240D07B681B68714A9342BC
:1049E0003BD07B681B68704A934236D07B681B685B
:1049F0006E4A934231D07B681B686D4A93422CD03B
:104A00007B681B686B4A934227D07B681B686A4AA5
:104A1000934222D07B681B68684A93421DD07B6812
:104A20001B68674A934218D07B681B68654A9342AB
:104A300013D07B681B68644A93420ED07B681B6866
:104A4000624A934209D07B681B68614A934204D052
:104A50007B681B685F4A934201D1012300E0002379
:104A6000002B13D07B681B681A687B681B6822F0D8
:104A70001E021A607B681B685A697B681B6822F0FB
:104A800080025A617B681B687B610AE07B681B6857
:104A90001A687B681B6822F00E021A607B681B682C
:104AA0007B617B681B683C4A934272D07B681B68C1
:104AB0003A4A93426DD07B681B68394A934268D06A
:104AC0007B681B68374A934263D07B681B68364A11
:104AD00093425ED07B681B68344A934259D07B680E
:104AE0001B68334A934254D07B681B68314A934217
:104AF0004FD07B681B68304A93424AD07B681B6862
:104B00002E4A934245D07B681B682D4A934240D081
:104B10007B681B682B4A93423BD07B681B682A4A00
:104B2000934236D07B681B68284A934231D07B6819
:104B30001B68274A93422CD07B681B68254A934206
:104B400027D07B681B68244A934222D07B681B686D
:104B5000224A93421DD07B681B68214A934218D099
:104B60007B681B681F4A934213D07B681B681E4AF0
:104B700093420ED07B681B681C4A934209D07B6825
:104B80001B681B4A934204D07B681B68194A9342F6
:104B900032D1012331E000BF100002402800024062
:104BA000400002405800024070000240880002406D
:104BB000A0000240B8000240100402402804024055
:104BC000400402405804024070040240880402403D
:104BD000A0040240B8040240085402581C54025871
:104BE0003054025844540258585402586C540258D5
:104BF00080540258945402580023002B07D07B683D
:104C00001B6E1A687B681B6E22F480721A607B68C8
:104C10001B686D4A93424AD07B681B686B4A93427B
:104C200045D07B681B686A4A934240D07B681B680A
:104C3000684A93423BD07B681B68674A934236D0F0
:104C40007B681B68654A934231D07B681B68644A65
:104C500093422CD07B681B68624A934227D07B68C2
:104C60001B68614A934222D07B681B685F4A93426B
:104C70001DD07B681B685E4A934218D07B681B6816
:104C80005C4A934213D07B681B685B4A93420ED008
:104C90007B681B68594A934209D07B681B68584A55
:104CA000934204D07B681B68564A934208D17B68C4
:104CB0001B681A687B681B6822F001021A6007E013
:104CC0007B681B681A687B681B6822F001021A6007
:104CD00013E0FDF78FFA02463B69D31A052B0CD976
:104CE0007B6820225A657B68032283F835207B6825
:104CF000002283F8342001232DE17B691B6803F037
:104D00000103002BE5D17B681B682F4A93424AD0F0
:104D10007B681B682D4A934245D07B681B682C4AF0
:104D2000934240D07B681B682A4A93423BD07B6801
:104D30001B68294A934236D07B681B68274A9342F6
:104D400031D07B681B68264A93422CD07B681B6855
:104D5000244A934227D07B681B68234A934222D07F
:104D60007B681B68214A93421DD07B681B68204AE0
:104D7000934218D07B681B681E4A934213D07B680D
:104D80001B681D4A93420ED07B681B681B4A9342E6
:104D900009D07B681B681A4A934204D07B681B6861
:104DA000184A934201D1012300E00023002B2BD0AD
:104DB0007B689B6DBB607B68DB6D03F01F033F224C
:104DC0009A40BB689A602AE0100002402800024026
:104DD000400002405800024070000240880002403B
:104DE000A0000240B8000240100402402804024023
:104DF000400402405804024070040240880402400B
:104E0000A0040240B80402407B689B6DFB607B6895
:104E1000DB6D03F01F0301229A40FB685A607B6838
:104E20001B684F4A934272D07B681B684D4A93427D
:104E30006DD07B681B684C4A934268D07B681B68C6
:104E40004A4A934263D07B681B68494A93425ED0CA
:104E50007B681B68474A934259D07B681B68464A67
:104E6000934254D07B681B68444A93424FD07B687E
:104E70001B68434A93424AD07B681B68414A93426D
:104E800045D07B681B68404A934240D07B681B68D2
:104E90003E4A93423BD07B681B683D4A934236D0E2
:104EA0007B681B683B4A934231D07B681B683A4A57
:104EB00093422CD07B681B68384A934227D07B688A
:104EC0001B68374A934222D07B681B68354A93425D
:104ED0001DD07B681B68344A934218D07B681B68DE
:104EE000324A934213D07B681B68314A93420ED0FA
:104EF0007B681B682F4A934209D07B681B682E4A47
:104F0000934204D07B681B682C4A934201D1012351
:104F100000E00023002B15D07B685B6E7A68926EF0
:104F20005A607B68DB6E002B0CD07B68DB6E1A68E6
:104F30007B68DB6E22F480721A607B681B6F7A6874
:104F4000526F5A607B68012283F835207B6800220B
:104F500083F83420002318461837BD4680BD00BFB3
:104F60001000024028000240400002405800024069
:104F70007000024088000240A0000240B8000240D9
:104F80001004024028040240400402405804024039
:104F90007004024088040240A0040240B8040240A9
:104FA000085402581C5402583054025844540258B1
:104FB000585402586C540258805402589454025861
:104FC00080B584B000AF78607B68002B01D10123ED
:104FD00037E27B6893F83530DBB2022B04D07B6874
:104FE00080225A6501232CE27B681B685C4A93424D
:104FF0004AD07B681B685B4A934245D07B681B683C
:10500000594A934240D07B681B68584A93423BD030
:105010007B681B68564A934236D07B681B68554AAA
:10502000934231D07B681B68534A93422CD07B68F3
:105030001B68524A934227D07B681B68504A9342B0
:1050400022D07B681B684F4A93421DD07B681B6847
:105050004D4A934218D07B681B684C4A934213D048
:105060007B681B684A4A93420ED07B681B68494A9A
:10507000934209D07B681B68474A934204D07B68FF
:105080001B68464A934201D1012300E00023002B14
:1050900000F086807B68042283F835207B681B68DB
:1050A0002F4A93424AD07B681B682E4A934245D0D0
:1050B0007B681B682C4A934240D07B681B682B4A54
:1050C00093423BD07B681B68294A934236D07B6869
:1050D0001B68284A934231D07B681B68264A93425A
:1050E0002CD07B681B68254A934227D07B681B68BD
:1050F000234A934222D07B681B68224A93421DD0E8
:105100007B681B68204A934218D07B681B681F4A43
:10511000934213D07B681B681D4A93420ED07B6874
:105120001B681C4A934209D07B681B681A4A934249
:1051300004D07B681B68194A934208D17B681B68BE
:105140001A687B681B6822F001021A6078E17B68AC
:105150001B681A687B681B6822F001021A606FE105
:105160001000024028000240400002405800024067
:105170007000024088000240A0000240B8000240D7
:105180001004024028040240400402405804024037
:105190007004024088040240A0040240B8040240A7
:1051A0007B681B681A687B681B6822F00E021A6015
:1051B0007B681B686C4A93424AD07B681B686B4AC9
:1051C000934245D07B681B68694A934240D07B6814
:1051D0001B68684A93423BD07B681B68664A9342CF
:1051E00036D07B681B68654A934231D07B681B6868
:1051F000634A93422CD07B681B68624A934227D053
:105200007B681B68604A934222D07B681B685F4AB8
:1052100093421DD07B681B685D4A934218D07B681F
:105220001B685C4A934213D07B681B685A4A9342BE
:105230000ED07B681B68594A934209D07B681B6873
:10524000574A934204D07B681B68564A934208D160
:105250007B681B681A687B681B6822F001021A6071
:1052600007E07B681B681A687B681B6822F00102F4
:105270001A607B681B683C4A934272D07B681B684B
:105280003A4A93426DD07B681B68394A934268D092
:105290007B681B68374A934263D07B681B68364A39
:1052A00093425ED07B681B68344A934259D07B6836
:1052B0001B68334A934254D07B681B68314A93423F
:1052C0004FD07B681B68304A93424AD07B681B688A
:1052D0002E4A934245D07B681B682D4A934240D0AA
:1052E0007B681B682B4A93423BD07B681B682A4A29
:1052F000934236D07B681B68284A934231D07B6842
:105300001B68274A93422CD07B681B68254A93422E
:1053100027D07B681B68244A934222D07B681B6895
:10532000224A93421DD07B681B68214A934218D0C1
:105330007B681B681F4A934213D07B681B681E4A18
:1053400093420ED07B681B681C4A934209D07B684D
:105350001B681B4A934204D07B681B68194A93421E
:1053600032D1012331E000BF10000240280002408A
:105370004000024058000240700002408800024095
:10538000A0000240B800024010040240280402407D
:105390004004024058040240700402408804024065
:1053A000A0040240B8040240085402581C54025899
:1053B0003054025844540258585402586C540258FD
:1053C00080540258945402580023002B28D07B6844
:1053D0001B6E1A687B681B6E22F480721A607B68F1
:1053E0009B6DFB607B68DB6D03F01F0301229A401D
:1053F000FB685A607B685B6E7A68926E5A607B6865
:10540000DB6E002B0CD07B68DB6E1A687B68DB6E72
:1054100022F480721A607B681B6F7A68526F5A6040
:105420007B68012283F835207B68002283F83420D2
:105430007B681B6D002B03D07B681B6D78689847D9
:10544000002318461037BD4680BD00BF80B58AB026
:1054500000AF78600023FB60674B1B68674AA2FBC4
:1054600003239B0A7B627B689B6D3B627B689B6D21
:10547000FB613B6A1B68BB61FB691B687B617B68E6
:105480001B685F4A93424AD07B681B685D4A93421F
:1054900045D07B681B685C4A934240D07B681B68A0
:1054A0005A4A93423BD07B681B68594A934236D094
:1054B0007B681B68574A934231D07B681B68564A09
:1054C00093422CD07B681B68544A934227D07B6858
:1054D0001B68534A934222D07B681B68514A93420F
:1054E0001DD07B681B68504A934218D07B681B68AC
:1054F0004E4A934213D07B681B684D4A93420ED0AC
:105500007B681B684B4A934209D07B681B684A4AF8
:10551000934204D07B681B68484A934201D101231F
:1055200000E00023002B00F02B847B68DB6D03F090
:105530001F0308229A40BB691340002B00F0A28091
:105540007B681B682E4A93424AD07B681B682D4AB1
:10555000934245D07B681B682B4A934240D07B68BE
:105560001B682A4A93423BD07B681B68284A9342B7
:1055700036D07B681B68274A934231D07B681B6812
:10558000254A93422CD07B681B68244A934227D03B
:105590007B681B68224A934222D07B681B68214AA1
:1055A00093421DD07B681B681F4A934218D07B68CA
:1055B0001B681E4A934213D07B681B681C4A9342A7
:1055C0000ED07B681B681B4A934209D07B681B681E
:1055D000194A934204D07B681B68184A93422FD122
:1055E0007B681B681B6803F00403002B14BF0123B6
:1055F0000023DBB22EE000BF04000024B5814E1B67
:1056000010000240280002404000024058000240C2
:105610007000024088000240A0000240B800024032
:105620001004024028040240400402405804024092
:105630007004024088040240A0040240B804024002
:105640007B681B681B6803F00803002B14BF012351
:105650000023DBB2002B15D07B681B681A687B68BF
:105660001B6822F004021A607B68DB6D03F01F03E5
:1056700008229A403B6A9A607B685B6D43F00102A6
:105680007B685A657B68DB6D03F01F03BA6922FAF9
:1056900003F303F00103002B6ED07B681B68694A9B
:1056A00093424AD07B681B68674A934245D07B6827
:1056B0001B68664A934240D07B681B68644A9342E9
:1056C0003BD07B681B68634A934236D07B681B687B
:1056D000614A934231D07B681B68604A93422CD068
:1056E0007B681B685E4A934227D07B681B685D4AD3
:1056F000934222D07B681B685B4A93421DD07B6833
:105700001B685A4A934218D07B681B68584A9342D8
:1057100013D07B681B68574A93420ED07B681B6886
:10572000554A934209D07B681B68544A934204D07F
:105730007B681B68524A93420AD17B681B685B698D
:1057400003F08003002B14BF01230023DBB203E02E
:105750007B681B681B680023002B0DD07B68DB6D0A
:1057600003F01F0301229A403B6A9A607B685B6DDD
:1057700043F002027B685A657B68DB6D03F01F0310
:1057800004229A40BB691340002B00F08F807B6895
:105790001B682C4A93424AD07B681B682A4A934272
:1057A00045D07B681B68294A934240D07B681B68C0
:1057B000274A93423BD07B681B68264A934236D0E7
:1057C0007B681B68244A934231D07B681B68234A5C
:1057D00093422CD07B681B68214A934227D07B6878
:1057E0001B68204A934222D07B681B681E4A934262
:1057F0001DD07B681B681D4A934218D07B681B68CC
:105800001B4A934213D07B681B681A4A93420ED0FE
:105810007B681B68184A934209D07B681B68174A4B
:10582000934204D07B681B68154A93422AD17B6857
:105830001B681B6803F00203002B14BF0123002325
:10584000DBB223E01000024028000240400002408A
:10585000580002407000024088000240A000024050
:10586000B8000240100402402804024040040240F4
:10587000580402407004024088040240A004024020
:10588000B80402407B681B681B680023002B0DD006
:105890007B68DB6D03F01F0304229A403B6A9A6029
:1058A0007B685B6D43F004027B685A657B68DB6D47
:1058B00003F01F0310229A40BB691340002B00F035
:1058C000A6807B681B68854A93424AD07B681B6828
:1058D000834A934245D07B681B68824A934240D0FA
:1058E0007B681B68804A93423BD07B681B687F4A79
:1058F000934236D07B681B687D4A934231D07B68E7
:105900001B687C4A93422CD07B681B687A4A93427E
:1059100027D07B681B68794A934222D07B681B683A
:10592000774A93421DD07B681B68764A934218D011
:105930007B681B68744A934213D07B681B68734A68
:1059400093420ED07B681B68714A934209D07B68F2
:105950001B68704A934204D07B681B686E4A93426E
:105960000AD17B681B681B6803F00803002B14BF77
:1059700001230023DBB209E07B681B681B6803F08E
:105980000403002B14BF01230023DBB2002B3ED005
:105990007B68DB6D03F01F0310229A403B6A9A601C
:1059A0007B681B681B6803F48023002B18D07B687E
:1059B0001B681B6803F40023002B08D17B681B6C59
:1059C000002B24D07B681B6C786898471FE07B68AD
:1059D0009B6C002B1BD07B689B6C7868984716E00B
:1059E0007B681B681B6803F48073002B07D17B68FE
:1059F0001B681A687B681B6822F008021A607B68C3
:105A00001B6C002B03D07B681B6C786898477B6805
:105A1000DB6D03F01F0320229A40BB691340002B6B
:105A200000F010817B681B682C4A93424AD07B6847
:105A30001B682B4A934245D07B681B68294A9342D6
:105A400040D07B681B68284A93423BD07B681B6828
:105A5000264A934236D07B681B68254A934231D050
:105A60007B681B68234A93422CD07B681B68224AC0
:105A7000934227D07B681B68204A934222D07B68E0
:105A80001B681F4A93421DD07B681B681D4A9342C6
:105A900018D07B681B681C4A934213D07B681B6834
:105AA0001A4A93420ED07B681B68194A934209D068
:105AB0007B681B68174A934204D07B681B68164AB0
:105AC00093422BD17B681B681B6803F01003002BEB
:105AD00014BF01230023DBB22AE000BF1000024004
