:020000040800F2
:10000000000008240D300008ED290008F32900083D
:10001000F9290008FF290008052A0008000000004F
:100020000000000000000000000000007152020803
:100030000B2A000800000000C1540208E11D02085C
:100040005D3000085D3000085D3000085D3000085C
:100050005D3000085D3000085D3000085D3000084C
:100060005D3000085D3000085D300008192A000886
:100070005D3000085D3000085D3000085D3000082C
:100080005D3000085D3000085D3000085D3000081C
:100090005D3000085D3000085D3000082D2A000842
:1000A0005D3000085D3000085D3000085D300008FC
:1000B000452A00085D3000085D3000085D3000080A
:1000C0005D3000085D3000085D3000085D300008DC
:1000D000592A00085D3000085D3000085D300008D6
:1000E0006D2A00085D300008000000005D30000847
:1000F0005D3000085D3000085D3000085D300008AC
:100100005D3000085D3000085D3000085D3000089B
:100110005D3000085D3000085D3000085D3000088B
:100120005D3000085D3000085D3000085D3000087B
:100130005D3000085D3000085D3000085D3000086B
:1001400000000000000000000000000000000000AF
:100150005D3000085D3000085D3000085D3000084B
:100160005D3000085D3000085D3000085D3000083B
:100170005D3000085D3000085D30000800000000C0
:100180005D3000085D3000088D2A0008A12A0008B3
:100190005D3000085D3000085D3000085D3000080B
:1001A0005D3000085D3000085D3000085D300008FB
:1001B0005D3000085D3000085D3000085D300008EB
:1001C0005D3000085D3000085D3000085D300008DB
:1001D0005D300008B52A00085D3000085D30000879
:1001E0005D3000085D3000085D3000085D300008BB
:1001F0005D3000085D3000085D3000085D300008AB
:100200005D3000085D3000085D3000085D3000089A
:100210005D3000085D300008C92A00085D30000824
:100220005D3000085D3000085D300008000000000F
:10023000DD2A00085D300008000000005D30000885
:100240005D3000085D3000085D3000085D3000085A
:100250005D3000085D3000085D3000085D3000084A
:100260005D3000085D3000085D3000085D3000083A
:100270005D3000085D3000085D30000800000000BF
:100280005D3000085D3000085D30000800000000AF
:08029000000000005D300008D1
:1002A00010B5054C237833B9044B13B10448AFF3B0
:1002B00000800123237010BDC8010024000000004D
:1002C0002CCC020808B5034B1BB103490348AFF31C
:1002D000008008BD00000000CC0100242CCC0208E6
:1002E00010F8012B11F8013B012A28BF9A42F7D0E0
:1002F000D01A7047034613F8012B002AFBD1181AB5
:1003000001387047000000000000000000000000FD
:1003100001F0FF01102A2BDB10F0070F08D010F8B6
:10032000013B013A8B422DD010F0070F42B3F6D1BA
:10033000F0B441EA012141EA014122F007047FF0D3
:1003400000070023F0E80256083C85EA010586EA2A
:10035000010685FA47F5A3FA87F586FA47F6A5FA66
:1003600087F68EB9EED1F0BC01F0FF0102F0070272
:1003700032B110F8013B013A83EA010313B1F8D11D
:100380000020704701387047002D06BF35460338FE
:10039000073815F0010F07D1013015F4807F02BF37
:1003A000013015F4C03F0130F0BC0138704700BF88
:1003B00053B94AB9002908BF00281CBF4FF0FF31CC
:1003C0004FF0FF3000F070B9ADF1080C6DE904CECC
:1003D00000F006F8DDF804E0DDE9022304B0704720
:1003E0002DE9F047089E0D4604460F46002B4AD1E2
:1003F0008A42944665D9B2FA82F343B102FA03FC09
:10040000C3F120029F4020FA02F217439C404FEABA
:100410001C4E1FFA8CF5B7FBFEF1220C0EFB117778
:1004200042EA074201FB05F090420AD91CEB0202A6
:1004300001F1FF3780F01C81904240F219810239AE
:100440006244121AA4B2B2FBFEF00EFB102244EA80
:10045000024400FB05F5A5420AD91CEB040400F197
:10046000FF3280F00781A54240F2048164440238E3
:1004700040EA0140641B00211EB1DC400023C6E9B4
:100480000043BDE8F0878B4208D9002E00F0ED80D4
:100490000021C6E900050846BDE8F087B3FA83F1FC
:1004A000002949D1AB4202D3824200F2F880841A7B
:1004B00065EB030201201746002EE2D0C6E9004793
:1004C000DFE702B9FFDEB2FA82F3002B40F0908042
:1004D0008A1A4FEA1C471FFA8CFE0121B2FBF7F57E
:1004E00007FB1520220C42EA00420EFB05F0904269
:1004F00008D91CEB020205F1FF3802D2904200F24B
:10050000CB804546121AA4B2B2FBF7F007FB1022CB
:1005100044EA02440EFB00FEA64508D91CEB040485
:1005200000F1FF3202D2A64500F2BB801046A4EBD8
:100530000E0440EA05409FE7C1F120078B4022FAF4
:1005400007FC4CEA030C05FA01F420FA07F3FD401E
:100550004FEA1C492343B5FBF9F81FFA8CFE09FB4F
:1005600018551C0C44EA054408FB0EF5A54202FA96
:1005700001F200FA01F00BD91CEB040408F1FF3A78
:1005800080F08880A54240F28580A8F1020864448A
:10059000641B9DB2B4FBF9F309FB134445EA044420
:1005A00003FB0EFEA64508D91CEB040403F1FF353E
:1005B0006CD2A6456AD9023B644443EA0843A3FBD4
:1005C0000295A4EB0E04AC42C846AE4656D353D0B7
:1005D00056B1B0EB080264EB0E0404FA07F7CA4008
:1005E000CC401743C6E9007418460021BDE8F087E7
:1005F000C3F1200102FA03FC20FA01F225FA01F10D
:100600009D402A434FEA1C471FFA8CFEB1FBF7F0CE
:1006100007FB1015110C41EA054100FB0EF58D4258
:1006200004FA03F408D91CEB010100F1FF382FD2C2
:100630008D422DD902386144491B92B2B1FBF7F5C6
:1006400007FB151142EA014205FB0EF1914208D960
:100650001CEB020205F1FF3816D2914214D9023D7B
:100660006244521A45EA004138E73146304608E70D
:100670003946E6E61046FBE64845A9D2B9EB020842
:1006800065EB0C0E013BA3E74546EAE72B4694E7F2
:100690004046D1E7D0467BE7023D624432E7084658
:1006A0000AE76444023842E7704700BF80B584B06F
:1006B00000AF786039600023FB730FE0FB7B0B4ACF
:1006C00052F823303A689A4205D8FB7B194678687D
:1006D00000F0F2F806E0FB7B0133FB731E22FB7B8C
:1006E0009342EBD31037BD4680BD00BF3CD9020812
:1006F00080B588B002AFF860B9607A603B60FB6893
:100700001B681B7A1A46234B53F822301A46396A63
:10071000386800F079F87861FB681B681A687B69B3
:100720009B00D0183B6A00933B687A68B96800F078
:1007300001FA0346002B04D0FB681B685A6801329B
:100740005A60FB681B685B6807EE903AF8EE676AD0
:10075000FB681B681B7A1A460E4B53F8223007EED3
:10076000903AB8EE677AC6EE877A9FED0B7AF4EE90
:10077000C77AF1EE10FA00DC08E0FB681B681B7A10
:100780001E22934202D2F86800F0D2F800BF183758
:10079000BD4680BD3CD902083333333F80B586B0B7
:1007A00000AFF860B9607A60FB681B681B7A1A4674
:1007B000144B53F822301A467968B86800F024F8D0
:1007C0003861FB681B681A683B699B0013441B680F
:1007D0007B610FE07B6918687B6959687B68BA6840
:1007E00000F040F80346002B01D07B6906E07B69EE
:1007F0001B697B617B69002BECD1002318461837FD
:10080000BD4680BD3CD9020880B487B000AFF86017
:10081000B9607A6000237B6100233B6114E0104BD8
:100820001B687A6902FB03F33A69F9680A44127893
:1008300013447A68B3FBF2F2796801FB02F29B1A67
:100840007B613B6901333B613B69BA689A42E6D8F8
:100850007B6918461C37BD465DF8047B704700BFB6
:10086000B4D9020880B487B000AFF860B9607A608C
:100870003B60BA683B689A4201D0002316E000232F
:100880007B610EE0FA687B6913441A7879687B69AA
:100890000B441B789A4201D0002307E07B690133A7
:1008A0007B617A69BB689A42ECD3012318461C37F6
:1008B000BD465DF8047B704790B585B000AF7860A9
:1008C0000B46FB70FB78194A52F82330BB600C20B2
:1008D0002AF06EFB03461A467B681A60BB689A00D2
:1008E0007B681C6810462AF063FB034623600023E4
:1008F000FB600AE07B681B681A68FB689B00134476
:1009000000221A60FB680133FB60FA68BB689A42F8
:10091000F0D37B681B6800225A607B681B68FA78FA
:100920001A7200BF1437BD4690BD00BF3CD9020803
:1009300080B58AB000AF78607B681B681B7A013392
:10094000FB77FA7F07F10C0311461846FFF7B4FF57
:100950007B681B681B7A1A46264B53F82230BB6112
:1009600000237B6228E07B681B681A687B6A9B0017
:1009700013441B683B6219E03B6A7B613B6A1B695D
:100980003B627B6918687B695968FB7F194A52F89A
:1009900023301A46FFF738FF3861FB681A683B6955
:1009A0009B0013447969184600F026F83B6A002B37
:1009B000E2D17B6A01337B627A6ABB699A42D2D305
:1009C0007B681A68FB6852685A60FB68FA7F1A7283
:1009D0007B681B681B6818462AF0F2FA7B681B6864
:1009E00018462AF0EDFAFA687B681A6000BF2837CB
:1009F000BD4680BD3CD9020880B485B000AF7860A8
:100A000039607B681B68FB603B6800221A61FB68E9
:100A1000002B06D17B683A681A6009E0FB681B6905
:100A2000FB60FB681B69002BF8D1FB683A681A6110
:100A30001437BD465DF8047B704780B586B000AFC3
:100A4000F860B9607A603B6014202AF0B1FA03467E
:100A50007B617B69002B02D102202AF097FAB868EB
:100A60002AF0A6FA03461A467B699A607B699B685E
:100A7000002B02D102202AF089FA7B699B68BA68B0
:100A8000F96818462AF0A8FD7B69BA68DA60386808
:100A90002AF08EFA03461A467B691A607B691B6846
:100AA000002B02D102202AF071FA7B691B683A6898
:100AB000796818462AF090FD7B693A685A607B692C
:100AC00000221A617B6918461837BD4680BD80B583
:100AD00084B000AFF860B9607A60FB68DB687A6860
:100AE0009A4207D1FB689B687A68B96818462AF071
:100AF00073FD1CE0FB689B6818462AF061FA786871
:100B00002AF056FA03461A46FB689A60FB689B680F
:100B1000002B02D102202AF039FAFB689B687A6820
:100B2000B96818462AF058FDFB687A68DA60103711
:100B3000BD4680BD80B586B000AFF860B9607A6010
:100B40003B60FB681B687B617B69002B0AD13B6AB9
:100B50003A687968B868FFF770FF0246FB681A6068
:100B6000012324E07B6918687B6959683B6A3A680D
:100B7000FFF778FE0346002B06D07A68B9687869DB
:100B8000FFF7A5FF002312E07B691B69002B03D050
:100B90007B691B697B61E5E700BF3B6A3A6879685E
:100BA000B868FFF74AFF02467B691A6101231846BD
:100BB0001837BD4680BD80B582B000AF78600C208C
:100BC0002AF0F6F903461A467B681A607B681B68B0
:100BD000002B02D101202AF0D9F97B681B68002282
:100BE0001A607B681B6800225A607B681B680022C1
:100BF0001A8100BF0837BD4680BD80B582B000AF06
:100C00007860786800F00CF87B681B6818462AF05A
:100C1000D7F97B6800221A6000BF0837BD4680BD47
:100C200080B584B000AF78600EE07B681B681B68FD
:100C30009B68FB607B681B681B68184600F0C6F861
:100C40007B681B68FA681A607B681B681B68002B4E
:100C5000EBD17B681B6800221A607B681B6800224E
:100C60005A607B681B6800221A8100BF1037BD469E
:100C700080BD80B483B000AF78607B681B681B893F
:100C800018460C37BD465DF8047B704780B586B0CA
:100C900000AFF860B9607A600C202AF089F9034649
:100CA0007B617B69002B02D101202AF06FF9786803
:100CB0002AF07EF903461A467B691A607B691B6835
:100CC000002B02D101202AF061F97B691B687A6848
:100CD000B96818462AF080FC7B697A685A607B699B
:100CE00000229A60FB681B681B68002B08D1FB6818
:100CF0001B687A691A60FB681B687A695A600BE0A6
:100D0000FB681B685B687A699A60FB681B685A68B5
:100D1000FB681B6892685A60FB681B681A8901327D
:100D200092B21A8100BF1837BD4680BD80B582B02F
:100D300000AF78600B467B807868FFF79AFF034628
:100D4000002B01D1002305E07B881946786800F06C
:100D50004FF8034618460837BD4680BD80B582B0BF
:100D600000AF78600B467B80154B1B68002B13D0BF
:100D7000144B1B881A467B88013B9A420CD1124BBC
:100D80001B687A689A4207D10D4B1B689B680C4A16
:100D900013600C4A7B8813807B881946786800F0C2
:100DA00027F80346064A1360054B1B68002B02D048
:100DB000034B1B6800E0002318460837BD4680BD82
:100DC000E4010024E8010024EC01002480B582B095
:100DD00000AF78607B681B6818462AF0F1F87868E5
:100DE0002AF0EEF800237B6000BF0837BD4680BDC7
:100DF00080B485B000AF78600B467B807B681B6851
:100E00001B68FB6000237B81FB68002B07D100235C
:100E10000EE0FB689B68FB607B8901337B81FB688C
:100E20009B68002B03D07A897B889A42F1D3FB68B8
:100E300018461437BD465DF8047B704780B584B012
:100E400000AF78600B46FB707B68002B05D0FB7809
:100E5000102B02D8FB78032B01D8002324E0FB7869
:100E6000012202FA03F3FB81FB8918462AF0A0F85D
:100E70000346BB60BB68002B01D1002314E07B68F4
:100E8000BA681A60FB89013B9AB27B689A807B68DA
:100E90000022DA807B6800221A817B68FA899A81B5
:100EA0007B6800225A81012318461037BD4680BD59
:100EB00080B582B000AF78607B68002B01D1002341
:100EC0001DE07B681B68002B01D1002317E07B68C5
:100ED0001B6818462AF074F87B6800221A607B6849
:100EE00000229A807B680022DA807B6800221A81C7
:100EF0007B6800229A817B6800225A810123184670
:100F00000837BD4680BD80B483B000AF78607B6891
:100F10000022DA807B6800221A817B689B8801337B
:100F20009AB27B689A817B6800225A8100BF0C3795
:100F3000BD465DF8047B704780B483B000AF786035
:100F40007B685B8918460C37BD465DF8047B7047AB
:100F500080B487B000AFF860B9601346FB80FB68CF
:100F60009B89FA889A4201D9002336E00023FB824C
:100F700012E0FB8ABA681A44FB681B68F9680989A1
:100F80000846F98A0144F868808801400B441278C9
:100F90001A70FB8A0133FB82FA8AFB889A42E8D3F3
:100FA000FB681A89FB8813449BB21AB2FB689B88C2
:100FB0001BB213401BB29AB2FB681A81FB689A8974
:100FC000FB88D31A9AB2FB689A81FB685A89FB881E
:100FD00013449AB2FB685A81012318461C37BD4658
:100FE0005DF8047B704780B487B000AFF860B960EB
:100FF0001346FB80FB685B893B820023FB8240E059
:101000003A8AFB8AD21AFB889A423FDBFB681B684C
:10101000FA68D2881146FA8A0A44F96889880A402F
:1010200013441A78BB681B789A4227D101237B7539
:1010300001237B8219E0FB681B68FA68D28811469D
:10104000FA8A11447A8A0A44F96889880A40134462
:101050001A787B8AB9680B441B789A4202D0002325
:101060007B7506E07B8A01337B827A8AFB889A4211
:10107000E1D37B7D002B01D0FB8A0AE0FB8A0133A0
:10108000FB82FA8A3B8A9A42BAD300E000BF4FF053
:10109000FF3318461C37BD465DF8047B704780B4AB
:1010A00087B000AFF860B9601346FB80FB685B89CE
:1010B000FA889A4202D9FB685B89FB800023FB8295
:1010C00012E0FB681B68FA68D2881146FA8A0A4463
:1010D000F96889880A401A44FB8AB9680B44127877
:1010E0001A70FB8A0133FB82FA8AFB889A42E8D3A2
:1010F00000BF00BF1C37BD465DF8047B704780B45D
:1011000083B000AF78600B467B807B88002B24D0B7
:101110007B685B897A889A4202D97B685B897B808D
:101120007B68DA887B8813449BB21AB27B689B8801
:101130001BB213401BB29AB27B68DA807B689A8933
:101140007B8813449AB27B689A817B685A897B8832
:10115000D31A9AB27B685A8100E000BF0C37BD46B3
:101160005DF8047B704780B485B000AF78600B46B3
:101170007B8013467B707B68002B02D14FF0FF33DE
:1011800016E07B68FB600BE0FB685A1CFA601B787A
:101190007A789A4204D1FA687B68D31A013B07E057
:1011A000FA687B68D21A7B889A42EDDB4FF0FF33F6
:1011B00018461437BD465DF8047B704780B485B08F
:1011C00000AF78600B467B8013467B707B68002BFA
:1011D00002D14FF0FF3318E07B88013B7A6813445B
:1011E000FB600BE0FB685A1EFA601B787A789A4223
:1011F00004D1FA687B68D31A013306E0FA687B6889
:10120000D31A002BEEDA4FF0FF3318461437BD46E1
:101210005DF8047B704780B588B000AFF8607A60F5
:101220001A460B467B8113463B81FB68002B02D09C
:101230007B68002B01D1002335E0FB68FB610023B4
:101240007B8302E0FB690133FB61FB691A783B8910
:1012500019467868FFF787FF0346B3F1FF3FF1D1E6
:10126000FB697B6105E07B8B01337B83FB69013389
:10127000FB61FB691A783B8919467868FFF773FFB1
:101280000346B3F1FF3F05D1FA69FB68D21A7B89A7
:101290009A42E8DBBB6A7A8B1A807B8B002B01D0E9
:1012A0007B6900E0002318462037BD4680BD000062
:1012B00080B500AF01224021084806F027FD6423D5
:1012C0000222A021064807F01FF80346002B01D197
:1012D000012300E00023184680BD00BF000402582F
:1012E0005802002480B58AB004AF0346B9607A6022
:1012F000FB8100224021264806F008FDFB8903F00F
:101300000F039BB2C3F11003FB82FB8A7A689A42F7
:1013100001D27B68FB82FB89DB111BB203F00E0359
:101320001BB243F0A0031BB299B2FB89DBB29AB2A5
:1013300064230293FB8A0193BB6800930123154841
:1013400006F0B4FD0346002B18D10A2001F0E4FE9C
:10135000FB8A7A68D31A7B60FB8ABA681344BB6045
:10136000FA89FB8A1344FB817B68002BC6D10122DA
:101370004021074806F0CAFC012305E00122402174
:10138000034806F0C3FC002318461837BD4680BD4D
:10139000000402585802002480B588B004AF034608
:1013A000B9607A60FB8101224021124806F0AEFC50
:1013B000FB89DB111BB203F00E031BB243F0A00349
:1013C0001BB299B2FB89DBB29AB27B689BB26420F4
:1013D00002900193BB6800930123074806F07AFE50
:1013E0000346002B01D1012300E0002318461037EB
:1013F000BD4680BD000402585802002480B582B06A
:1014000000AFFFF755FF034683F00103DBB2002B6B
:1014100001D0002369E0FB1D012219460020FFF7DF
:10142000BBFF034683F00103DBB2002B01D0002396
:101430005BE0FB79BB2B57D0BB23FB71FB1D01226B
:1014400019460020FFF74EFF034683F00103DBB28D
:10145000002B01D0002348E000233B603B460422E0
:1014600019460120FFF73EFF034683F00103DBB27C
:10147000002B01D0002338E03B460422194605200A
:10148000FFF730FF034683F00103DBB2002B01D0EE
:1014900000232AE03B46042219460920FFF722FFD9
:1014A000034683F00103DBB2002B01D000231CE0D4
:1014B0003B46042219460D20FFF714FF034683F034
:1014C0000103DBB2002B01D000230EE03B460422D7
:1014D00019461120FFF706FF034683F00103DBB234
:1014E000002B01D0002300E0012318460837BD4639
:1014F00080BD80B582B000AF03463960FB80FB88B9
:10150000042239681846FFF747FF034683F00103BA
:10151000DBB2002B01D0002300E00123184608377E
:10152000BD4680BD80B582B000AF03463960FB8008
:10153000FB88042239681846FFF7D4FE034683F07F
:101540000103DBB2002B01D0002300E00123184689
:101550000837BD4680BD000080B500AF01F080FDBA
:1015600000F092F800F092FB00F070FB00F080F9C0
:1015700000F0BEF900F0DAF900F0D0FA00F01AFB42
:1015800000F02AFA00F07CFA00F0FAF819F07AF884
:1015900001228021344806F0B9FB322001F0BCFD65
:1015A00000224FF40061314806F0B0FB002027F024
:1015B000B7F9002026F064FA012220212C4806F019
:1015C000A5FB642001F0A8FD00222021284806F098
:1015D0009DFB01224FF40061244806F097FB052093
:1015E00029F08AFB4FF400721F49012029F0A0FB6B
:1015F0004FF480521C49022029F09AFB4FF480627C
:101600001949032029F094FB4FF4807216490420F5
:1016100029F08EFB4FF400621349052029F088FB66
:1016200014480FF0B7F8FFF7E9FE24F0F7F924F0BB
:1016300039FF20F0EFFB012021F0CFF903460E4ADD
:1016400013600E4A00210E4820F065FC03460D4A47
:101650001360094801F092FB18F0A0F920F020FC7B
:1016600000BF0023184680BD000C0258001002582D
:1016700000040258FC030024F0010024B8D9020839
:10168000E11F0008E805002480B59CB000AF07F119
:1016900024034C220021184629F099FE3B1D2022EC
:1016A0000021184629F093FE022008F0F9FC0023DF
:1016B0003B60314BDB6A304A23F00103D3622E4B8F
:1016C000DB6A03F001033B602C4B9B6923F440432E
:1016D0002A4A43F480439361284B9B6903F44043B7
:1016E0003B603B6800BF254B9B6903F40053B3F597
:1016F000005FF8D101237B624FF48033BB62022389
:10170000BB640223FB6401233B6530237B6502231A
:10171000BB650423FB6502233B660C237B66002329
:10172000BB660023FB6607F12403184608F002FDA0
:101730000346002B01D000F06BFD3F237B600323A9
:10174000BB600023FB6008233B6100237B614023D7
:10175000BB610023FB6100233B623B1D0221184655
:1017600009F042F90346002B01D000F051FD00BF03
:101770007037BD4680BD00BF0004005800480258C5
:1017800080B58AB000AF07F11C0300221A605A60CE
:101790009A603B4600221A605A609A60DA601A61C9
:1017A0005A619A612F4B304A1A602E4B00225A60C0
:1017B0002C4B00229A602B4B0022DA60294B04222A
:1017C0001A61284B00221A75264B00225A75254BA8
:1017D00001229A61234B00221A77224B00225A627F
:1017E000204B00229A621F4B0022DA621D4B00221E
:1017F0001A631C4B00225A631A4B002283F83820CC
:10180000184801F0EBFE0346002B01D000F000FD6C
:101810000023FB6107F11C031946124803F0B4F8DA
:101820000346002B01D000F0F3FC104B3B60062375
:101830007B600023BB6040F2FF73FB6004233B61CD
:1018400000237B6100237B763B461946054802F066
:1018500067FA0346002B01D000F0DAFC00BF2837FE
:10186000BD4680BDF4010024002002408000501DD0
:1018700080B500AF1B4B1C4A1A601A4B1B4A5A60BA
:10188000184B00229A60174B0122DA60154B002298
:101890001A61144B00225A61124B00229A61114BBB
:1018A0000022DA610F4B00221A620E4806F062FA3B
:1018B0000346002B01D000F0ABFC0021094807F0E3
:1018C000D1F80346002B01D000F0A2FC002105480E
:1018D00007F013F90346002B01D000F099FC00BF7C
:1018E00080BD00BF58020024005400405D3E3020FF
:1018F00080B400AF0B4B0C4A1A600A4B00225A60AE
:10190000084B00229A60074B4FF48042DA60054B87
:1019100000221A61034B08225A6100BFBD465DF8E0
:10192000047B7047AC0200240024024880B500AF5D
:10193000274B284A1A60264B4FF480025A60244BEA
:1019400000229A60224B0722DA60214B00221A61A2
:101950001F4B00225A611E4B4FF080629A611C4B54
:101960004FF08052DA611A4B00221A62184B0022A3
:101970005A62174B00229A62154B0022DA62144B0E
:101980004FF080425A63124B00229A63104B0022A0
:10199000DA630F4B00221A640D4B00225A640C4B81
:1019A00000229A640A4B0022DA64094B00221A656D
:1019B000074B00225A65064B00229A6504480DF039
:1019C00043FD0346002B01D000F022FC00BF80BD88
:1019D000280300240038004080B588B000AF07F12C
:1019E000100300221A605A609A60DA603B1D0022E0
:1019F0001A605A609A60204B204A1A601E4B5F2280
:101A00005A601D4B00229A601B4B4FF6FF72DA6042
:101A1000194B00221A61184B00225A61164B002202
:101A20009A6115480EF05FFE0346002B01D000F0CE
:101A3000EFFB4FF480533B6107F1100319460E484A
:101A40000FF028F80346002B01D000F0E1FB002343
:101A50007B600023BB600023FB603B1D19460648EA
:101A60000FF07CFA0346002B01D000F0D1FB00BF41
:101A70002037BD4680BD00BFB003002400000140F8
:101A800080B588B000AF07F1100300221A605A60D9
:101A90009A60DA603B1D00221A605A609A601E4B01
:101AA0004FF080421A601C4B40F2BF325A601A4B12
:101AB00000229A60184B42F21072DA60164B002234
:101AC0001A61154B00229A6113480EF00CFE034672
:101AD000002B01D000F09CFB4FF480533B6107F1D9
:101AE000100319460C480EF0D5FF0346002B01D019
:101AF00000F08EFB00237B600023FB603B1D19463A
:101B000005480FF02BFA0346002B01D000F080FBB4
:101B100000BF2037BD4680BDFC03002480B500AF68
:101B2000224B234A1A60214B4FF4E1325A601F4B7B
:101B300000229A601D4B0022DA601C4B00221A61C1
:101B40001A4B0C225A61194B00229A61174B002242
:101B5000DA61164B00221A62144B00225A62134BB0
:101B600000229A6211480FF0A5FA0346002B01D01B
:101B700000F04EFB00210D4811F057F90346002BF1
:101B800001D000F045FB0021084811F08CF9034614
:101B9000002B01D000F03CFB044811F00DF9034686
:101BA000002B01D000F034FB00BF80BD48040024AE
:101BB0000078004080B500AF224B234A1A60214BC9
:101BC0004FF4E1325A601F4B00229A601D4B0022F5
:101BD000DA601C4B00221A611A4B0C225A61194B15
:101BE00000229A61174B0022DA61164B00221A621A
:101BF000144B00225A62134B00229A6211480FF0D4
:101C000059FA0346002B01D000F002FB00210D48D9
:101C100011F00BF90346002B01D000F0F9FA002176
:101C2000084811F040F90346002B01D000F0F0FA0B
:101C3000044811F0C1F80346002B01D000F0E8FA87
:101C400000BF80BDDC040024007C004080B582B071
:101C500000AF0D4BD3F8D8300B4A43F00103C2F864
:101C6000D830094BD3F8D83003F001037B607B6890
:101C7000002205210B2003F01DF80B2003F034F89F
:101C800000BF0837BD4680BD0044025880B58CB007
:101C900000AF07F11C0300221A605A609A60DA60F4
:101CA0001A617F4BD3F8E0307D4A43F01003C2F84D
:101CB000E0307B4BD3F8E03003F01003BB61BB692D
:101CC000774BD3F8E030764A43F08003C2F8E03037
:101CD000734BD3F8E03003F080037B617B69704B7A
:101CE000D3F8E0306E4A43F00403C2F8E0306C4BA6
:101CF000D3F8E03003F004033B613B69684BD3F851
:101D0000E030674A43F00103C2F8E030644BD3F897
:101D1000E03003F00103FB60FB68614BD3F8E03077
:101D20005F4A43F00203C2F8E0305D4BD3F8E03085
:101D300003F00203BB60BB68594BD3F8E030584A4C
:101D400043F00803C2F8E030554BD3F8E03003F01D
:101D500008037B607B6801220821524805F0D6FF0A
:101D600000223021504805F0D1FF00224FF40061DD
:101D70004C4805F0CBFF00224EF280014B4805F0A5
:101D8000C5FF002220214A4805F0C0FF0122402162
:101D9000474805F0BBFF0823FB6101233B62012399
:101DA0007B620023BB6207F11C0319463D4805F026
:101DB000E5FD3023FB6101233B6200237B620023AE
:101DC000BB6207F11C031946374805F0D7FD4FF4F5
:101DD0000063FB6101233B6200237B620023BB6243
:101DE00007F11C0319462F4805F0C8FD4FF40063A6
:101DF000FB6100233B6201237B6207F11C03194650
:101E00002B4805F0BBFD4FF4F853FB614FF404136E
:101E10003B6201237B6207F11C031946234805F04E
:101E2000ADFD4EF28003FB6101233B6200237B6228
:101E30000023BB6207F11C0319461C4805F09EFDF8
:101E40002023FB6101233B6200237B620023BB62F2
:101E500007F11C031946164805F090FD4023FB616D
:101E600001233B6201237B620023BB6207F11C0359
:101E700019460F4805F082FD00220521172002F0C7
:101E800019FF172002F030FF00220521282002F060
:101E900011FF282002F028FF00BF3037BD4680BD6B
:101EA000004402580010025800080258000C025862
:101EB00000040258B0B58AB008AF78600B46FB70DA
:101EC0001346BB70BB78002B03D000F0F7FF01F086
:101ED0008FF8BB78002B0AD13A4B1B781A467B68E7
:101EE000934204D1384B1B78FA789A4222D0374B70
:101EF0001B8814339CB2354B1B886C339AB2FB7829
:101F0000002B02D04FF0FF3300E07B6800210691E8
:101F10004FF6FF7105912E4903AD03C985E8030013
:101F2000029301927423009323460C22082129482E
:101F300025F0C0FDBB78002B04D1234B1B78FA7829
:101F40009A4234D0FB78002B14BF01230023DBB26C
:101F500083F00103DBB203F00103DCB21B4B1A88F0
:101F60001A4B1B886E339BB2002105914FF6FF710F
:101F70000491174902AD03C985E8030001937D234D
:101F80000093134604222146134826F09FF80F4B76
:101F90001B88783399B20E4A002302934FF6FF73E1
:101FA0000193FB7800930CCA0C4826F0E3FA7B6897
:101FB000DAB2044B1A70044AFB78137000BF08377A
:101FC000BD46B0BDEC050024ED050024DCD90208B7
:101FD0000401002400000024ACCC0208B8CC0208A4
:101FE00080B582B000AF7860724B1B684FF0FF3154
:101FF000184621F07BF8704B1B78002B02D06F48FD
:1020000000F0C2FF6E4B1B686E4A11786A4A127864
:102010001846FFF74FFF684B00221A70654B18688F
:1020200000230022002120F05BFD012028F0C4FEE7
:1020300003461A46644B1A70052028F0BDFE03467D
:102040001A46624B1A70032028F0B6FE03461A4661
:102050005F4B1A705D4B1B78012B03D05B4B1B78D9
:10206000042B0BD1564B1B6801335A4203F0070374
:1020700002F0070258BF5342514A1360524B1B787B
:10208000012B03D0504B1B78042B12D14C4B1B68F7
:10209000013B5A4203F0070302F0070258BF5342C4
:1020A000474A1360464B1B68002B02DA444B072259
:1020B0001A60464B1B78032B03D0434B1B78032B32
:1020C0000ED1404B1B78002B14BF01230023DBB241
:1020D00083F00103DBB203F00103DAB2394B1A706B
:1020E0003B4B1B78012B0FD1364B1B78002B0BD0B1
:1020F00000224FF40061374805F008FE00228021DD
:10210000354805F003FE4EE0314B1B78012B46D1DC
:102110002B4B1B68002B03D1304817F04DFF36E0E6
:10212000274B1B68012B03D12C4823F07FFC2EE0AA
:10213000234B1B68022B03D1284815F0E7FF26E04C
:102140001F4B1B68032B03D1244813F0ABF81EE090
:102150001B4B1B68042B03D1204814F01DF916E01B
:10216000174B1B68052B03D11C4813F04FFD0EE0E5
:10217000134B1B68062B03D1184814F063FD06E0CF
:102180000F4B1B68072B02D1144827F051FE00208B
:1021900021F06AFD28F0AEFE074B01221A70FA20EA
:1021A0001FF04BFF20E7002021F0B8FC00BF0837EC
:1021B000BD4680BDF001002420000024C4CC0208EC
:1021C000F0050024F4050024F5050024F60500249C
:1021D000F705002400100258000C0258E8050024FE
:1021E00080B582B000AF78607B681B68074A934275
:1021F00001D100F071FF7B681B68B3F1804F01D102
:1022000028F0F8FB00BF0837BD4680BD00480140FC
:1022100080B400AF72B600BFFEE7000080B582B0A8
:1022200000AF0C4BD3F8F4300A4A43F00203C2F873
:10223000F430084BD3F8F43003F002037B607B6882
:1022400000220F216FF0010002F034FD00BF0837BB
:10225000BD4680BD0044025880B5BAB000AF78607A
:1022600007F1D40300221A605A609A60DA601A619A
:1022700007F11003C0220021184629F0A8F87B6856
:102280001B682B4A93424FD14FF400224FF00003BA
:10229000C7E904230423BB616023FB6110233B6275
:1022A00002237B620223BB624023FB6200233B6369
:1022B00000237B630023C7F8B43007F110031846EE
:1022C00008F060FF0346002B01D0FFF7A1FF194B78
:1022D000D3F8D830174A43F02003C2F8D830154B52
:1022E000D3F8D83003F02003FB60FB68114BD3F820
:1022F000E030104A43F00103C2F8E0300D4BD3F850
:10230000E03003F00103BB60BB688023C7F8D43022
:102310000323C7F8D8300023C7F8DC3007F1D40313
:102320001946054805F02AFB00BFE837BD4680BDC9
:1023300000200240004402580000025880B5BAB0A4
:1023400000AF786007F1D40300221A605A609A60E7
:10235000DA601A6107F11003C0220021184629F043
:1023600036F87B681B68274A934246D14FF0080233
:102370004FF00003C7E904230023C7F8943007F1A6
:102380001003184608F0FEFE0346002B01D0FFF7AD
:102390003FFF1D4BD3F8E0301B4A43F00203C2F865
:1023A000E030194BD3F8E03003F00203FB60FB6828
:1023B0004FF44073C7F8D4301223C7F8D830002345
:1023C000C7F8DC300023C7F8E0300423C7F8E43056
:1023D00007F1D40319460D4805F0D0FA0A4BD3F89B
:1023E000E830094A43F40013C2F8E830064BD3F84A
:1023F000E83003F40013BB60BB6800BFE837BD469C
:1024000080BD00BF00540040004402580004025840
:1024100080B5BCB000AF786007F1DC0300221A6021
:102420005A609A60DA601A6107F11803C02200212D
:10243000184628F0CCFF7B681B684F4A934240F057
:1024400096804FF480324FF00003C7E90623002343
:10245000BB6607F11803184608F094FE0346002BEC
:1024600001D0FFF7D5FE454BD3F8DC30434A43F4A7
:102470000073C2F8DC30414BD3F8DC3003F4007356
:102480007B617B693D4BD3F8E0303C4A43F0040369
:10249000C2F8E030394BD3F8E03003F004033B617D
:1024A0003B69364BD3F8E030344A43F00103C2F8BD
:1024B000E030324BD3F8E03003F00103FB60FB68FF
:1024C0002E4BD3F8E0302D4A43F00203C2F8E0303F
:1024D0002A4BD3F8E03003F00203BB60BB68022351
:1024E000C7F8DC300223C7F8E0300023C7F8E43037
:1024F0000323C7F8E8300923C7F8EC3007F1DC0301
:1025000019461F4805F03AFA0123C7F8DC300223C8
:10251000C7F8E0300023C7F8E4300323C7F8E830F9
:102520000923C7F8EC3007F1DC031946154805F01C
:1025300025FA4CF21803C7F8DC300223C7F8E03064
:102540000023C7F8E4300323C7F8E8300923C7F8AD
:10255000EC3007F1DC0319460B4805F00FFA0022B6
:1025600005217C2002F0A6FB7C2002F0BDFB00BF11
:10257000F037BD4680BD00BF002402480044025829
:1025800000080258000002580004025880B5BCB090
:1025900000AF786007F1DC0300221A605A609A608D
:1025A000DA601A6107F11803C0220021184628F0EA
:1025B0000EFF7B681B683C4A934271D14FF48052F6
:1025C0004FF00003C7E906230023BB6707F1180398
:1025D000184608F0D7FD0346002B01D0FFF718FE80
:1025E000324BD3F8E830314A43F48043C2F8E83044
:1025F0002E4BD3F8E83003F480437B617B692B4B8F
:10260000D3F8E030294A43F00403C2F8E030274B06
:10261000D3F8E03003F004033B613B69234BD3F86C
:10262000E030224A43F00203C2F8E0301F4BD3F8F7
:10263000E03003F00203FB60FB680C23C7F8DC30DA
:102640000223C7F8E0300023C7F8E4300023C7F8BE
:10265000E8300523C7F8EC3007F1DC0319461448CD
:1026600005F08CF94FF40053C7F8DC300223C7F8AB
:10267000E0300023C7F8E4300023C7F8E830052332
:10268000C7F8EC3007F1DC0319460A4805F076F983
:1026900000220521242002F00DFB242002F024FB5F
:1026A00000BFF037BD4680BD0038004000440258EE
:1026B000000802580004025880B584B000AF78606A
:1026C0007B681B68194A93420FD1194BD3F8F0303D
:1026D000174A43F00103C2F8F030154BD3F8F0303D
:1026E00003F00103FB60FB681BE07B681B68B3F130
:1026F000804F16D10E4BD3F8E8300D4A43F001035A
:10270000C2F8E8300A4BD3F8E83003F00103BB60AD
:10271000BB68002205211C2002F0CCFA1C2002F02C
:10272000E3FA00BF1037BD4680BD00BF0000014086
:102730000044025880B5BCB000AF786007F1DC03FC
:1027400000221A605A609A60DA601A6107F1180371
:10275000C0220021184628F03AFE7B681B686C4AAC
:1027600093424FD14FF002024FF00003C7E9062316
:102770000023C7F8903007F11803184608F002FD4F
:102780000346002B01D0FFF743FD624BD3F8E8303E
:10279000604A43F08043C2F8E8305E4BD3F8E8303B
:1027A00003F080437B617B695A4BD3F8E030594A90
:1027B00043F00103C2F8E030564BD3F8E03003F0A9
:1027C00001033B613B694FF40143C7F8DC3002234E
:1027D000C7F8E0300023C7F8E4300023C7F8E8303A
:1027E0000B23C7F8EC3007F1DC0319464A4805F023
:1027F000C5F800220521522002F05CFA522002F0B6
:1028000073FA80E07B681B68444A93427BD14FF0A7
:1028100002024FF00003C7E906230023C7F89030F7
:1028200007F11803184608F0ADFC0346002B01D051
:10283000FFF7EEFC374BD3F8E830364A43F000435D
:10284000C2F8E830334BD3F8E83003F00043FB60C4
:10285000FB68304BD3F8E0302E4A43F01003C2F847
:10286000E0302C4BD3F8E03003F01003BB60BB68C2
:102870000323C7F8DC300223C7F8E0300023C7F891
:10288000E4300023C7F8E8300823C7F8EC3007F13C
:10289000DC031946224805F071F8224B224A1A60DF
:1028A000204B51225A601F4B00229A601D4B002280
:1028B000DA601C4B4FF480621A611A4B00225A6195
:1028C000184B00229A61174B0022DA61154B002247
:1028D0001A62144B00225A62124802F013FA03469D
:1028E000002B01D0FFF794FC7B680E4AC3F88020D0
:1028F0000C4A7B68936300220521532002F0DAF929
:10290000532002F0F1F900BFF037BD4680BD00BF93
:10291000007800400044025800000258007C00404B
:1029200000100258700500241000024080B58EB0DF
:1029300000AF78607B680F2B42D800227968762040
:1029400002F0B8F9762002F0CFF9234A7B681360D1
:10295000224BD3F8F030214A43F48023C2F8F03000
:102960001E4BD3F8F03003F48023BB60BB6807F143
:102970000C0207F110031146184608F0C1FB08F0DD
:10298000A9FB78637B6B164AA2FB03239B0C013BDC
:102990003B63144B144A1A60124B40F2E732DA6080
:1029A000104A3B6B53600F4B00221A610D4B002203
:1029B0009A600C480DF097FE0346002B07D101E00A
:1029C000012305E007480DF0E5FE034600E0012382
:1029D00018463837BD4680BD2C00002400440258FC
:1029E00083DE1B43F80500240048014080B400AF9B
:1029F000FEE780B400AFFEE780B400AFFEE780B42E
:102A000000AFFEE780B400AFFEE780B400AF00BFC8
:102A1000BD465DF8047B704780B500AF024803F007
:102A20009BFC00BF80BD00BF7005002480B500AFD7
:102A30004FF4807005F083F94FF4007005F07FF9D2
:102A400000BF80BD80B500AF02480DF01BFF00BF86
:102A500080BD00BFFC03002480B500AF02480DF02C
:102A60003FFB00BF80BD00BF2803002480B500AF3E
:102A70004FF4806005F063F94FF4006005F05FF9F2
:102A80004FF4805005F05BF900BF80BD80B500AF0A
:102A900002480EF0EDFB00BF80BD00BF48040024DB
:102AA00080B500AF02480EF0E3FB00BF80BD00BF61
:102AB000DC04002480B500AF024806F0ABF900BF8B
:102AC00080BD00BF30D2012480B500AF02480DF0B8
:102AD000D9FE00BF80BD00BFF805002480B500AF5F
:102AE00002480BF0BDFA00BF80BD00BFAC0200245D
:102AF00080B582B000AF7860396028F041FD0346B0
:102B000016221A604FF0FF3318460837BD4680BDC5
:102B100080B582B000AF78604FF0FF317868FFF782
:102B2000E7FFFEE780B586B000AFF860B9607A6075
:102B300000237B610AE0AFF300800146BB685A1CAA
:102B4000BA60CAB21A707B6901337B617A697B68AB
:102B50009A42F0DB7B6818461837BD4680BD80B5C9
:102B600086B000AFF860B9607A6000237B6109E04D
:102B7000BB685A1CBA601B781846AFF300807B69AB
:102B800001337B617A697B689A42F1DB7B68184686
:102B90001837BD4680BD80B483B000AF78604FF079
:102BA000FF3318460C37BD465DF8047B704780B490
:102BB00083B000AF786039603B684FF400525A60D0
:102BC000002318460C37BD465DF8047B704780B47F
:102BD00083B000AF7860012318460C37BD465DF81E
:102BE000047B704780B485B000AFF860B9607A604C
:102BF000002318461437BD465DF8047B704700007B
:102C000080B586B000AF7860144A154BD31A7B614B
:102C10007B693B61134B1B68002B02D1114B124A9D
:102C20001A60104B1A687B6813443A699A4207D2BB
:102C300028F0A6FC03460C221A604FF0FF3309E08F
:102C4000084B1B68FB60074B1A687B681344054AF6
:102C50001360FB6818461837BD4680BD0000082485
:102C6000000800004406002498D8012480B400AF76
:102C7000374BD3F88830364A43F47003C2F88830B3
:102C8000344B1B6803F00F03062B07D8314B1B682E
:102C900023F00F032F4A43F0070313602E4B1B68EA
:102CA0002D4A43F0010313602B4B00221A612A4B7B
:102CB0001A682949294B13400B60264B1B6803F007
:102CC0000803002B07D0234B1B6823F00F03214A76
:102CD00043F007031360204B00229A611E4B002231
:102CE000DA611D4B00221A621B4B1D4A9A621A4B75
:102CF0001C4ADA62184B1C4A1A63174B00225A63AB
:102D0000154B194A9A63144B0022DA63124B164A88
:102D10001A64114B00225A640F4B1B680E4A23F4AD
:102D2000802313600C4B00221A66104B1A68104B5C
:102D30001340B3F1005F02D20E4B01221A600E4B1A
:102D400043F2D2021A6000BFBD465DF8047B7047B3
:102D500000ED00E000200052004402587FEDF6EA4A
:102D6000000202020000FF01800201010010005C6D
:102D70000000FFFF088100510040005280B584B080
:102D800002AF7860084B00221A70002301930823D9
:102D900000937B684FF480520449054820F063FD9E
:102DA00000BF0837BD4680BD48060024D0CC0208CD
:102DB000B52D000880B586B000AF78607B687B6178
:102DC0004FF000033B610023FB81002208213348C0
:102DD00004F09CFF324800F0A3FD6421304800F06D
:102DE0009DFE2F4800F08EFF0346FB812C4800F02B
:102DF00061FE01220821294804F088FFFB8907EEC3
:102E0000903AF8EEE77A9FED277A27EE877ADFEDA2
:102E1000266AC7EE267AC7ED047A97ED047ADFEDCD
:102E2000236AC7EE267AC7ED047AD7ED047AB0EEAE
:102E3000087A37EEC77ADFED1E6AC7EE267A9FED75
:102E40001D7A67EE877AFDEEE77A17EE902A1A4B25
:102E50001A60194B1B68002B03DA174B00221A600B
:102E600006E0154B1B68642B02DD134B64221A60CD
:102E70007B691B684FF0FF31184620F037F900F0EE
:102E80001DF87B6918680023002200211FF028FE2E
:102E900041F288301FF0D1F897E700BF00100258C8
:102EA000F40100244C37514000FF7F47F47F243F5A
:102EB0009899993F0000C8424C06002480B584B020
:102EC00004AF274B1B78002B10D0264B0022029218
:102ED0004FF6FF7201925A6800921B68224A012144
:102EE000012025F07FFE1E4B00221A701F4B1B682D
:102EF0001A461F491F4828F0D9F91A4B002202929E
:102F00004FF6FF7201925A6800921B68194A01211C
:102F1000632025F067FE184B1B78002B0ED0174B53
:102F2000002202924FF6FF7201925A6800921B68CB
:102F3000134A0121572025F055FE0DE00F4B0022CA
:102F400002924FF6FF7201925A6800921B680D4A76
:102F50000121572025F046FE00BFBD4680BD00BFC1
:102F600067060024040100245C0600244C060024AB
:102F7000E0CC02085006002448060024FC0000248F
:102F8000E8CC0208ECCC020880B584B000AF7860D1
:102F90007868FDF7AFF90346FB81FB890A2B28BF50
:102FA0000A23FB81FB891A467968074828F014FB3D
:102FB000FB89054A0021D154044B01221A7000BF3D
:102FC0001037BD4680BD00BF5C06002467060024A4
:102FD00080B483B000AF0346FB71044AFB791370E1
:102FE00000BF0C37BD465DF8047B704748060024DF
:102FF00080B582B002AF00230093952380220C217C
:10300000002023F094FF00BFBD4680BDDFF834D020
:10301000FFF72CFE0C480D490D4A002302E0D4585E
:10302000C4500433C4188C42F9D30A4A0A4C002312
:1030300001E013600432A242FBD328F0A7FAFEF7A6
:103040008BFA70470000082400000024C40100240B
:1030500060FA0208C801002494D80124FEE70000A9
:1030600080B582B000AF032001F019FE07F072FEB8
:103070000246154B9B691B0A03F00F031349CB5CF7
:1030800003F01F0322FA03F37B600F4B9B6903F0ED
:103090000F030E4AD35C03F01F037A6822FA03F38E
:1030A0000B4A13600B4A7B6813600F20FFF73EFC4E
:1030B0000346002B01D0012302E0FFF7AFF8002305
:1030C00018460837BD4680BD00440258E0D90208C2
:1030D000280000242400002480B400AF064B1B7895
:1030E0001A46064B1B681344044A136000BFBD46D2
:1030F0005DF8047B704700BF3000002468060024A0
:1031000080B400AF034B1B681846BD465DF8047BD6
:10311000704700BF6806002480B584B000AF7860B7
:10312000FFF7EEFFB8607B68FB60FB68B3F1FF3F21
:1031300005D00A4B1B781A46FB681344FB6000BF9E
:10314000FFF7DEFF0246BB68D31AFA689A42F7D847
:1031500000BF00BF1037BD4680BD00BF3000002457
:1031600080B400AF034B1B681B0C1846BD465DF8CE
:10317000047B70470010005C80B483B000AF7860BF
:1031800039607B689B6823F47C123B681A437B6838
:103190009A6000BF0C37BD465DF8047B704780B471
:1031A00083B000AF786039607B689B6823F0E07281
:1031B0003B681A437B689A6000BF0C37BD465DF8D8
:1031C000047B704780B483B000AF78607B689B68F5
:1031D00003F0E07318460C37BD465DF8047B70477A
:1031E00080B487B000AFF860B9607A603B60FB687C
:1031F00060331A46BB689B0013447B617B691B6884
:1032000003F000427B6803F0F8413B680B431A432C
:103210007B691A6000BF1C37BD465DF8047B7047B0
:1032200080B485B000AFF860B9607A60FB681B6954
:1032300023F4F042BB6803F01F03796801FA03F33B
:103240001A43FB681A6100BF1437BD465DF8047B62
:10325000704780B487B000AFF860B9607A60FB68EF
:1032600060331A46BB689B0013447B617B691B6813
:1032700023F000427B681A437B691A6000BF1C3749
:10328000BD465DF8047B704780B483B000AF7860C2
:103290007B68DB6803F44063002B01D1012300E06D
:1032A000002318460C37BD465DF8047B704780B498
:1032B00087B000AFF860B9607A60FB6830331A46B7
:1032C000BB681B0A9B0003F00C0313447B617B6902
:1032D0001A68BB6803F01F031F2101FA03F3DB43E5
:1032E0001A407B689B0E03F01F01BB6803F01F03AD
:1032F00001FA03F31A437B691A6000BF1C37BD460D
:103300005DF8047B704780B487B000AFF860B960A7
:103310007A60FB6814331A46BB685B0E9B0003F0AF
:10332000040313447B617B691A68BB681B0D03F0BF
:103330001F03072101FA03F3DB431A40BB681B0D8F
:1033400003F01F03796801FA03F31A437B691A60DB
:1033500000BF1C37BD465DF8047B704780B485B064
:1033600000AFF860B9607A60FB68D3F8C020BB6832
:10337000C3F31303DB431A407B6803F018030849C7
:10338000D940BB680B40C3F313031A43FB68C3F86F
:10339000C02000BF1437BD465DF8047B704700BFF6
:1033A000FFFF0F0080B483B000AF78607B689B683C
:1033B00003F01F0318460C37BD465DF8047B7047C9
:1033C00080B483B000AF78607B689B6803F44043AF
:1033D00018460C37BD465DF8047B704780B483B057
:1033E00000AF78607B689A68044B13407A689360FA
:1033F00000BF0C37BD465DF8047B7047C0FFFF5F20
:1034000080B483B000AF78607B689B6803F00053A2
:10341000B3F1005F01D1012300E0002318460C370F
:10342000BD465DF8047B704780B483B000AF786020
:103430007B689A68054B134043F080527B689A6022
:1034400000BF0C37BD465DF8047B7047C0FFFF6FBF
:1034500080B483B000AF78607B689B6803F08053D2
:10346000B3F1805F01D1012300E0002318460C373F
:10347000BD465DF8047B704780B483B000AF7860D0
:103480007B689A68054B134043F001027B689A60A1
:1034900000BF0C37BD465DF8047B7047C0FFFF7F5F
:1034A00080B483B000AF78607B689A68054B1340A6
:1034B00043F002027B689A6000BF0C37BD465DF89E
:1034C000047B7047C0FFFF7F80B483B000AF78609B
:1034D0007B689B6803F00103012B01D1012300E00D
:1034E000002318460C37BD465DF8047B704780B456
:1034F00083B000AF78607B689B6803F00203022B07
:1035000001D1012300E0002318460C37BD465DF8C9
:10351000047B704780B483B000AF78607B689A68A2
:10352000054B134043F004027B689A6000BF0C37E0
:10353000BD465DF8047B7047C0FFFF7F80B483B059
:1035400000AF78607B689A68054B134043F0100227
:103550007B689A6000BF0C37BD465DF8047B7047FE
:10356000C0FFFF7F80B483B000AF78607B689B684A
:1035700003F00403042B01D1012300E000231846CB
:103580000C37BD465DF8047B7047000080B483B003
:1035900000AF78607B689A68054B134043F02002C7
:1035A0007B689A6000BF0C37BD465DF8047B7047AE
:1035B000C0FFFF7F80B483B000AF78607B689B68FA
:1035C00003F00803082B01D1012300E00023184673
:1035D0000C37BD465DF8047B7047000090B589B09C
:1035E00000AF78600023FB770023BB607B68002B73
:1035F00001D101238FE17B68DB68002B7B685B6D69
:10360000002B09D17868FEF727FE7B6800229A65B7
:103610007B68002283F850207B681B681846FFF700
:10362000EFFE0346002B04D07B681B681846FFF7AB
:10363000D5FE7B681B681846FFF70AFF0346002B80
:1036400014D17B681B681846FFF7EEFE874B1B689A
:103650009B09874AA2FB03239B090133BB6002E05D
:10366000BB68013BBB60BB68002BF9D17B681B6862
:103670001846FFF7EDFE0346002B0DD17B685B6D0E
:1036800043F010027B685A657B689B6D43F0010232
:103690007B689A650123FB777B681B681846FFF7F8
:1036A00061FF78617B685B6D03F01003002B40F0D5
:1036B00029817B69002B40F025817B685B6D23F4B9
:1036C000817343F002027B685A657B681B68184669
:1036D000FFF7FAFE0346002B36D17B681B68654A6C
:1036E000934204D07B681B68634A93420ED16148C1
:1036F000FFF7EAFE04466048FFF7E6FE0346234371
:10370000002B0CBF01230023DBB208E05B48FFF76E
:10371000DBFE0346002B0CBF01230023DBB2002B92
:1037200012D07B681B68534A934204D07B681B68A5
:10373000514A934201D1524A00E0524A7B685B6889
:1037400019461046FFF718FDFFF70AFD034641F240
:103750000302934214D97B689B68102B10D17B68BD
:103760005B7D5A037B681B6B1A437B689B681A431B
:103770007B681B7F1B04134343F00C03BB610DE00C
:103780007B685B7D5A037B681B6B1A437B689B6875
:103790001A437B681B7F1B041343BB617B681B7F41
:1037A000012B06D17B681B6A013B5B04BA6913439A
:1037B000BB617B685B6A002B09D07B685B6A03F4A2
:1037C00078727B689B6A1343BA691343BB617B6859
:1037D0001B68DA682C4B13407A681268B9690B438E
:1037E000D3607B681B681846FFF7BCFE38617B68B6
:1037F0001B681846FFF7DEFEF8603B69002B5FD1BF
:10380000FB68002B5CD17B681B7D9A037B68DB6ABD
:103810001343BB617B681B68DA681C4B13407A68F2
:103820001268B9690B43D3607B6893F83830012B79
:1038300030D17B685B6A002B7B681B681A69144B6C
:1038400013407A68D26B013A11047A68126C114302
:103850007A68526C11437A68926C0A431A437B6807
:103860001B6842F001021A611CE000BF2400002422
:10387000632D3E05002002400021024000600258F6
:10388000002302400063025803C0F0FFFCBFFFFFAB
:103890001EF800FC7B681B681A697B681B6822F0B5
:1038A00001021A617B681B681B6923F070417B6809
:1038B0005A6B7B681B680A431A61786800F032FF14
:1038C0007B68DB68012B0CD17B681B681B6B23F0CA
:1038D0000F017B689B695A1E7B681B680A431A6349
:1038E00007E07B681B681A6B7B681B6822F00F027D
:1038F0001A637B685B6D23F0030343F001027B686E
:103900005A6507E07B685B6D43F010027B685A657F
:103910000123FB77FB7F18462437BD4690BD00BFCF
:1039200080B586B000AF78607B681B685C4A9342C4
:1039300004D07B681B685B4A934201D15A4B00E07C
:103940005A4B1846FFF72EFD38617B681B681846F6
:10395000FFF708FE0346002B40F09A807B6893F83F
:103960005030012B01D1022395E07B68012283F8BE
:103970005020786800F0ECFD0346FB75FB7D002BC2
:1039800040F081807B685A6D494B134043F480724C
:103990007B685A657B681B68424A934202D07B6809
:1039A0001B6800E03E4B7A681268934202D03B6984
:1039B000002B05D17B685B6D23F480127B685A6510
:1039C0007B685B6D03F48053B3F5805F06D17B6841
:1039D0009B6D23F006027B689A6502E07B680022FB
:1039E0009A657B681B681C221A607B68002283F83A
:1039F00050207B681B682B4A934202D07B681B686F
:103A000000E0274B7A681268934208D03B69002B8C
:103A100005D03B69052B02D03B69092B14D17B688B
:103A20001B68DB6803F00073002B07D07B685B6DBD
:103A300023F4405343F480527B685A657B681B68CB
:103A40001846FFF767FD25E07B685B6D43F4801245
:103A50007B685A657B681B68124A934202D07B6878
:103A60001B6800E00E4BFB60FB68DB6803F0007333
:103A7000002B0FD07B685B6D23F4405343F48052DE
:103A80007B685A6506E07B68002283F8502001E0DD
:103A90000223FB75FB7D18461837BD4680BD00BF6D
:103AA000002002400021024000230240006302582F
:103AB000FEF0FFFF80B584B000AF78607B6893F8BC
:103AC0005030012B01D1022321E07B68012283F8D1
:103AD00050200321786800F07FFC0346FB73FB7BDA
:103AE000002B0FD1786800F0BDFD0346FB73FB7B14
:103AF000002B07D17B685A6D074B134043F001023E
:103B00007B685A657B68002283F85020FB7B18464F
:103B10001037BD4680BD00BFFEEEFFFF80B588B008
:103B200000AF786039607B681B68724A934204D0AA
:103B30007B681B68704A934201D1704B00E0704B68
:103B40001846FFF72FFC78617B681B69082B02D1B0
:103B50000823FB6137E07B69002B05D07B69052BCF
:103B600002D07B69092B11D17B681B68DB6803F0ED
:103B70000103002B07D07B685B6D43F020027B685C
:103B80005A650123B1E00423FB611CE07B681B68DC
:103B9000584A934204D07B681B68574A934201D12C
:103BA000564B00E0564B1846FFF70AFC0346002B25
:103BB00007D07B685B6D43F020027B685A65012368
:103BC00093E00423FB61FFF79BFA386121E03B6837
:103BD000B3F1FF3F1DD0FFF793FA02463B69D31ABA
:103BE0003A689A4202D33B68002B12D17B681B686B
:103BF0001A68FB691340002B0BD17B685B6D43F0A7
:103C000004027B685A657B68002283F850200323F6
:103C10006BE07B681B681A68FB691340002BD6D0E9
:103C20007B685B6D43F400727B685A657B681B6838
:103C30001846FFF729FB0346002B1CD07B685B7DF1
:103C4000002B18D17B681B681B6803F00803082B46
:103C500011D17B685B6D23F480727B685A657B6849
:103C60005B6D03F48053002B05D17B685B6D43F0E3
:103C700001027B685A657B681B681F4A934202D029
:103C80007B681B6800E01B4B7A681268934208D07F
:103C90007B69002B05D07B69052B02D07B69092B42
:103CA00004D17B681B68DB68BB610CE07B681B6828
:103CB000114A934202D07B681B6800E00D4BFB6009
:103CC000FB68DB68BB61FB69082B04D17B681B6860
:103CD00008221A6008E0BB6903F48043002B03D17B
:103CE0007B681B680C221A60002318462037BD46EB
:103CF00080BD00BF0020024000210240002302409E
:103D00000063025880B483B000AF78607B681B68A2
:103D10001B6C18460C37BD465DF8047B70470000ED
:103D200090B5A1B000AF78603960002387F87F308C
:103D30000023BB603B68DB68654A93427B6893F86D
:103D40005030012B01D102232EE37B68012283F83E
:103D500050207B681B681846FFF704FC0346002BC5
:103D600040F013833B681B68002B2CDB3B681B680F
:103D7000C3F31303002B08D13B681B689B0E03F0B1
:103D80001F03012202FA03F316E03B681B687B66FF
:103D90007B6E93FAA3F33B663B6EBB66BB6E002B58
:103DA00001D1202303E0BB6EB3FA83F3DBB203F04F
:103DB0001F03012202FA03F37A681268D1697A6854
:103DC00012680B43D3617B6818683B6859683B688D
:103DD0001B681A46FFF76BFA7B681B681846FFF7EB
:103DE000C1FBB8677B681B681846FFF7E3FB786781
:103DF000BB6F002B40F0B8807B6F002B40F0B4808D
:103E00007B6818683B6819683B689B681A46FFF72F
:103E10007AFA304B1B6803F07043B3F1805F0BD12B
:103E20003B685A697B681B68DB689B0803F00703E3
:103E30005B0002FA03F31DE07B681B68DB6803F09C
:103E40001003002B0BD13B685A697B681B68DB6849
:103E50009B0803F007035B0002FA03F30AE03B68E8
:103E60005A697B681B68DB689B0803F004035B00EE
:103E700002FA03F33B673B681B69042B2CD07B6879
:103E800018683B6819693B681A683B6FFFF7A8F927
:103E90007B6818683B6819693B685B7E012B02D11F
:103EA0004FF0004300E000231A46FFF7D2F97B6889
:103EB00018683B6819693B681B7E012B02D14FF4DF
:103EC000006300E000231A46FFF7AAF94CE000BFA8
:103ED0000000FF470010005C7B681B681B6E03F04E
:103EE000F8423B681B689B069A4207D17B681B68B7
:103EF0001A6E7B681B6822F000421A667B681B689A
:103F00005B6E03F0F8423B681B689B069A4207D140
:103F10007B681B685A6E7B681B6822F000425A66F9
:103F20007B681B689B6E03F0F8423B681B689B062E
:103F30009A4207D17B681B689A6E7B681B6822F0E7
:103F400000429A667B681B68DB6E03F0F8423B68B0
:103F50001B689B069A4207D17B681B68DA6E7B68F8
:103F60001B6822F00042DA667B681B681846FFF780
:103F7000ABFA0346002B40F011827B6818683B685F
:103F800019683B68DB681A46FFF7E8F93B68DB68AD
:103F9000A14A934240F02E817B6818683B681B68F9
:103FA000C3F31303002B0BD13B681B689B0E01333B
:103FB00003F01F03092B94BF01230023DBB219E098
:103FC0003B681B68BB65BB6D93FAA3F37B657B6D98
:103FD000FB65FB6D002B01D1202303E0FB6DB3FAE1
:103FE00083F3DBB2013303F01F03092B94BF0123DA
:103FF0000023DBB2002B79D03B681B68C3F31303AB
:10400000002B07D13B681B689B0E01339B0603F016
:10401000F84215E03B681B68FB64FB6C93FAA3F362
:10402000BB64BB6C3B653B6D002B01D1202303E0DF
:104030003B6DB3FA83F3DBB201339B0603F0F84226
:104040003B681B68C3F31303002B09D13B681B6853
:104050009B0E013303F01F03012101FA03F317E064
:104060003B681B683B643B6C93FAA3F3FB63FB6BFD
:104070007B647B6C002B01D1202303E07B6CB3FAC3
:1040800083F3DBB2013303F01F03012101FA03F3D1
:1040900042EA03013B681B68C3F31303002B0AD1F8
:1040A0003B681B689B0E013303F01F0213465B0045
:1040B00013441B0518E03B681B687B637B6B93FA1A
:1040C000A3F33B633B6BBB63BB6B002B01D1202392
:1040D00003E0BB6BB3FA83F3DBB2013303F01F02DF
:1040E00013465B0013441B050B437EE03B681B68D3
:1040F000C3F31303002B07D13B681B689B0E0133EE
:104100009B0603F0F84215E03B681B68BB62BB6A84
:1041100093FAA3F37B627B6AFB62FB6A002B01D1FB
:10412000202303E0FB6AB3FA83F3DBB201339B067F
:1041300003F0F8423B681B68C3F31303002B09D15B
:104140003B681B689B0E013303F01F03012101FA3A
:1041500003F317E03B681B68FB61FB6993FAA3F369
:10416000BB61BB693B623B6A002B01D1202303E0AA
:104170003B6AB3FA83F3DBB2013303F01F0301217F
:1041800001FA03F342EA03013B681B68C3F313031C
:10419000002B0DD13B681B689B0E013303F01F02FF
:1041A00013465B0013441E3B1B0543F000731BE0EA
:1041B0003B681B683B613B6993FAA3F3FB60FB68B8
:1041C0007B617B69002B01D1202303E07B69B3FA7B
:1041D00083F3DBB2013303F01F0213465B00134489
:1041E0001E3B1B0543F000730B433A689268194667
:1041F000FFF789F83B681B68002B80F2CF807B6853
:104200001B68064A934204D07B681B68044A9342A9
:104210000AD1044B09E000BF0000FF470020024024
:104220000021024000230240614B1846FEF7CAFFFE
:10423000F8667B681B685F4A934204D07B681B6802
:104240005D4A93420ED15B48FFF73EF904465A4857
:10425000FFF73AF903462343002B0CBF0123002349
:10426000DBB208E05548FFF72FF90346002B0CBFDF
:1042700001230023DBB2002B7DD03B681B68504A32
:10428000934230D1FB6E03F40003002B2BD17B68EB
:104290001B684A4A934240F081807B681B68454A0C
:1042A000934204D07B681B68434A934201D1454A3C
:1042B00000E03F4AFB6E43F4000319461046FEF748
:1042C0006EFF414B1B689B09404AA2FB03239B09DD
:1042D00001335B00BB6002E0BB68013BBB60BB68B5
:1042E000002BF9D15AE03B681B68394A93421ED132
:1042F000FB6E03F08073002B19D17B681B682F4A7B
:1043000093424BD17B681B682A4A934204D07B6856
:104310001B68294A934201D12A4A00E0244AFB6ED5
:1043200043F0807319461046FEF739FF36E03B68CC
:104330001B68284A934231D1FB6E03F48003002BA3
:104340002CD17B681B681D4A934227D17B681B6870
:10435000184A934204D07B681B68174A934201D1E4
:10436000184A00E0124AFB6E43F4800319461046D7
:10437000FEF715FF12E07B685B6D43F020027B685F
:104380005A65012387F87F3008E07B685B6D43F056
:1043900020027B685A65012387F87F307B68002202
:1043A00083F8502097F87F3018468437BD4690BD7B
:1043B00000630258002002400021024000600258C1
:1043C000000084CB0023024024000024632D3E051E
:1043D000000052C70000B8CF80B588B000AF786049
:1043E00039600023FB613B68BB617B681B68184632
:1043F000FFF7B8F838617B681B681846FFF7DAF8F2
:10440000F8603B69002B03D1FB68002B00F098801B
:104410007B681B68DB6803F00073002B2AD07B6885
:104420005B7D012B26D17B681B7D012B22D10123D3
:10443000BB6114E0FB69454A93420DD97B685B6D13
:1044400043F010027B685A657B689B6D43F0010264
:104450007B689A65012374E0FB690133FB617B682B
:104460001B681B6803F04003402BE3D17B681B688B
:1044700040221A60BB69022B14D07B681B68184667
:10448000FFF770F80346002B0CD07B681B681846BA
:10449000FFF72DF80346002B04D17B681B681846F4
:1044A000FFF74CF8BB69012B14D07B681B681846DA
:1044B000FFF780F80346002B0CD07B681B6818467A
:1044C000FFF715F80346002B04D17B681B681846DC
:1044D000FFF75CF8BB69022B05D0BB69032B05D144
:1044E0000C237B6105E008237B6102E004237B61F0
:1044F00000BFFEF705FEB8601BE0FEF701FE0246B6
:10450000BB68D31A052B14D97B681B689A687B6932
:104510001340002B0DD07B685B6D43F010027B686D
:104520005A657B689B6D43F001027B689A650123A5
:1045300007E07B681B689A687B691340002BDCD11D
:10454000002318462037BD4680BD00BFFFDB0C00AE
:1045500080B584B000AF78607B681B681846FEF7B2
:10456000B3FF0346002B6ED17B681B689A68384BFB
:104570001340002B0DD07B685B6D43F010027B680D
:104580005A657B689B6D43F001027B689A65012345
:104590005AE07B681B681846FEF76EFFFEF7B0FD19
:1045A000F8607B681B682B4A934204D07B681B68C9
:1045B000294A934201D1294B00E0294B1846FEF7C6
:1045C000F1FEB8607B681B68234A934202D07B6887
:1045D0001B6800E01F4B7A68126893422CD0BB68BE
:1045E000002B30D128E07B681B681846FEF76CFF73
:1045F0000346002B04D17B681B681846FEF73CFF7E
:10460000FEF77EFD0246FB68D31A022B14D97B68A5
:104610001B681B6803F00103012B0DD07B685B6DE9
:1046200043F010027B685A657B689B6D43F0010282
:104630007B689A65012307E07B681B681B6803F0B1
:104640000103012BCFD1002318461037BD4680BD92
:104650003F00008000200240002102400023024071
:104660000063025880B584B000AF78607B681B6837
:104670001846FEF73CFFF8607B681B681846FEF79B
:1046800023FF0346002B47D0FB68002B44D17B68F7
:104690001B689B6803F00D03012B0CD17B681B6822
:1046A0001846FEF7FDFE7B681B6803221A60FEF7C2
:1046B00027FDB86029E07B685B6D43F010027B68E2
:1046C0005A657B689B6D43F001027B689A65012304
:1046D00023E0FEF715FD0246BB68D31A022B14D95E
:1046E0007B681B689B6803F00103002B0DD07B687F
:1046F0005B6D43F010027B685A657B689B6D43F0ED
:1047000001027B689A65012307E07B681B689B6850
:1047100003F00103002BDCD1002318461037BD46FF
:1047200080BD000080B584B000AF78607B681B68F6
:104730007A4A934204D07B681B68794A934209D134
:10474000784B9B6803F44033002B14BF01230023F4
:10475000DBB208E0744B9B6803F44033002B14BFBA
:1047600001230023DBB2002B1CD006F06DFCF860A7
:104770007B685B68B3F5403F10D0B3F5403F73D81A
:10478000B3F5803F02D0B3F5003F6DD17B685B6825
:104790001B0CFA68B2FBF3F3FB6068E0FB689B0854
:1047A000FB6064E04FF400204FF0000107F0F4FEDE
:1047B000F8607B685B68B3F5301F51D0B3F5301FEC
:1047C00054D8B3F5201F47D0B3F5201F4ED8B3F50A
:1047D000101F3DD0B3F5101F48D8B3F5001F33D0DC
:1047E000B3F5001F42D8B3F5E01F29D0B3F5E01FA1
:1047F0003CD8B3F5C01F1AD0B3F5C01F36D8B3F5F7
:10480000A01F14D0B3F5A01F30D8B3F5801F0ED071
:10481000B3F5801F2AD8B3F5402F08D0B3F5402F49
:1048200024D8B3F5802F02D0B3F5002F1ED17B68BA
:104830005B689B0C5B00FA68B2FBF3F3FB6016E06D
:10484000FB681B09FB6012E0FB685B09FB600EE084
:10485000FB689B09FB600AE0FB68DB09FB6006E084
:10486000FB681B0AFB6002E000BF00E000BFFEF730
:1048700077FC034641F20302934215D8FB682B4AAA
:10488000934208D97B681B689A687B681B6842F46E
:1048900080729A603EE07B681B689A687B681B6840
:1048A00022F480729A6035E0FB685B08FB60FB686D
:1048B0001F4A934208D87B681B689A687B681B680C
:1048C00022F440729A6025E0FB681A4A93420AD8A3
:1048D0007B681B689B6823F440727B681B6842F40A
:1048E00080729A6016E0FB68134A93420AD87B688C
:1048F0001B689B6823F440727B681B6842F400725B
:104900009A6007E07B681B689A687B681B6842F4C2
:1049100040729A6000BF1037BD4680BD0020024043
:10492000002102400023024000630258002D3101A3
:10493000105E5F0020BCBE0040787D0180B483B073
:1049400000AF78607B689B6803F00103012B01D105
:10495000012300E0002318460C37BD465DF8047BB8
:10496000704780B483B000AF78607B689B6803F0C9
:104970000403042B01D1012300E0002318460C3767
:10498000BD465DF8047B704790B59FB000AF78607E
:104990003960002387F877307B6893F85030012B1B
:1049A00001D10223BEE07B68012283F8502000235E
:1049B000FB6500233B667B681B685C4A934202D11F
:1049C0005B4BBB6001E00023BB60BB68002B0BD1DD
:1049D0007B685B6D43F020027B685A657B68002230
:1049E00083F8502001239DE0BB681846FFF7B9FF0C
:1049F00038677B681B681846FFF7B3FF0346002B38
:104A00007FD13B6F002B7CD17B681B68474A934268
:104A100004D07B681B68464A934201D1454B00E0B5
:104A2000454BFB663B681B68002B39D0FB6E9B68CF
:104A300023F440423B685B681A43FB6E9A607B68D4
:104A40001B683A4A934204D07B681B68384A9342F9
:104A50000ED13648FFF772FF04463548FFF76EFF68
:104A600003462343002B0CBF01230023DBB208E0E5
:104A70003248FFF763FF0346002B0CBF01230023DE
:104A8000DBB2002B47D0FB6E9A682D4B13403A687F
:104A900011683A6892680A431A43FB6E9A603AE0DA
:104AA000FB6E9B6823F44042FB6E9A607B681B6838
:104AB0001E4A934204D07B681B681D4A93420ED164
:104AC0001A48FFF73BFF04461948FFF737FF034634
:104AD0002343002B0CBF01230023DBB208E017485F
:104AE000FFF72CFF0346002B0CBF01230023DBB292
:104AF000002B10D0FB6E9A68114B1340FA6E936036
:104B000009E07B685B6D43F020027B685A650123F6
:104B100087F8773000E000BF7B68002283F85020E0
:104B200097F8773018467C37BD4690BD002002408C
:104B30000021024000230240006302580060025836
:104B4000E0F0FFFF80B485B000AF78607B6803F0D1
:104B50000703FB600B4BDB68BB60BA684FF6FF03D3
:104B60001340BB60FB681A02BB681A43064B134331
:104B7000BB60044ABB68D36000BF1437BD465DF814
:104B8000047B704700ED00E00000FA0580B400AF40
:104B9000044BDB681B0A03F007031846BD465DF8AB
:104BA000047B704700ED00E080B483B000AF0346A3
:104BB000FB80B7F90630002B0BDBFB8803F01F02EC
:104BC0000749B7F906305B09012000FA02F241F803
:104BD000232000BF0C37BD465DF8047B704700BF43
:104BE00000E100E080B483B000AF03463960FB8091
:104BF000B7F90630002B0ADB3B68DAB20C49B7F98B
:104C000006301201D2B20B4483F800230AE03B685D
:104C1000DAB20849FB8803F00F03043B1201D2B259
:104C20000B441A7600BF0C37BD465DF8047B704715
:104C300000E100E000ED00E080B489B000AFF86072
:104C4000B9607A60FB6803F00703FB61FB69C3F19D
:104C50000703042B28BF0423BB61FB690433062B25
:104C600002D9FB69033B00E000237B614FF0FF3278
:104C7000BB6902FA03F3DA43BB681A407B699A40C6
:104C80004FF0FF317B6901FA03F3D9437B680B4096
:104C9000134318462437BD465DF8047B704780B542
:104CA00082B000AF78607868FFF74CFF00BF08372C
:104CB000BD4680BD80B586B000AF0346B9607A605E
:104CC000FB81FFF763FF78617A68B9687869FFF75D
:104CD000B3FF0246B7F90E3011461846FFF782FFC0
:104CE00000BF1837BD4680BD80B582B000AF034617
:104CF000FB80B7F906301846FFF756FF00BF0837AC
:104D0000BD4680BD80B586B000AF7860FEF7F8F98B
:104D100038617B68002B01D1012316E37B681B6897
:104D2000664A93424AD07B681B68654A934245D0E5
:104D30007B681B68634A934240D07B681B68624A69
:104D400093423BD07B681B68604A934236D07B68B5
:104D50001B685F4A934231D07B681B685D4A93426F
:104D60002CD07B681B685C4A934227D07B681B6809
:104D70005A4A934222D07B681B68594A93421DD0FD
:104D80007B681B68574A934218D07B681B68564A59
:104D9000934213D07B681B68544A93420ED07B68C1
:104DA0001B68534A934209D07B681B68514A93425F
:104DB00004D07B681B68504A934201D1012300E074
:104DC0000023002B00F03B817B68022283F8352012
:104DD0007B68002283F834207B681B68374A934243
:104DE0004AD07B681B68364A934245D07B681B6873
:104DF000344A934240D07B681B68334A93423BD08D
:104E00007B681B68314A934236D07B681B68304A06
:104E1000934231D07B681B682E4A93422CD07B682A
:104E20001B682D4A934227D07B681B682B4A93420C
:104E300022D07B681B682A4A93421DD07B681B687E
:104E4000284A934218D07B681B68274A934213D0A4
:104E50007B681B68254A93420ED07B681B68244AF6
:104E6000934209D07B681B68224A934204D07B6836
:104E70001B68214A934208D17B681B681A687B68CB
:104E80001B6822F001021A6007E07B681B681A6841
:104E90007B681B6822F001021A602FE0FEF730F9F0
:104EA00002463B69D31A052B28D97B6820225A6514
:104EB0007B68032283F83520012346E2100002407C
:104EC00028000240400002405800024070000240AA
:104ED00088000240A0000240B800024010040240D6
:104EE000280402404004024058040240700402407A
:104EF00088040240A0040240B80402407B681B689A
:104F00001B6803F00103002BC8D17B681B681B687A
:104F10007B617A69834B13407B617B689A687B680D
:104F2000DB681A437B681B691A437B685B691A4319
:104F30007B689B691A437B68DB691A437B681B6A41
:104F400013437A6913437B617B685B6A042B07D147
:104F50007B68DA6A7B681B6B13437A6913437B6156
:104F6000714B1A68714B1340B3F1005F28D37B6813
:104F70005B68282B03D97B685B682E2B17D97B686D
:104F80005B683E2B03D97B685B68422B0FD97B683B
:104F90005B68462B03D97B685B68482B07D97B6825
:104FA0005B684E2B05D97B685B68522B01D80123C7
:104FB00000E00023002B03D07B6943F480137B6166
:104FC0007B681B687A691A607B681B685B697B6118
:104FD0007B6923F007037B617B685B6A7A69134313
:104FE0007B617B685B6A042B17D17B689B6A7A695B
:104FF00013437B617B68DB6A002B0ED0786802F07C
:1050000033FB0346002B08D07B6840225A657B683F
:10501000012283F83520012397E17B681B687A69B8
:105020005A61786802F06EFA0346BB607B68DB6DFC
:1050300003F01F033F229A40BB689A60CDE07B6873
:105040001B683B4A934222D07B681B68394A9342D3
:105050001DD07B681B68384A934218D07B681B6858
:10506000364A934213D07B681B68354A93420ED070
:105070007B681B68334A934209D07B681B68324ABD
:10508000934204D07B681B68304A934201D10123CC
:1050900000E00023002B00F097807B681B68244A07
:1050A000934221D07B681B68224A93421CD07B68C4
:1050B0001B68214A934217D07B681B681F4A9342A2
:1050C00012D07B681B681E4A93420DD07B681B6818
:1050D0001C4A934208D07B681B681B4A934203D04A
:1050E0007B681B68194A93427B68022283F835204B
:1050F0007B68002283F834207B681B681B687B6117
:105100007A69134B13407B617B689B68402B21D0ED
:105110007B689B68802B02D14FF480431BE0002307
:1051200019E000BF3F8010FE0010005C0000FFFF90
:10513000085402581C54025830540258445402581F
:10514000585402586C5402588054025894540258CF
:105150000F00FEFF10237A68D268D2081A437B68DA
:105160001B69DB081A437B685B69DB081A437B68B1
:105170009B69DB081A437B68DB69DB081A437B68A1
:105180001B6A1B0913437A6913437B617B681B68A5
:105190007A691A607B681B681A466E4B13446E4A24
:1051A000A2FB03231B099A007B68DA65786802F08A
:1051B000A9F90346FB607B68DB6D03F01F03012246
:1051C0009A40FB685A6008E07B6840225A657B6819
:1051D000032283F835200123B7E07B681B685F4A10
:1051E000934272D07B681B685D4A93426DD07B68A6
:1051F0001B685C4A934268D07B681B685A4A93429A
:1052000063D07B681B68594A93425ED07B681B68F9
:10521000574A934259D07B681B68564A934254D0F0
:105220007B681B68544A93424FD07B681B68534A83
:1052300093424AD07B681B68514A934245D07B68B1
:105240001B68504A934240D07B681B684E4A934289
:105250003BD07B681B684D4A934236D07B681B6805
:105260004B4A934231D07B681B684A4A93422CD008
:105270007B681B68484A934227D07B681B68474A73
:10528000934222D07B681B68454A93421DD07B68BD
:105290001B68444A934218D07B681B68424A934279
:1052A00013D07B681B68414A93420ED07B681B6811
:1052B0003F4A934209D07B681B683E4A934204D020
:1052C0007B681B683C4A934201D1012300E0002324
:1052D000002B32D0786802F043FA7B689B68802B01
:1052E00002D17B6800225A607B685A687B681B6E1B
:1052F000D2B21A607B685B6E7A68926E5A607B6885
:105300005B68002B10D07B685B68082B0CD8786832
:1053100002F0C0FA7B68DB6E00221A607B681B6FAC
:105320007A68526F5A6008E07B680022DA667B6810
:1053300000221A677B6800225A677B6800225A6540
:105340007B68012283F83520002318461837BD46B4
:1053500080BD00BFF8ABFDA7CDCCCCCC1000024087
:105360002800024040000240580002407000024005
:1053700088000240A0000240B80002401004024031
:1053800028040240400402405804024070040240D5
:1053900088040240A0040240B804024008540258A5
:1053A0001C5402583054025844540258585402585D
:1053B0006C540258805402589454025880B586B0F8
:1053C00000AFF860B9607A603B600023FB75FB6852
:1053D000002B01D1012326E2FB6893F83430012B26
:1053E00001D102231FE2FB68012283F83420FB680D
:1053F00093F83530DBB2012B40F00A82FB680222C1
:1054000083F83520FB6800225A65FB681B68684AF0
:1054100093424AD0FB681B68664A934245D0FB68BA
:105420001B68654A934240D0FB681B68634A9342FD
:105430003BD0FB681B68624A934236D0FB681B680E
:10544000604A934231D0FB681B685F4A93422CD07C
:10545000FB681B685D4A934227D0FB681B685C4A67
:10546000934222D0FB681B685A4A93421DD0FB68C6
:105470001B68594A934218D0FB681B68574A9342ED
:1054800013D0FB681B68564A93420ED0FB681B681A
:10549000544A934209D0FB681B68534A934204D094
:1054A000FB681B68514A934208D1FB681B681A6865
:1054B000FB681B6822F001021A6007E0FB681B68AA
:1054C0001A68FB681B6822F001021A603B687A6860
:1054D000B968F86801F06AFEFB681B68344A9342B9
:1054E0004AD0FB681B68334A934245D0FB681B686F
:1054F000314A934240D0FB681B68304A93423BD00C
:10550000FB681B682E4A934236D0FB681B682D4A05
:10551000934231D0FB681B682B4A93422CD0FB6826
:105520001B682A4A934227D0FB681B68284A93428B
:1055300022D0FB681B68274A93421DD0FB681B687A
:10554000254A934218D0FB681B68244A934213D023
:10555000FB681B68224A93420ED0FB681B68214AF5
:10556000934209D0FB681B681F4A934204D0FB6832
:105570001B681E4A934201D1012300E00023002B47
:1055800036D0FB681B681B6823F01E02FB681B6893
:1055900042F016021A60FB681B6C002B3ED0FB68C1
:1055A0001B681A68FB681B6842F008021A6035E045
:1055B0001000024028000240400002405800024013
:1055C0007000024088000240A0000240B800024083
:1055D00010040240280402404004024058040240E3
:1055E0007004024088040240A0040240B804024053
:1055F000FB681B681B6823F00E02FB681B6842F007
:105600000A021A60FB681B6C002B07D0FB681B6842
:105610001A68FB681B6842F004021A60FB681B688A
:10562000834A934272D0FB681B68824A93426DD0D2
:10563000FB681B68804A934268D0FB681B687F4AFE
:10564000934263D0FB681B687D4A93425ED0FB683F
:105650001B687C4A934259D0FB681B687A4A934284
:1056600054D0FB681B68794A93424FD0FB681B6893
:10567000774A93424AD0FB681B68764A934245D0EA
:10568000FB681B68744A934240D0FB681B68734AEE
:1056900093423BD0FB681B68714A934236D0FB684B
:1056A0001B68704A934231D0FB681B686E4A934274
:1056B0002CD0FB681B686D4A934227D0FB681B689F
:1056C0006B4A934222D0FB681B686A4A93421DD002
:1056D000FB681B68684A934218D0FB681B68674ADE
:1056E000934213D0FB681B68654A93420ED0FB6857
:1056F0001B68644A934209D0FB681B68624A934264
:1057000004D0FB681B68614A934201D1012300E089
:105710000023002B1AD0FB681B6E1B6803F4803338
:10572000002B07D0FB681B6E1A68FB681B6E42F4E7
:1057300080721A60FB68DB6E002B07D0FB68DB6EA3
:105740001A68FB68DB6E42F480721A60FB681B68A3
:10575000374A93424AD0FB681B68364A934245D089
:10576000FB681B68344A934240D0FB681B68334A8D
:1057700093423BD0FB681B68314A934236D0FB68AA
:105780001B68304A934231D0FB681B682E4A934213
:105790002CD0FB681B682D4A934227D0FB681B68FE
:1057A0002B4A934222D0FB681B682A4A93421DD0A1
:1057B000FB681B68284A934218D0FB681B68274A7D
:1057C000934213D0FB681B68254A93420ED0FB68B6
:1057D0001B68244A934209D0FB681B68224A934203
:1057E00004D0FB681B68214A934208D1FB681B6800
:1057F0001A68FB681B6842F001021A6012E0FB683D
:105800001B681A68FB681B6842F001021A6009E015
:10581000FB684FF400625A65FB68002283F834206D
:105820000123FB75FB7D18461837BD4680BD00BFC0
:105830001000024028000240400002405800024090
:105840007000024088000240A0000240B800024000
:105850001004024028040240400402405804024060
:105860007004024088040240A0040240B8040240D0
:10587000085402581C5402583054025844540258D8
:10588000585402586C540258805402589454025888
:1058900080B586B000AF7860FDF732FC38617B6878
:1058A000002B01D10123DCE27B6893F83530DBB2B9
:1058B000022B08D07B6880225A657B68002283F81F
:1058C00034200123CDE27B681B68764A93424AD09C
:1058D0007B681B68744A934245D07B681B68734A97
:1058E000934240D07B681B68714A93423BD07B68EF
:1058F0001B68704A934236D07B681B686E4A93429D
:1059000031D07B681B686D4A93422CD07B681B6842
:105910006B4A934227D07B681B686A4A934222D025
:105920007B681B68684A93421DD07B681B68674A86
:10593000934218D07B681B68654A934213D07B68FA
:105940001B68644A93420ED07B681B68624A93428C
:1059500009D07B681B68614A934204D07B681B684E
:105960005F4A934201D1012300E00023002B13D0B2
:105970007B681B681A687B681B6822F01E021A602D
:105980007B681B685A697B681B6822F080025A6139
:105990007B681B687B610AE07B681B681A687B6810
:1059A0001B6822F00E021A607B681B687B617B68B3
:1059B0001B683C4A934272D07B681B683A4A934208
:1059C0006DD07B681B68394A934268D07B681B683E
:1059D000374A934263D07B681B68364A93425ED055
:1059E0007B681B68344A934259D07B681B68334AF2
:1059F000934254D07B681B68314A93424FD07B68F6
:105A00001B68304A93424AD07B681B682E4A9342F7
:105A100045D07B681B682D4A934240D07B681B6849
:105A20002B4A93423BD07B681B682A4A934236D06C
:105A30007B681B68284A934231D07B681B68274AE1
:105A400093422CD07B681B68254A934227D07B6801
:105A50001B68244A934222D07B681B68224A9342E7
:105A60001DD07B681B68214A934218D07B681B6855
:105A70001F4A934213D07B681B681E4A93420ED084
:105A80007B681B681C4A934209D07B681B681B4AD1
:105A9000934204D07B681B68194A934232D1012398
:105AA00031E000BF100002402800024040000240E8
:105AB000580002407000024088000240A0000240EE
:105AC000B800024010040240280402404004024092
:105AD000580402407004024088040240A0040240BE
