:020000040800F2
:1000000000000824BD8000088D7E0008937E000853
:10001000997E00089F7E0008A57E00080000000071
:10002000000000000000000000000000AB7E00089F
:10003000B97E000800000000C77E0008D57E0008D9
:100040000D8100080D8100080D8100080D81000858
:100050000D8100080D8100080D8100080D81000848
:100060000D8100080D8100080D8100080D81000838
:100070000D8100080D8100080D8100080D81000828
:100080000D8100080D8100080D8100080D81000818
:100090000D8100080D8100080D810008E17E000837
:1000A0000D8100080D8100080D8100080D810008F8
:1000B000F97E00080D8100080D8100080D810008FF
:1000C0000D8100080D8100080D8100080D810008D8
:1000D0000D8100080D8100080D8100080D810008C8
:1000E0000D7F00080D810008000000000D81000850
:1000F0000D8100080D8100080D8100080D810008A8
:100100000D8100080D8100080D8100080D81000897
:100110000D8100080D8100080D8100080D81000887
:100120000D8100080D8100080D8100080D81000877
:100130000D8100080D8100080D8100080D81000867
:1001400000000000000000000000000000000000AF
:100150000D8100080D8100080D8100080D81000847
:100160000D8100080D8100080D8100080D81000837
:100170000D8100080D8100080D8100080D81000827
:100180000D8100080D8100080D8100082D7F0008F9
:100190000D8100080D8100080D8100080D81000807
:1001A0000D8100080D8100080D8100080D810008F7
:1001B0000D8100080D8100080D8100080D810008E7
:1001C0000D8100080D8100080D8100080D810008D7
:1001D0000D8100080D8100080D8100080D810008C7
:1001E0000D8100080D8100080D8100080D810008B7
:1001F0000D8100080D8100080D8100080D810008A7
:100200000D8100080D8100080D8100080D81000896
:100210000D8100080D8100080D8100080D81000886
:100220000D8100080D8100080D810008000000000C
:100230000D8100080D810008000000000D810008FC
:100240000D8100080D8100080D8100080D81000856
:100250000D8100080D8100080D8100080D81000846
:100260000D8100080D8100080D8100080D81000836
:100270000D8100080D8100080D81000800000000BC
:100280000D8100080D8100080D81000800000000AC
:08029000000000000D810008D0
:1002A00010B5054C237833B9044B13B10448AFF3B0
:1002B00000800123237010BD98000024000000007E
:1002C000C8BB010808B5034B1BB103490348AFF392
:1002D000008008BD000000009C000024C8BB01088D
:1002E000034613F8012B002AFBD1181A0138704776
:1002F00001F0FF01102A2BDB10F0070F08D010F8D7
:10030000013B013A8B422DD010F0070F42B3F6D1DA
:10031000F0B441EA012141EA014122F007047FF0F3
:1003200000070023F0E80256083C85EA010586EA4A
:10033000010685FA47F5A3FA87F586FA47F6A5FA86
:1003400087F68EB9EED1F0BC01F0FF0102F0070292
:1003500032B110F8013B013A83EA010313B1F8D13D
:100360000020704701387047002D06BF354603381E
:10037000073815F0010F07D1013015F4807F02BF57
:10038000013015F4C03F0130F0BC0138704700BFA8
:1003900053B94AB9002908BF00281CBF4FF0FF31EC
:1003A0004FF0FF3000F070B9ADF1080C6DE904CEEC
:1003B00000F006F8DDF804E0DDE9022304B0704740
:1003C0002DE9F047089E0D4604460F46002B4AD102
:1003D0008A42944665D9B2FA82F343B102FA03FC29
:1003E000C3F120029F4020FA02F217439C404FEADB
:1003F0001C4E1FFA8CF5B7FBFEF1220C0EFB117799
:1004000042EA074201FB05F090420AD91CEB0202C6
:1004100001F1FF3780F01C81904240F219810239CE
:100420006244121AA4B2B2FBFEF00EFB102244EAA0
:10043000024400FB05F5A5420AD91CEB040400F1B7
:10044000FF3280F00781A54240F204816444023803
:1004500040EA0140641B00211EB1DC400023C6E9D4
:100460000043BDE8F0878B4208D9002E00F0ED80F4
:100470000021C6E900050846BDE8F087B3FA83F11C
:10048000002949D1AB4202D3824200F2F880841A9B
:1004900065EB030201201746002EE2D0C6E90047B3
:1004A000DFE702B9FFDEB2FA82F3002B40F0908062
:1004B0008A1A4FEA1C471FFA8CFE0121B2FBF7F59E
:1004C00007FB1520220C42EA00420EFB05F0904289
:1004D00008D91CEB020205F1FF3802D2904200F26B
:1004E000CB804546121AA4B2B2FBF7F007FB1022EC
:1004F00044EA02440EFB00FEA64508D91CEB0404A6
:1005000000F1FF3202D2A64500F2BB801046A4EBF8
:100510000E0440EA05409FE7C1F120078B4022FA14
:1005200007FC4CEA030C05FA01F420FA07F3FD403E
:100530004FEA1C492343B5FBF9F81FFA8CFE09FB6F
:1005400018551C0C44EA054408FB0EF5A54202FAB6
:1005500001F200FA01F00BD91CEB040408F1FF3A98
:1005600080F08880A54240F28580A8F102086444AA
:10057000641B9DB2B4FBF9F309FB134445EA044440
:1005800003FB0EFEA64508D91CEB040403F1FF355E
:100590006CD2A6456AD9023B644443EA0843A3FBF4
:1005A0000295A4EB0E04AC42C846AE4656D353D0D7
:1005B00056B1B0EB080264EB0E0404FA07F7CA4028
:1005C000CC401743C6E9007418460021BDE8F08707
:1005D000C3F1200102FA03FC20FA01F225FA01F12D
:1005E0009D402A434FEA1C471FFA8CFEB1FBF7F0EF
:1005F00007FB1015110C41EA054100FB0EF58D4279
:1006000004FA03F408D91CEB010100F1FF382FD2E2
:100610008D422DD902386144491B92B2B1FBF7F5E6
:1006200007FB151142EA014205FB0EF1914208D980
:100630001CEB020205F1FF3816D2914214D9023D9B
:100640006244521A45EA004138E73146304608E72D
:100650003946E6E61046FBE64845A9D2B9EB020862
:1006600065EB0C0E013BA3E74546EAE72B4694E712
:100670004046D1E7D0467BE7023D624432E7084678
:100680000AE76444023842E7704700BF80B500AF14
:1006900064230222A02105480AF004FE0346002B31
:1006A00001D1012300E00023184680BDC83000249A
:1006B00080B58AB004AF0346B9607A60FB81FB89DC
:1006C00003F00F039BB2C3F11003FB82FB8A7A682D
:1006D0009A4201D27B68FB82FB89DB111BB203F0DB
:1006E0000E031BB243F0A0031BB299B2FB89DBB22D
:1006F0009AB264230293FB8A0193BB68009301239F
:100700000F480AF0A1FB0346002B13D10A2007F083
:1007100091FDFB8A7A68D31A7B60FB8ABA6813441E
:10072000BB60FA89FB8A1344FB817B68002BC6D12E
:10073000012300E0002318461837BD4680BD00BFE6
:10074000C830002480B588B004AF0346B9607A6031
:10075000FB81FB89DB111BB203F00E031BB243F0DC
:10076000A0031BB299B2FB89DBB29AB27B689BB241
:10077000642002900193BB680093012306480AF0AD
:1007800077FC0346002B01D1012300E0002318462B
:100790001037BD4680BD00BFC830002490B587B07B
:1007A00000AFFFF773FF034683F00103DBB2002BBA
:1007B00001D000233BE0FF23FB7507F11703012263
:1007C00019460020FFF7BEFF034683F00103DBB2AA
:1007D000002B01D000232AE0FB7D002B23D0002337
:1007E000FB75154B3C1D0FCB84E80F003B1D102201
:1007F00019460120FFF75CFF034683F00103DBB2DB
:10080000002B01D0002312E007F117030122194643
:100810000020FFF74DFF034683F00103DBB2002BFE
:1008200001D0002303E0054B11221A800123184652
:100830001C37BD4690BD00BFE0BB0108B4000024DA
:1008400080B582B000AF7860102279680120FFF790
:1008500079FF034683F00103DBB2002B01D00023B4
:1008600000E0012318460837BD4680BD80B582B040
:1008700000AF7860102279680120FFF719FF034666
:1008800083F00103DBB2002B01D0002300E0012341
:1008900018460837BD4680BD90B585B000AF78607A
:1008A0000B467B807B68594A934240F0AB80584BA3
:1008B0001B78002B00F09D800023FB6019E0554B56
:1008C0001968FB68581C534B1A68534C0B461B01A4
:1008D0005B1A9B00034454F823104F4813461B0136
:1008E0009B1A9B00FA68134440F82310FB680133FD
:1008F000FB60FB683A2BE2DD0023BB6019E0454B4F
:100900001968BB68581C434B1A68444C0B461B01C2
:100910005B1A9B00034454F82310404813461B0104
:100920009B1A9B00BA68134440F82310BB6801333C
:10093000BB60BB683A2BE2DD364B1A6813461B01DD
:100940009B1A1B01EC33344A9918324B1A68134630
:100950001B019B1A1B01EC33304A13440A463049F1
:1009600030481AF077F82B4B1A682B4913461B01B5
:100970009B1A1B010B44EC331A68264B1B682A494F
:1009800051F823309A420EDD224B1A68214B196828
:10099000214813461B019B1A1B010344EC331B68BF
:1009A000214A42F821301B4B1A681C4913461B018F
:1009B0009B1A1B010B44EC331A68164B1B681B492E
:1009C00051F823309A420EDD124B1A68114B196808
:1009D000124813461B019B1A1B010344EC331B688E
:1009E000124A42F821304FF4006200210D481AF0FB
:1009F0005FF87B880E4A13604FF400620949034890
:100A000014F01BF800BF1437BD4690BD4C330024D2
:100A10007423002418160024C00800241C16002487
:100A2000FCBB0108B8000024E01500243C2300248E
:100A30007823002480B586B000AF786039604FF429
:100A40000062002122481AF033F83B689AB264230E
:100A50007968204811F0B6FC4FF400621C491D482B
:100A600013F0EBFF07F0DAFB786124E01A4918482D
:100A70001AF039F80346002B1DD007F0CFFB386180
:100A800000BF07F0CBFB02463B69D31AF92BF8D91C
:100A900011490F481AF027F8034603331B78FB600F
:100AA000FB68002B04DCFB68062B01DD07230BE051
:100AB000FB68DBB208E007F0B1FB02467B69D31AA2
:100AC000B3F57A6FD2D3082318461837BD4680BDD8
:100AD000B80000244C33002404BC010880B5ADF5F7
:100AE000BC6D00AF024607F5BC63A3F2D9531A7080
:100AF00040F2DC53C7F8D43507F5BC63A3F2C45306
:100B000000221A600433FB220021184619F0D0FF9E
:100B100007F5BC63A3F5B96300221A600023C7F888
:100B2000DC350023C7F8D83507F108031846FFF76E
:100B300087FE034683F00103DBB2002B01D00D23B7
:100B400096E107F5BC63A3F2D9531B78002B1DD1A6
:100B5000CA4B1A6807F5BC63A3F5BB631B6807F1B2
:100B60001C00C74919F056FF07F58E73C549184692
:100B700019F050FF07F5BC63A3F5BB631B685A1C53
:100B800007F5BC63A3F5BB631A6048E007F5BC63D7
:100B9000A3F2D9531B78012B1DD1B84B1A6807F566
:100BA000BC63A3F5BB635B6807F11C00B64919F091
:100BB00031FF07F58E73B549184619F02BFF07F57D
:100BC000BC63A3F5BB635B685A1C07F5BC63A3F564
:100BD000BB635A6023E007F5BC63A3F2D9531B78CB
:100BE000022B1CD1A54B1A6807F5BC63A3F5BB63A8
:100BF0009B6807F11C00A64919F00CFF07F58E73DE
:100C0000A449184619F006FF07F5BC63A3F5BB63BA
:100C10009B685A1C07F5BC63A3F5BB639A6007F594
:100C2000667301229C49184618F04EFA0346002BC1
:100C300001D009231CE1914B1B68184619F01FFBDA
:100C40000346C7F8D035D7F8D035002B0CD0D7F8ED
:100C5000D035082B08D007F5667300228E49184658
:100C600018F032FA0A2303E107F11C0107F5A0731B
:100C70000622184618F06EFA0346C7F8D035D7F8A2
:100C8000D035002B0CD0D7F8D035082B08D007F57D
:100C9000667300228049184618F016FA0B23E7E025
:100CA00007F58E731846FFF71BFB03461A4607F538
:100CB0008E7311461846FFF7BDFE0346C7F8D035C0
:100CC000D7F8D035012B14D007F5A073184619F0CA
:100CD000A0F907F11C03184619F0C5F907F566736A
:100CE00000226D49184618F0EFF9D7F8D035DBB27D
:100CF000BEE06A496A4819F0F6FE0346053307F17B
:100D000018026849184619F0A5FE0346002B06D0C4
:100D100007F5BC63A3F5B9631B68002B12D107F577
:100D2000A073184619F075F907F11C03184619F05D
:100D30009AF907F5667300225749184618F0C4F966
:100D40000E2395E007F06AFAC7F8D8054FF4006261
:100D50000021534819F0ACFE534B00221A604FF4A7
:100D600000624F49514813F068FE07F5BC63A3F5D4
:100D7000B9631B68D7F8DC259A425ED207F04EFAB9
:100D80000246D7F8D835D31AD7F8D4259A4212D2CA
:100D900007F5A073184619F03CF907F11C03184633
:100DA00019F061F907F5667300223B49184618F0FF
:100DB0008BF90F235CE03C4B1B68002BD5D03A4BE2
:100DC0001B68D7F8DC251344C7F8DC3507F026FA92
:100DD000C7F8D805344B1A6807F59E7307F5A0705D
:100DE0002F4918F0BAFD0346C7F8D035D7F8D035EB
:100DF000002B12D007F5A073184619F00AF907F175
:100E00001C03184619F02FF907F5667300222249D2
:100E1000184618F059F90C232AE0234B00221A60D7
:100E20004FF4006200211E4819F042FE4FF40062A8
:100E30001B491E4813F001FE97E700BF07F10803A6
:100E40001846FFF713FD034683F00103DBB2002BC6
:100E500001D00D230CE007F5A073184619F0D9F85E
:100E600007F5667300220C49184618F02DF9012386
:100E7000184607F5BC67BD4680BD00BF00000024D2
:100E800008BC01081CBC010828BC010840BC0108C2
:100E900050BC010868BC0108F833002478BC010884
:100EA000B800002480BC0108782300244C330024BF
:100EB00080B500AF4FF400620249034813F0BDFD56
:100EC00000BF80BDB80000244C3300242DE9F0435E
:100ED0009BB008AF03460A46FB711346BB716B46D5
:100EE0001E4600237B6403237B63002387F8433083
:100EF0007B6B013B3B637B6B0022984691464FF036
:100F000000024FF000034FEA491343EAD8634FEA67
:100F100048127B6B00221C4615464FF000024FF032
:100F200000036B0143EAD46362017B6B9B000733D0
:100F3000DB08DB00ADEB030D08AB03339B089B0024
:100F4000FB62002387F841300EE097F841400B2008
:100F500019F0A4FC03461A46FB6A43F8242097F8CC
:100F60004130013387F8413097F841307A6B9A422B
:100F7000EBDCFB6A1B680B226C49184619F0A0FDDC
:100F8000FB6A5B680B226A49184619F099FDFB6AF7
:100F90009B6868491A460B4603CB1060516019885C
:100FA0009B781181937205F003FA00230093732359
:100FB000A0220D21002002F05AFC002305934FF6D9
:100FC000E43304935C4A02AB92E8030083E8030035
:100FD0003C2301939523009311230B2201215748B1
:100FE00003F097FB544B002202924FF6E432019239
:100FF0005A6800921B68524A22212C2004F02CFED1
:10100000002300931823862222210D2002F02FFCBA
:10101000494B002202924FF6E43201925A68009244
:101020001B68484A2E21172004F016FE464B1B6809
:10103000591CFB79BA7907F10800019200930B461D
:10104000424A434919F0E6FC07F108031846FFF746
:1010500047F903461A4607F1080311461846FFF7F9
:10106000E9FC0346BB62BB6A012B42D007F10803CF
:10107000BA6A3849184619F0CDFC002300931823AA
:10108000862222210D2002F0F2FB2B4B002202923D
:101090004FF4784201925A6800921B682E4A22212E
:1010A0003E2004F0D9FD07F108031846FFF718F9B0
:1010B00002461346DB009B1AC3F195035B089BB203
:1010C000053398B21C4B07F10801002202924FF43D
:1010D000784201925A6800921B680A462E2104F059
:1010E000BBFD022005F0C6F80346032B00F0FB8190
:1010F000F7E7002300931823862222210D2002F017
:10110000B6FB0D4B002202924FF6E43201925A6870
:1011100000921B68114A2221252004F09DFD07F052
:101120007DF8F863002387F83B3054E084BC010865
:101130008CBC010898BC010820000024A4BC010854
:10114000B4BC0108C0BC010804000024D4BC0108E0
:10115000ECBC0108F8BC010804BD01080CBD010885
:1011600007F05CF80246FB6BD31AB3F57A7F32D9ED
:1011700097F83B20FB799A422DD097F83B3001330A
:1011800087F83B3097F83B20FB7907F108009A4934
:1011900019F040FC07F108031846FFF7A1F80246D2
:1011A0001346DB009B1AC3F195035B089BB2053322
:1011B00098B2924B07F10801002202924FF6E432F6
:1011C00001925A6800921B680A462E2104F044FDE1
:1011D00007F024F8F86397F83B20FB799A42BFD3D5
:1011E000002305934FF6E4330493844A02AB92E85C
:1011F000030083E803003C2301939523009311230C
:101200000B2200217E4803F084FA7C4B00220292DC
:101210004FF6E43201925A6800921B68794A222103
:10122000412004F019FD002305934FF6E4330493A5
:10123000724A02AB92E8030083E80300792301932A
:10124000952300933F230B2201216F4803F061FA9D
:10125000052005F00FF80346012B09D17B6C013303
:101260007A6B93FBF2F2796B01FB02F29B1A7B64BF
:10127000012004F0FFFF0346012B0ED17B6C013BE4
:101280007A6B93FBF2F2796B01FB02F29B1A7B649F
:101290007B6C002B01DA7B6B7B64032004F0EAFF9C
:1012A0000346012B13D1FB6A7A6C53F822301B786A
:1012B000762B06D1FB6A7A6C53F822301B78782B98
:1012C00005D07B6C87F84230012387F84330022039
:1012D00004F0D0FF0346032B00F0FB807B6B9CB235
:1012E000002306934FF6E4330593444A03AB92E898
:1012F000030083E803007B6C0293752301937F2333
:10130000009351230D222146F86A03F073F897F8F1
:10131000433083F00103DBB2002B40F0D880FB6A3E
:101320007A6C53F822301B78762B00F0D0800023A3
:1013300005934FF6E4330493304A02AB92E803007E
:1013400083E803003C2301939523009311230B2290
:1013500001212B4803F0DDF9284B002202924FF6C1
:10136000E43201925A6800921B68284A22212920FF
:1013700004F072FC97F842301846FFF7AFFB0346C3
:10138000BB62002305934FF6E43304931B4A02AB80
:1013900092E8030083E803003C2301939523009324
:1013A00011230B220021164803F0B3F9134B00223E
:1013B00002924FF6E43201925A6800921B68114A79
:1013C0002221412004F048FCBB6A0E2B22D1FB6A8B
:1013D0007A6C53F8223078221A70084B002202925D
:1013E0004FF6E43201925A6800921B68084A2E2197
:1013F000102004F031FC66E01CBD01082000002430
:10140000A4BC010830BD010838BD010848BD010871
:1014100054BD0108BB6A012B41D007F10803BA6A29
:101420003349184619F0F6FA002300931823862250
:1014300022210D2002F01BFA2E4B002202924FF4C3
:10144000784201925A6800921B682B4A22213E2062
:1014500004F002FC07F108031846FEF741FF0246BC
:101460001346DB009B1AC3F195035B089BB205335F
:1014700098B2204B07F10801002202924FF4784203
:1014800001925A6800921B680A462E2104F0E4FB80
:10149000022004F0EFFE0346032B23D0F8E7FB6A9B
:1014A0007A6C53F8223076221A70124B0022029284
:1014B0004FF6E43201925A6800921B680F4A2E21BF
:1014C000222004F0C9FB002387F84330C0E600BFA8
:1014D000BEE600BF4FF400620021094819F0E8FAA7
:1014E000B54601E000BFB5464C37BD46BDE8F083C8
:1014F00068BD01082000002404BD010878BD010872
:10150000B800002480B594B006AF786004F050FFB6
:10151000002300937323A0220D21002002F0A7F9DD
:10152000002305934FF6E4330493B84A02AB92E8E4
:10153000030083E803003C230193952300931123C8
:101540000B220121B24803F0E4F8B04B00220292D2
:101550004FF6E43201925A6800921B68AD4A22218C
:101560002C2004F079FB7B68B3F1FF3F08D07B6847
:10157000092B40F393817B68B3F5967F00F38E814E
:10158000A54B1B68B3F1FF3F00F08881A24B1B689D
:101590005A1C07F10C007B68009313469F4AA04930
:1015A00019F038FA07F10C031846FEF799FE0346C6
:1015B0001A4607F10C0311461846FFF73BFA03469B
:1015C000FB62FB6A012B2BD0002300931823862299
:1015D00022210D2002F04BF98C4B002202924FF495
:1015E000784201925A6800921B688E4A22213E205E
:1015F00004F032FB854B002202924FF478420192B4
:101600005A6800921B68884A2E21252004F024FB8A
:10161000022004F02FFE0346032B00F04181F7E780
:10162000002300931823862222210D2002F01FF9A7
:10163000764B002202924FF6E43201925A680092F1
:101640001B687A4A2221302004F006FB06F0E6FDF2
:101650007863002387F833307B68B3F1FF3F40F0B5
:101660008E806A4B002202924FF6E43201925A6851
:1016700000921B686E4A2E211B2004F0EDFA4FF6F3
:10168000E4330193042300930E233E227221312080
:1016900002F0BCFC5D4B4FF6E43202920022019254
:1016A0005A6800921B68634A7521422004F0D4FAFC
:1016B000032004F0DFFD0346012B00D0F8E700BF54
:1016C00000230193042300930E233E227221312034
:1016D00002F09CFC4FF6E4330193042300930E23A5
:1016E0003E227221312002F0C3FB484B00220292BD
:1016F0004FF6E43201925A6800921B684D4A7521F8
:10170000422004F0A9FA43E006F088FD02467B6B14
:10171000D31AB3F57A7F32D997F833307A689A4280
:101720002DD097F83330013387F8333097F83320D2
:1017300007F10C007B68404919F06CF907F10C03C4
:101740001846FEF7CDFD02461346DB009B1AC3F197
:1017500095035B089BB2053398B22C4B07F10C0143
:10176000002202924FF6E43201925A6800921B68FE
:101770000A462E2104F070FA06F050FD786397F8BF
:1017800033307A689A4203DD7B68B3F1FF3FBBD107
:1017900007F10C03294A2A49184619F03BF907F1C9
:1017A0000C031846FEF79CFD03461A4607F10C038E
:1017B00011461846FFF73EF90346FB62FB6A012B10
:1017C00042D0002300931823862222210D2002F00C
:1017D0004EF80E4B002202924FF4784201925A6862
:1017E00000921B680F4A22213E2004F035FA074B75
:1017F000002202924FF4784201925A6800921B68CC
:10180000104A2E21292004F027FA40E0200000246D
:10181000A4BC0108B4BC01080400002488BD010870
:10182000A4BD010804BD0108ACBD0108BCBD010890
:10183000C8BD0108D8BD01081CBD0108E0BD0108F4
:10184000F8BD0108FCBD0108002305934FF6E43301
:101850000493164A02AB92E8030083E803003C239A
:1018600001939523009311230B220021104802F0CD
:1018700050FF0E4B002202924FF6E43201925A685A
:1018800000921B680B4A2221412004F0E5F9022056
:1018900004F0F0FC0346032B04D0F8E700BF02E09D
:1018A00000BF00E000BF3837BD4680BD20000024E7
:1018B000A4BC010830BD010880B594B006AF7860C3
:1018C00004F076FD002300937323A0220D21002055
:1018D00001F0CDFF002305934FF6E4330493B34AA0
:1018E00002AB92E8030083E803003C2301939523B5
:1018F000009311230B220121AD4802F00AFFAB4BEC
:10190000002202924FF6E43201925A6800921B685C
:10191000A84A22212C2004F09FF97B68B3F1FF3FF5
:1019200008D07B68092B40F387817B68B3F5967FED
:1019300000F3828107F10C007B689F4A9F4919F0F0
:1019400069F807F10C031846FEF7CAFC03461A466D
:1019500007F10C0311461846FFF76CF80346FB62CB
:10196000FB6A012B2BD0002300931823862222210F
:101970000D2001F07CFF8D4B002202924FF4784243
:1019800001925A6800921B688D4A22213E2004F081
:1019900063F9864B002202924FF4784201925A6812
:1019A00000921B68874A2E21252004F055F9022059
:1019B00004F060FC0346032B00F04081F7E70023AE
:1019C00000931823862222210D2001F050FF774B2F
:1019D000002202924FF6E43201925A6800921B688C
:1019E000794A2221302004F037F906F017FC786399
:1019F000002387F833307B68B3F1FF3F40F08E80DF
:101A00006A4B002202924FF6E43201925A68009229
:101A10001B686E4A2E211B2004F01EF94FF6E4339A
:101A20000193042300930E233E227221312002F001
:101A3000EDFA5E4B4FF6E4320292002201925A68B0
:101A400000921B68624A7521422004F005F90320C8
:101A500004F010FC0346012B00D0F8E700BF002380
:101A60000193042300930E233E227221312002F0C1
:101A7000CDFA4FF6E4330193042300930E233E2264
:101A80007221312002F0F4F9484B002202924FF605
:101A9000E43201925A6800921B684D4A7521422037
:101AA00004F0DAF843E006F0B9FB02467B6BD31A88
:101AB000B3F57A7F32D997F833307A689A422DD0CD
:101AC00097F83330013387F8333097F8332007F134
:101AD0000C007B683F4918F09DFF07F10C03184686
:101AE000FEF7FEFB02461346DB009B1AC3F195038B
:101AF0005B089BB2053398B22C4B07F10C01002216
:101B000002924FF6E43201925A6800921B680A462C
:101B10002E2104F0A1F806F081FB786397F83330AA
:101B20007A689A4203DD7B68B3F1FF3FBBD107F1CE
:101B30000C03294A2949184618F06CFF07F10C03D9
:101B40001846FEF7CDFB03461A4607F10C03114673
:101B50001846FEF76FFF0346FB62FB6A012B41D07C
:101B6000002300931823862222210D2001F07FFEFE
:101B70000E4B002202924FF4784201925A68009272
:101B80001B680F4A22213E2004F066F8074B002212
:101B900002924FF4784201925A6800921B68104AF0
:101BA0002E21292004F058F83FE000BF2000002437
:101BB000A4BC0108B4BC010808BE010824BE010889
:101BC00004BD0108ACBD01082CBE0108C8BD010858
:101BD000D8BD01081CBD0108E0BD0108F8BD010821
:101BE000FCBD0108002305934FF6E4330493164A25
:101BF00002AB92E8030083E803003C2301939523A2
:101C0000009311230B220021104802F082FD0E4B9D
:101C1000002202924FF6E43201925A6800921B6849
:101C20000B4A2221412004F017F8022004F022FB85
:101C30000346032B04D0F8E700BF02E000BF00E03A
:101C400000BF3837BD4680BD20000024A4BC010879
:101C500030BD010890B59DB008AFA34A07F12C0331
:101C600007CA83E80700A14A07F1240392E80300AA
:101C700083E803009E4A07F1180307CA83E80700B8
:101C80000023FB64142018F009FE03461A46994B02
:101C90001A60142018F002FE03461A46954B5A604B
:101CA000002387F84B30012387F84A30012387F857
:101CB0004930012387F84830012387F84730012352
:101CC00087F84630002002F07BFB8B4A4FF6E43366
:101CD0000093002306CA894802F062FE04F068FB04
:101CE00000233B64022004F0C5FA034687F83F3026
:101CF000042004F0BFFA034687F83E30032004F0C6
:101D0000B9FA034687F83D30012004F0B3FA0346E0
:101D100087F83C30052004F0ADFA034687F83B30E5
:101D200097F83F30012B17D1FB6C002B14D1744B6B
:101D30001B680133734A126893FBF2F101FB02F254
:101D40009B1A6F4A1360012387F84A30012387F8F2
:101D50004830012387F8463097F83E30012B20D1D8
:101D6000FB6C002B1DD1664B1B68013B654A12685A
:101D700093FBF2F101FB02F29B1A614A1360604B84
:101D80001B68002B04DA5F4B1B68013B5C4A136045
:101D9000012387F84A30012387F84830012387F868
:101DA000463097F83F30012B1CD1FB6C012B19D129
:101DB000534B1B68544A52F823305A1C504B1B6833
:101DC0009B0050333B4453F8383C4D49096892FB23
:101DD000F3F000FB03F3D31A4B4A42F821300123FE
:101DE00087F8483097F83E30012B30D1FB6C012B3F
:101DF0002DD1434B1B68444A52F823305A1E404BA6
:101E00001B689B0050333B4453F8383C3C490968FD
:101E100092FBF3F000FB03F3D31A3B4A42F8213064
:101E2000374B1B68384A52F82330002B0CDA344BFE
:101E30001B689B0050333B4453F8382C304B1B68D5
:101E4000013A314941F82320012387F8483097F8B7
:101E50003B30012B2CD12D4B1B68B3F1FF3F0CD134
:101E6000274B1B68012B08D0FB6C0133002B03F0C0
:101E70000103B8BF5B42FB640BE0FB6C5A1C244BB4
:101E800083FB0231D317C91A0B465B000B44D31AEC
:101E9000FB64012387F84A30012387F84930012386
:101EA00087F84830012387F84730012387F8463008
:101EB00097F83C30012B4DD1144B1B68B3F1FF3F19
:101EC00028D10F4B1B68012B24D0FB6C013B002B4E
:101ED00003F00103B8BF5B42FB64FB6C002B2ADA02
:101EE0000123FB6427E000BFD4BE0108ECBE01085B
:101EF000F4BE01087C2300242000002438BE010821
:101F00008423002418C2010888230024040000242C
:101F100056555555FB6C5A1E584B83FB0231D3174F
:101F2000C91A0B465B000B44D31AFB64FB6C002BF5
:101F300001DA0223FB64012387F84A30012387F882
:101F40004930012387F84830012387F847300123BF
:101F500087F8463097F83D30012B05D1FB6C022BFA
:101F600002D1012387F84B3097F83F30012B0AD07C
:101F700097F83F30042B4BD106F050F902463B6CEA
:101F8000D31A642B44D9FB6C012B41D13C4B1B6809
:101F90003C4A52F82330002B3AD1394B1B68022BB4
:101FA00017D0394B1B68B3F1FF3F03D1364B0A22E0
:101FB0001A6004E0344B1B680A33334A1360324B17
:101FC0001B68B3F5967F1DDD2F4B4FF0FF321A6073
:101FD00018E02E4B1B6803F10A022D4B83FB021302
:101FE0001344D911D317C91A0B461B015B1A1B01E5
:101FF000D11A264B1960254B1B68092B02DC234B99
:102000000A221A60012387F8483006F007F938647D
:1020100097F83E30012B0AD097F83E30042B58D168
:1020200006F0FCF802463B6CD31A642B51D9FB6CCA
:10203000012B4ED1124B1B68124A52F82330002B51
:1020400047D10F4B1B68022B24D00F4B1B68B3F1F9
:10205000FF3F04D10C4B4FF496721A6004E00A4B18
:102060001B680A3B084A1360074B1B68092B2ADCD4
:10207000054B4FF0FF321A6025E000BF565555550D
:102080008423002488230024080000240C0000245A
:1020900089888888AA4B1B68A3F10A02A94B83FB95
:1020A00002131344D911D317C91A0B461B015B1A2B
:1020B0001B01D11AA24B1960A14B1B68092B02DC32
:1020C0009F4BF0221A60012387F8483006F0A6F8EB
:1020D000386497F83F30012B16D1FB6C012B13D1DC
:1020E000994B1B68994A52F82330012B0CD1984B1D
:1020F0001B680133002B03F00103B8BF5B42944A15
:102100001360012387F8483097F83E30012B1DD12A
:10211000FB6C012B1AD18C4B1B688C4A52F8233074
:10212000012B13D18A4B1B68013B002B03F00103E9
:10213000B8BF5B42864A1360854B1B68002B02DAEE
:10214000834B01221A60012387F8483097F83F300B
:10215000032B00F0248297F84930002B1DD0FB6C34
:10216000002B0CBF01230023DCB2002305934FF6A4
:10217000E4330493774A02AB92E8030083E8030058
:10218000302301939523009311230B22214672489B
:1021900002F0BFFA002387F8493097F84730002B48
:1021A0001DD0FB6C012B0CBF01230023DCB20023EC
:1021B00005934FF6E4330493664A02AB92E80300BA
:1021C00083E803006C2301939523009333230B22B0
:1021D0002146624802F09DFA002387F8473097F8BD
:1021E0004A30002B3DD0002300930A23862222216F
:1021F0000D2001F03CFB544B1B689B0050333B44CB
:1022000053F8243C1846FEF76BF802461346DB00F1
:102210009B1AC3F195035B089BB2053398B24A4BF6
:102220001B689B0050333B4453F8244CFB6C002B41
:1022300001D1002201E04FF6E432FB6C002B02D109
:102240004FF6E43100E00021424B029101925A68BE
:1022500000921B682246222103F0FEFC002387F82F
:102260004A3097F84830002B00F0FF80002300939D
:102270002423862245210D2001F0F9FA384B1B68F2
:10228000B3F1FF3F19D1304B1B68012B15D0314BF7
:10229000002202924FF4784201925A6800921B6821
:1022A000304A45210D2003F0D7FC4FF6E433882255
:1022B00050210C2001F0D4FB35E0234B1B68012B8F
:1022C00031D000237B6007F1080300221A605A60B6
:1022D0009A60C3F80B203B1D2349184618F09AFB5F
:1022E0003B1D0633214A11681D4A126892000A44B8
:1022F00011680C22184618F0E3FB164B391D00221A
:1023000002924FF6E43201925A6800921B680A4624
:1023100045210D2003F0A0FC4FF6E4338822502124
:102320000C2001F09DFB084B1B68022B24D1104BA5
:102330001B68034A12680F49184618F06BFB2FE020
:102340000C000024898888888423002488230024A2
:10235000942300242000002448BE010850BE010838
:102360000400002460BE010874BE0108B8080024FF
:102370007C2300247CBE01088C4B1B68B3F1FF3F1B
:1023800008D08B4B1B68894A12688A49184618F096
:1023900041FB05E0864B1B688749184618F03AFB5D
:1023A000834B5868854B1B689B0050333B4453F864
:1023B0002C3C1A46824918F02DFB824B1B68012BDE
:1023C00028D1804B1B689B0050333B4453F8383C6A
:1023D0009CB2FB6C012B05D17A4B1B687A4A52F8F0
:1023E000233001E04FF0FF33002206924FF6E43233
:1023F0000592764903AA03C982E8030002935D238C
:1024000001937F23009345230D222146684801F064
:10241000F1FF27E06B4B1B689B0050333B4453F8A4
:10242000383C9CB2FB6C012B05D1664B1B68664A9D
:1024300052F8233001E04FF0FF33002206924FF6AE
:10244000E4320592614903AA03C982E803000293BA
:102450006A2301937F23009352230D22214654487F
:1024600001F0C8FF002387F8483097F84630002B6A
:102470004ED000230193042300930E233E227221A9
:10248000312001F0C3FD524B1B68B3F1FF3F03D174
:102490004C4B1B68012B1CD1FB6C022B19D04FF647
:1024A000E4330193042300930E233E227221312052
:1024B00001F0DEFC454B002202924FF6E43201921D
:1024C0005A6800921B68434A75213E2003F0C4FB02
:1024D0001BE0FB6C022B18D14FF6E433019304236D
:1024E00000930E233E227221312001F08FFD374BE5
:1024F0004FF6E4320292002201925A6800921B6861
:10250000344A75213E2003F0A7FB002387F84630AC
:1025100097F84B30002B3FF4E5AB2A4B1B68002BA0
:1025200005D1224B1B681846FEF7ECFF19E0254B3E
:102530001B68012B05D11D4B1B681846FFF7BCF922
:102540000FE0204B1B68022B0BD1234B1B68DAB228
:102550001A4B1B68DBB20133DBB219461046FEF79B
:10256000B5FC03F025FF002300937323A0220D2167
:10257000002001F07CF9002387F84B30012387F815
:102580004A30012387F84930012387F84830012376
:1025900087F84730012387F84630FFF7A3BB00BF19
:1025A00003F006FF00BF5437BD4690BD080000246D
:1025B0007C2300247CBE01088CBE010894230024E7
:1025C0009CBE0108842300248823002420000024CA
:1025D00004000024A8BE01080C00002490B587B0B8
:1025E00000AF0C214848FEF725FA0346012B01D025
:1025F000002384E000237B610BE0444B1A687B6975
:102600009B0013441B68184618F050F97B6901338E
:102610007B613F4B1B687A699A42EEDB3B4B1B6840
:10262000184618F043F9394B00221A6039493A48E4
:1026300018F059FA03460533354A3849184618F058
:1026400009FA0346002B01D1002358E0304B1B68E8
:102650009B00184618F022F903461A462B4B1A60C5
:102660002D4B3B610023BB6043E00023FB732C49EF
:10267000386918F038FA034606333B613B693B6022
:1026800000237B600BE07B683A6913441B780A2BBC
:1026900009D0FB7B0133FB737B6801337B607B6874
:1026A000132BF0DD00E000BFFB7B01331946174B15
:1026B0001A68BB689B00D418084618F0EFF8034668
:1026C0002360124B1A68BB689B0013441A68FB7B9B
:1026D000134400221A700D4B1A68BB689B00134408
:1026E0001B68FA7B3968184618F0EAF9BB680133B1
:1026F000BB60074B1B68BA689A42B6DB01231846D9
:102700001C37BD4690BD00BF00BF0108B8080024BB
:10271000BC08002404BC0108B800002410BF010854
:1027200014BF0108B0B58AB008AF03F041FE002322
:102730007B60002001F044FEA34B002202924FF682
:10274000E43201925A6800921B68A04A00213020AE
:1027500003F082FA4FF6E43300936323A0221D2195
:10276000002001F044FB4FF6E43300934A23A022FB
:102770001D21002001F03BFB022003F07BFD0346FE
:10278000FB70032003F076FD0346BB70012003F0CD
:1027900071FD03467B70052003F06CFD03463B7022
:1027A0003B78032B02D07B78032B09D1884B1B6825
:1027B0000133002B03F00103B8BF5B42844A13606E
:1027C0003B78012B0AD03B78042B16D105F026FD6F
:1027D00002467B68D31AB3F5C87F0ED97D4B1B68C0
:1027E00001337D4A126893FBF2F101FB02F29B1A5E
:1027F000784A136005F012FD78607B78012B0AD0CF
:102800007B78042B1ED105F009FD02467B68D31AA4
:10281000B3F5C87F16D96F4B1B68013B6E4A12682F
:1028200093FBF2F101FB02F29B1A6A4A1360694BB7
:102830001B68002B03DA684B1B68664A136005F0BF
:10284000EDFC7860BB78012B5CD1614B1B68002BE1
:1028500029D00023009348239E221E21012001F04D
:1028600006F85E4B002202924FF6E43201925A685B
:1028700000921B685A4A3C21282003F0EDF9FFF72B
:10288000ADFE584B1B68544A1360544B0022029211
:10289000002201925A6800921B68514A3C2128206C
:1028A00003F0DAF92EE04B4B1A684F4B1B689A4243
:1028B0001FD04E4B1A68474B1B689B0013441B6884
:1028C0003E221A70434B1B68474A1360484B1B68F3
:1028D000B3F1FF3F08D0454B1A68454B1B689B007E
:1028E00013441B6820221A703A4B1B68404A13603D
:1028F00008E03E4B1A68374B1B689B0013441B686B
:1029000020221A70FB78032B57D0364B1B68002B04
:102910000ED1324B002202924FF6E43201925A68F5
:1029200000921B68334A3C212B2003F095F922E0EA
:102930002E4B1C68284B1B689DB2254B1B68002B37
:1029400002D1244B1B6801E04FF0FF3300220692B6
:102950004FF6E4320592214903AA03C982E8030035
:102960000293682301939F2300931E23012229468B
:10297000204601F03FFD164B1B68002B0ED0174B75
:102980004FF6E4320292002201925A6800921B68CC
:10299000194A6821012003F05FF9EDE60F4B002290
:1029A00002924FF6E43201925A6800921B68124A72
:1029B0006821012003F050F9DEE600BF03F0F8FCC7
:1029C00000BF0837BD46B0BD300000241CBF010861
:1029D00010000024982300249C23002420000024BD
:1029E00024BF0108BC08002404000024B808002407
:1029F0001400002434BF010844BF010890B595B00D
:102A000004AF1A23BB6214237B6250233B62022370
:102A1000FB610023FB63394B1B680133384A1360A9
:102A200000233B603B1D00221A605A609A60DA6006
:102A30001A611A7503F0BCFC002001F0C1FC304B98
:102A40001B6838463E2200922E4A2F4917F0E2FFBB
:102A50002E4B3946002202924FF6E43201925A6818
:102A600000921B680A467821322003F0F5F8274BC4
:102A7000002202924FF6E43201925A6800921B68DB
:102A8000234A0121002003F0E7F8204B00220292A4
:102A90004FF4784201925A6800921B681D4A012146
:102AA0005F2003F0D9F8BB6A18B27B6A19B24FF6FF
:102AB000E433009352237A2201F099F90023BB6397
:102AC00062E0BB6A9AB2BB6B9BB213449BB2013308
:102AD0009BB218B27B6A9BB252339BB219B24FF6CB
:102AE000E433032200F097FFBB6B782B18D13B46F1
:102AF000094A0A49184617F08DFF1DE018160024F0
:102B0000A02300244CBF010858BF0108180000246E
:102B100064BF010878BF010884BF0108F8BD01083F
:102B2000BB6B783B002B00DA01335B101A4638464A
:102B30007323A74917F06EFFBB6A9AB2BB6B9BB2B7
:102B400013449CB23B461846FDF7CAFB02461346A7
:102B50009B0013445B089BB2E31A9BB2013398B20B
:102B60007B6A9BB2563399B29A4B3C460022029242
:102B70004FF6E43201925A6800921B68224603F035
:102B80006BF8BB6B1E33BB63BB6B782B99DDBB6AE9
:102B90009BB2033B9BB218B27B6A9BB201339BB2E0
:102BA00019B24FF6E433032200F05AFFBB6A9BB21E
:102BB000033B9BB218B27B6A9AB23B6A002B00DAE5
:102BC00001335B109BB213449BB201339BB219B229
:102BD0004FF6E433032200F043FFBB6A9BB2033B92
:102BE0009BB218B27B6A9AB23B6A9BB213449BB207
:102BF00019B24FF6E433032200F032FF3B46FA6984
:102C00007549184617F006FFBB6A9BB2133B98B292
:102C10007B6A9AB23B6A9BB213449BB20E3B99B259
:102C20006C4B3C46002202924FF6E43201925A6805
:102C300000921B68224603F00FF8BB6A9BB2133B5D
:102C400098B27B6A9AB23B6A9BB213449BB2063B32
:102C500099B2604B002202924FF6E43201925A6818
:102C600000921B685D4A02F0F7FF3B6AFA6903FBBA
:102C700002F23B465849184617F0CCFEBB6A9BB29D
:102C8000133B98B27B6A9BB2013399B2514B3C46DD
:102C9000002202924FF6E43201925A6800921B68B9
:102CA000224602F0D9FFBB6A9BB2133B98B27B6A03
:102CB0009BB2093399B2474B002202924FF6E4329D
:102CC00001925A6800921B68444A02F0C5FF3B6AB1
:102CD000FA6902FB03F3002B00DA01335B101A469A
:102CE0003B463D49184617F095FEBB6A9BB2133B25
:102CF00098B23B6A002B00DA01335B109AB27B6A10
:102D00009BB213449BB2073B99B2324B3C46002224
:102D100002924FF6E43201925A6800921B682246F2
:102D200002F09AFFBB6A9BB2133B98B23B6A002B3E
:102D300000DA01335B109AB27B6A9BB2134499B2FA
:102D4000244B002202924FF6E43201925A6800921C
:102D50001B68224A02F080FF214B1B680133384672
:102D6000204A214917F056FE3B461846FDF7B8FAAF
:102D700003461A463B4611461846FDF75BFE1B4BC1
:102D800001221A70022003F075FA0346012B43D189
:102D9000174B1B685A1C174B83FB02131344D910A3
:102DA000D317C91A0B461B015B1AD11A104B1960B5
:102DB000084B002202924FF6E43201925A680092C8
:102DC0001B680D4A7821322002F046FF16E000BF52
:102DD00088BF01081800002410BF010890BF010837
:102DE0001816002494BF010824BE0108742300248F
:102DF000A023002489888888ACBF01087C4B4FF64B
:102E0000E4320292002201925A6800921B68794AC9
:102E10007821692002F020FF042003F02BFA0346FA
:102E2000012B32D1744B1B685A1E744B83FB021367
:102E30001344D910D317C91A0B461B015B1AD11AB8
:102E40006D4B19606C4B1B68002B02DC6A4B0E2229
:102E50001A60674B4FF6E4320292002201925A68E0
:102E600000921B68664A7821322002F0F5FE604B22
:102E7000002202924FF6E43201925A6800921B68D7
:102E80005C4A7821692002F0E7FE032003F0F2F9A2
:102E90000346012B39D1584B1B68013B594A13603B
:102EA000594B00221A70574B1B6801333846574A5A
:102EB000574917F0AFFD3B461846FDF711FA034698
:102EC0001A463B4611461846FDF7B4FD4FF4006222
:102ED0000021504817F0ECFD4B4B01221A704FF4C3
:102EE00000624C494C4811F0A8FDBB6A9BB201330B
:102EF0009BB218B27B6A9BB201339BB219B200231A
:102F000000935023782200F0B2FC05F087F90246C6
:102F1000FB6BD31AB3F57A7F40F2A78105F07EF9F7
:102F2000F86300237B6300233B630023FB6238E1EB
:102F3000344B1A68394913461B019B1A9B00FA6AE5
:102F4000134451F82330002B40F327812D4B1A688E
:102F5000324913461B019B1A9B00FA6A134451F82D
:102F60002330002B10DD274B1A682C4913461B0118
:102F70009B1A9B00FA6A134451F82330FA699A426B
:102F800002DBFB697B630EE01E4B1A682349134684
:102F90001B019B1A9B00FA6A134451F82320FB691A
:102FA00092FBF3F37B637A6B3B6A9A4201DD3B6AE7
:102FB0007B63144B1A681A4913461B019B1A9B002A
:102FC000FA6A134451F82330002B2BDD0D4B1A689D
:102FD000134913461B019B1A9B00FA6A134451F8CC
:102FE0002330FA699A421DDBFB693B6329E000BF8D
:102FF00018000024B0BF0108A02300248988888815
:10300000ACBF0108181600247423002494BF0108E3
:1030100024BE0108B80000244C330024C00800245A
:103020001C1600249B4B1A689B4913461B019B1AD4
:103030009B00FA6A134451F82320FB6992FBF3F3D7
:103040003B637A6B3B6A9A4201DD3B6A7B63BB6AF6
:103050009AB2FB6A9BB25B009BB213449BB20133F2
:103060009BB218B27B6A9BB201339BB219B23B6A26
:103070001AB2002300F0CFFCBB6A9AB2FB6A9BB283
:103080005B009BB213449BB202339BB218B27B6AC3
:103090009BB201339BB219B23B6A1AB2002300F013
:1030A000BAFCBB6A9AB2FB6A9BB25B009BB2134448
:1030B0009BB201339BB218B27B6A9AB23B6A9BB255
:1030C00013449AB27B6B9BB2D31A9BB201339BB26F
:1030D00019B27B6B1AB24FF6E43300F09CFCBB6A6A
:1030E0009AB2FB6A9BB25B009BB213449BB2023361
:1030F0009BB218B27B6A9AB23B6A9BB213449AB2F3
:103100007B6B9BB2D31A9BB201339BB219B27B6B20
:103110001AB24FF6E43300F07EFC3B6B002B3DDD32
:10312000BB6A9AB2FB6A9BB25B009BB213449BB230
:1031300001339BB218B27B6A9AB23B6A9BB21344CA
:103140009AB23B6B9BB2D31A9BB201339BB219B2BA
:103150003B6B1AB24FF4784300F05DFCBB6A9AB245
:10316000FB6A9BB25B009BB213449BB202339BB2DF
:1031700018B27B6A9AB23B6A9BB213449AB23B6B19
:103180009BB2D31A9BB201339BB219B23B6B1AB2FA
:103190004FF4784300F03FFC00E000BFFB6A0133CE
:1031A000FB62FB6A3B2B7FF7C3AE3C4B1B68384688
:1031B0003B4A3C4917F02EFC3B4B39460022029219
:1031C0004FF6E43201925A6800921B680A46782151
:1031D000372002F041FD2F4B1B68591C2D4B1A68FC
:1031E000324813461B019B1A1B010344EC331A6837
:1031F000284B1B682E4850F823303846009313465E
:103200000A462C4917F006FC274B39460022029249
:103210004FF6E43201925A6800921B680A46012177
:10322000002002F019FD1B4B1A681B4913461B01B5
:103230009B1A1B010B44EC331A68164B1B681E4982
:1032400051F8233038461D4917F0E4FB164B394638
:10325000002202924FF4784201925A6800921B6851
:103260000A4601215F2002F0F7FC022003F002F879
:103270000346032B7FF486AD14211148FDF7DAFBDA
:10328000104B00221A7000BF03F092F800BF4437C1
:10329000BD4690BD181600241C160024A02300244F
:1032A000B4BF0108C0BF010818000024C0080024F2
:1032B000E0150024C8BF01083C230024E0BF01083A
:1032C000E0BD01087423002480B5D8B006AF002308
:1032D00087F84731002387F84631002387F84531C6
:1032E000002387F844310023A7F842310023C7F8B0
:1032F000183107F58E7300221A605A609A60DA60FE
:103300001A615A611A8307F5A473A3F59873002212
:103310001A600433FB220021184617F0C9FB4FF452
:103320000E7017F0BBFA0346C7F83C314FF4167025
:1033300017F0B4FA0346C7F838313B1D1846FDF7BD
:103340007FFA03F035F8002300937323A0220D21A8
:10335000002000F08CFA002305934FF6E433049329
:10336000B84A02AB92E8030083E8030064230193A8
:103370009523009311230B220121B34801F0C9F9D1
:10338000B04B002202924FF6E43201925A6800924A
:103390001B68AE4A22212C2002F05EFCAC49AD48ED
:1033A00017F060F90122AA49D7F83C0115F08CFE0C
:1033B000034687F8473197F84731002B0BD101239B
:1033C00087F84531A44B1B68184616F058FF034692
:1033D00087F847310AE0012387F8463197F84721FB
:1033E00007F58C739D49184617F014FB97F8473181
:1033F000002B03D097F84731082B1ED197F84631A0
:1034000083F00103DBB2002B17D0934B1A6807F54A
:10341000A473A3F5A273DB6807F11800904917F0B5
:10342000F9FA07F1180306221946D7F8380115F002
:1034300091FE034687F8473111E097F8463183F053
:103440000103DBB2002B0AD0012387F8463197F83D
:10345000472107F58C738349184617F0DBFA97F874
:103460004731002B11D197F8463183F00103DBB2CD
:10347000002B0AD0012387F844310F217A48FDF749
:10348000D9FA034687F8473111E097F8463183F0BF
:103490000103DBB2002B0AD0012387F8463197F8ED
:1034A000472107F58C737149184617F0B3FA97F85E
:1034B0004731012B4AD197F8463183F00103DBB243
:1034C000002B43D04FF400620021694817F0F0FA56
:1034D000684B00221A604FF400626549664811F09B
:1034E000ACFA584B002202924FF6E43201925A682D
:1034F00000921B68614A2221222002F0ADFB514B51
:10350000002202924FF6E43201925A6800921B6840
:103510005B4A3A210F2002F09FFBB7F8422107F5E2
:103520008C735849184617F075FA464B07F58C719D
:10353000002202924FF6E43201925A6800921B6810
:103540000A462E210F2002F087FB11E097F8463142
:1035500083F00103DBB2002B0AD0012387F8463148
:1035600097F8472107F58C734749184617F052FA28
:1035700097F84631002B00F0F18007F58C73184660
:10358000FCF7AEFE02461346DB009B1AC3F195031F
:103590005B089BB2053398B22A4B07F58C71002269
:1035A00002924FF4784201925A6800921B680A46D0
:1035B000222102F051FBD1E02E4B1B68002B00F0C2
:1035C000C78032492A4817F08EFA0346002B7FD075
:1035D000284B1A6807F114032549D7F8380116F06B
:1035E000BCF9034687F8473197F84731002B51D093
:1035F000012387F8463197F8472107F58C73244952
:10360000184617F007FA07F58C731846FCF768FEA2
:1036100002461346DB009B1AC3F195035B089BB27D
:10362000053398B2074B07F58C71002202924FF4D4
:10363000784201925A6800921B680A46222102F0E1
:103640000BFB95E020000024A4BC0108F0BF01089A
:10365000F83300242CF0010800000024FCBF01080E
:1036600010C001082CC0010840C0010850C001086A
:10367000B8000024782300244C33002464C00108DF
:1036800074C0010880C0010894C00108A4C00108EA
:10369000ACC00108B7F842310133A7F84231B7F89E
:1036A000422107F58C736149184617F0B3F9604B56
:1036B00007F58C71002202924FF6E43201925A68AB
:1036C00000921B680A462E210F2002F0C5FA30E056
:1036D00007F58C731E220021184617F0E9F907F54B
:1036E0008C7311225349184617F0EAF95148FCF738
:1036F000F7FD0346013B03F5A4733B44002203F8A6
:10370000302C002300930A23772246210F2000F05B
:10371000AEF8474B07F58C71002202924FF6E43267
:1037200001925A6800921B680A4646210F2002F057
:1037300093FA414B00221A604FF4006200213D4889
:1037400017F0B6F94FF400623A493C4811F075F9A8
:10375000022002F08FFD0346032B08D097F8463174
:1037600083F00103DBB2002B7FF426AF00E000BF43
:1037700014213348FDF75EF997F84431002B03D04C
:10378000D7F8380116F045FC97F84431002B08D0E3
:1037900097F84631002B04D007F11803184616F0AD
:1037A00062FC97F84531002B04D001222549002006
:1037B00015F08AFC234816F09DFF97F8463183F0F8
:1037C0000103DBB2002B0ED007F5A473A3F5A2739F
:1037D000DB685A1C07F5A473A3F5A273DA603B1DDE
:1037E0001846FDF743F8D7F83C0117F05FF8D7F813
:1037F000380117F05BF84FF4006200210D4817F014
:1038000057F905E0022002F035FD0346032B04D0F2
:1038100097F84631002BF5D100E000BF02F0C8FD5B
:1038200000BF07F5A477BD4680BD00BF80C001087A
:1038300020000024B8000024782300244C33002406
:10384000E0BD0108F833002480B582B000AF034624
:10385000FB800B46BB8013467B80FB88B9887A8847
:10386000184602F043F900BF0837BD4680BD90B549
:1038700085B002AF0446084611461A462346FB802F
:103880000346BB800B467B8013463B80F888B98893
:103890007A883C883B8B0093234602F031FA00BFC4
:1038A0000C37BD4690BD80B582B000AF0346FB80AB
:1038B0000B46BB8013467B807A88B7F90410B7F9B2
:1038C00006301846FFF7C0FF00BF0837BD4680BD71
:1038D00090B589B000AF0446084611461A46234603
:1038E000FB800346BB800B467B8013463B80B7F9C9
:1038F0000020B7F90430D31A83EAE372A2EBE37233
:10390000B7F90210B7F90630CB1A002BB8BF5B42EB
:103910009A42CCBF01230023DBB27B83B7F91A3074
:10392000002B0BD0FB883B83BB88FB803B8BBB8091
:103930007B88FB823B887B80FB8A3B80B7F9062033
:10394000B7F902309A420BDDFB88BB827B88FB8093
:10395000BB8A7B80BB887B823B88BB807B8A3B8029
:103960007A88FB88D31A9BB23B82B7F90020B7F95B
:103970000430D31A002BB8BF5B42FB81B7F910307B
:10398000002B00DA01335B10FB83B7F90420B7F991
:1039900000309A4202DA0123BB8331E04FF6FF7315
:1039A000BB832DE0B7F91A30002B08D03A8EB7F957
:1039B0000610B7F904301846FFF775FF07E03A8E96
:1039C000B7F90410B7F906301846FFF76CFFFA8B09
:1039D000FB89D31A9BB2FB83B7F91E30002B09DA9F
:1039E000BA88BB8B13449BB2BB80FA8B3B8A1344CF
:1039F0009BB2FB83B7F906309BB201339BB2FB80CD
:103A0000B7F90620B7F902309A42CBDD00BF00BFFC
:103A10002437BD4690BD90B585B002AF0446084638
:103A200011461A462346FB800346BB800B467B802B
:103A300013463B80BA887B8813449BB2013B9BB200
:103A40001CB2B7F90620B7F90410B7F906003B8895
:103A500000932346FFF73CFF00BF0C37BD4690BDE7
:103A600090B585B002AF0446084611461A46234673
:103A7000FB800346BB800B467B8013463B80FA8865
:103A80007B8813449BB2013B9BB21AB2B7F9044046
:103A9000B7F90410B7F906003B8800932346FFF7F7
:103AA00017FF00BF0C37BD4690BD90B587B000AF83
:103AB0000446084611461A462346FB800346BB804F
:103AC0000B467B8013467B707B88C3F101039BB25E
:103AD000FB820123BB827B881A46D203D31A5B0088
:103AE0009BB27B8200233B827B88FB81A5E0B7F9F8
:103AF0001630002B0EDBB7F90E309BB2013B9BB2A8
:103B0000FB817B8A02339BB27B82FA8A7B8A1344D5
:103B10009BB2FB82B7F910309BB201339BB23B8260
:103B2000BB8A02339BB2BB82FA8ABB8A13449BB224
:103B3000FB827B7803F00403002B1BD0FA883B8ABE
:103B400013449BB218B2BA88FB8913449BB21BB2D0
:103B50003A8D1946FFF7A7FEFA88FB8913449BB2FA
:103B600018B2BA883B8A13449BB21BB23A8D1946ED
:103B7000FFF799FE7B7803F00203002B1BD0FA8835
:103B80003B8A13449BB218B2BA88FB89D31A9BB202
:103B90001BB23A8D1946FFF786FEFA88FB8913445B
:103BA0009BB218B2BA883B8AD31A9BB21BB23A8D29
:103BB0001946FFF778FE7B7803F00803002B1BD033
:103BC000FA88FB89D31A9BB218B2BA883B8A13448D
:103BD0009BB21BB23A8D1946FFF765FEFA883B8A05
:103BE000D31A9BB218B2BA88FB8913449BB21BB29A
:103BF0003A8D1946FFF757FE7B7803F00103002B3F
:103C00001BD0FA88FB89D31A9BB218B2BA883B8AB8
:103C1000D31A9BB21BB23A8D1946FFF744FEFA88BD
:103C20003B8AD31A9BB218B2BA88FB89D31A9BB2CB
:103C30001BB23A8D1946FFF736FEB7F91020B7F9D7
:103C40000E309A42FFF653AF00BF00BF1C37BD468F
:103C500090BD90B587B000AF0446084611461A469D
:103C60002346FB800346BB800B467B8013467B705C
:103C70007B88C3F101039BB2FB820123BB827B885B
:103C80001A46D203D31A5B009BB27B8200233B828D
:103C90007B88FB813B8ABB81FB897B81B7F928301C
:103CA0009BB201339BB23B8595E0B7F91630002BF0
:103CB0000EDBB7F90E309BB2013B9BB2FB817B8AD6
:103CC00002339BB27B82FA8A7B8A13449BB2FB82CB
:103CD000B7F910309BB201339BB23B82BB8A0233EF
:103CE0009BB2BB82FA8ABB8A13449BB2FB82B7F9B0
:103CF0000E20B7F910309A4231DB7B7803F00103D4
:103D0000002B13D0FA883B8A13449BB218B2BA88AE
:103D1000FB89D31A9BB219B2FB895B009AB23B8D27
:103D200013449BB21AB2BB8DFFF775FE7B7803F08C
:103D30000203002B13D0FA883B8AD31A9BB218B225
:103D4000BA88FB89D31A9BB219B2FB895B009AB27D
:103D50003B8D13449BB21AB2BB8DFFF75CFEB7F9E3
:103D60000E20B7F90A309A4233D07B7803F0010372
:103D7000002B13D0FA887B8913449BB218B2BA88FF
:103D8000BB89D31A9BB219B2BB895B009AB23B8D37
:103D900013449BB21AB2BB8DFFF73DFE7B7803F054
:103DA0000203002B13D0FA887B89D31A9BB218B276
:103DB000BA88BB89D31A9BB219B2BB895B009AB28D
:103DC0003B8D13449BB21AB2BB8DFFF724FEFB89D7
:103DD0007B813B8ABB81B7F91020B7F90E309A423C
:103DE000FFF663AF00BF00BF1C37BD4690BD90B566
:103DF00083B000AF0446084611461A462346FB80AE
:103E00000346BB800B467B8013463B803B8BB7F958
:103E10000220B7F90410B7F90600FFF721FEBA88AF
:103E20003B8813449BB2013B9BB219B23B8BB7F961
:103E30000220B7F90600FFF713FE3B8BB7F900200D
:103E4000B7F90410B7F90600FFF7E5FDFA887B889B
:103E500013449BB2013B9BB218B23B8BB7F90020D5
:103E6000B7F90410FFF7D7FD00BF0C37BD4690BD72
:103E700090B587B002AF0446084611461A4623465D
:103E8000FB800346BB800B467B8013463B80B7F923
:103E90000020B7F902309342A8BF13461BB2002B93
:103EA00000DA01335B10FB81B7F92020B7F90E303F
:103EB0009A4201DDFB893B84FA883B8C13449BB218
:103EC00018B27A883B8C5B009BB2D31A9BB21AB2B1
:103ED000BB8CB7F90410FFF7C3FDFA883B8C134481
:103EE0009BB218B2BA883B8813449BB2013B9BB289
:103EF00019B27A883B8C5B009BB2D31A9BB21AB280
:103F0000BB8CFFF7ADFDBA883B8C13449BB219B252
:103F10003A883B8C5B009BB2D31A9BB21AB2BB8C23
:103F2000B7F90600FFF777FDFA887B8813449BB248
:103F3000013B9BB218B2BA883B8C13449BB219B2B6
:103F40003A883B8C5B009BB2D31A9BB21AB2BB8CF3
:103F5000FFF761FDFA883B8C13449BB218B2BA8814
:103F60003B8C13449BB219B2B7F92020BB8C009351
:103F70000123FFF79AFDFA887B8813449AB23B8CA1
:103F8000D31A9BB2013B9BB218B2BA883B8C134444
:103F90009BB219B2B7F92020BB8C00930223FFF724
:103FA00084FDFA887B8813449AB23B8CD31A9BB267
:103FB000013B9BB218B2BA883B8813449AB23B8C3F
:103FC000D31A9BB2013B9BB219B2B7F92020BB8C2C
:103FD00000930423FFF769FDFA883B8C13449BB2DE
:103FE00018B2BA883B8813449AB23B8CD31A9BB25E
:103FF000013B9BB219B2B7F92020BB8C0093082378
:10400000FFF753FD00BF1437BD4690BD90B587B094
:1040100002AF0446084611461A462346FB80034673
:10402000BB800B467B8013463B80B7F90020B7F975
:1040300002309342A8BF13461BB2002B00DA0133B3
:104040005B10FB81B7F92020B7F90E309A4201DDF1
:10405000FB893B84FA883B8C13449BB218B27A8864
:104060003B8C5B009BB2D31A9BB21AB2B7F90040EB
:10407000B7F90410BB8C00932346FFF7F8FBFA88CE
:104080007B8813449AB23B8CD31A9BB2013B9BB200
:1040900018B2BA883B8C13449BB219B23A883B8C55
:1040A0005B009BB2D31A9BB2013B9BB21BB2B7F928
:1040B0002040BA8C0192009301232246FFF7C9FDEC
:1040C000FA883B8C13449BB218B2BA883B8C1344D9
:1040D0009BB219B23A883B8C5B009BB2D31A9BB25D
:1040E000013B9BB21BB2B7F92040BA8C01920093FE
:1040F00002232246FFF7ADFD00BF1437BD4690BD39
:1041000090B58FB000AF0446084611461A462346C4
:10411000FB800346BB800B467B8013463B80B7F990
:104120000420B7F900309A420BDDBB88FB843B8842
:10413000BB80FB8C3B80FB88BB847B88FB80BB8C7B
:104140007B80B7F90020B7F94C309A420FDDB7F801
:104150004C307B843B88A7F84C307B8C3B80B7F895
:1041600048303B847B88A7F848303B8C7B80B7F98C
:104170000420B7F900309A420BDDBB88FB833B88F3
:10418000BB80FB8B3B80FB88BB837B88FB80BB8B2E
:104190007B80B7F90420B7F94C309A4237D1FB88BD
:1041A000BB86BB8EFB86B7F90220B7F936309A4240
:1041B00002DA7B88FB8607E0B7F90220B7F93430D2
:1041C0009A4201DD7B88BB86B7F94820B7F93630C3
:1041D0009A4203DAB7F84830FB8608E0B7F948207E
:1041E000B7F934309A4202DDB7F84830BB86BA8E50
:1041F000FB8ED31A9BB201339BB21AB2B7F8503080
:10420000B7F90410B7F93600FFF72AFCD4E07A8832
:10421000FB88D31A9BB27B833A88BB88D31A9BB2A4
:104220003B83B7F84820FB88D31A9BB2FB82B7F8D0
:104230004C20BB88D31A9BB2BB82B7F848207B883E
:10424000D31A9BB27B82B7F84C203B88D31A9BB21F
:104250003B820023FB620023BB62B7F90020B7F961
:104260004C309A4202D13B883B8603E03B88013BBD
:104270009BB23B86BB887B863EE0B7F91830FA6A72
:1042800092FBF3F39AB2FB8813449BB2FB86B7F917
:104290001430BA6A92FBF3F39AB2FB8813449BB2D0
:1042A000BB86B7F91A30FA6A1344FB62B7F91630C5
:1042B000BA6A1344BB62B7F93620B7F934309A4270
:1042C00005DDFB8EBB81BB8EFB86BB89BB86BA8EB0
:1042D000FB8ED31A9BB201339BB21AB2B7F850309F
:1042E000B7F93210B7F93600FFF7BAFBB7F9323039
:1042F0009BB201339BB27B86B7F93220B7F93030DD
:104300009A42BADDB7F91230B7F93210B7F9002086
:104310008A1A02FB03F3FB62B7F91630B7F93210C1
:10432000B7F904208A1A02FB03F3BB623EE0B7F937
:104330001030FA6A92FBF3F39AB27B8813449BB273
:10434000FB86B7F91430BA6A92FBF3F39AB2FB8892
:1043500013449BB2BB86B7F91230FA6A1344FB626E
:10436000B7F91630BA6A1344BB62B7F93620B7F909
:1043700034309A4205DDFB8EFB81BB8EFB86FB89C8
:10438000BB86BA8EFB8ED31A9BB201339BB21AB294
:10439000B7F85030B7F93210B7F93600FFF760FBC5
:1043A000B7F932309BB201339BB27B86B7F932202A
:1043B000B7F94C309A42BADD3C37BD4690BD00009B
:1043C00080B584B002AF0346FB80084BB3F90020F0
:1043D000074BB3F90010FB8800930B460021002027
:1043E000FFF745FA00BF0837BD4680BD3E300024C8
:1043F000403000242DE9F04F8DB004AFF86008463E
:1044000011461A4603467B810B463B811346FB80CF
:104410007A893B6D93FBF2F101FB02F29B1AFB766A
:10442000B7F84C20FB88D21A97F85530023392FB2C
:10443000F3F3BB76B7F848203B89D31A97F854209A
:1044400093FBF2F37B763B6DB3F1FF3F05D0FA7E31
:10445000BB7EB2FBF3F3DBB200E000233B763A7E97
:104460007989BB7E91FBF3F39A420FD13A7EBB7EF2
:1044700012FB03F3D9B27B89BA7E93FBF2F000FB07
:1044800002F29B1ADBB20B44FB7706E03B7E013362
:10449000DBB2BA7E12FB03F3FB773B7E9AB2BB7EA4
:1044A0009BB212FB03F3BB8324E1FB7F9BB2BA8B6D
:1044B0009A4280F0EF806B463B607B7E7B617B7E27
:1044C000013300221C4615464FF000024FF0000356
:1044D000EB0043EA5473E2007B7E013300229846EE
:1044E00091464FF000024FF000034FEAC90343EA40
:1044F00058734FEAC8027B7E01330733DB08DB00C9
:10450000ADEB030D04AB00333B617B7E01331A46F8
:104510000021386916F0CCFAFB7E9BB2BA8B9A4226
:1045200037D13B6DB3F1FF3F33D097F855300233AD
:104530009BB2BA8B12FB03F39AB2FB8813449AB274
:104540003B7E99B2BB7E9BB211FB03F399B297F805
:10455000553002339BB211FB03F39BB2D31A9EB2C8
:10456000BB8B9B00FA6813441B687A7E1946386936
:1045700016F0A6FA02463889B7F85C300293B7F80D
:1045800060300193BB6D00937B6D314601F064FB9D
:1045900032E097F8553002339BB2BA8B12FB03F32B
:1045A0009AB2FB8813449AB23B7E99B2BB7E9BB20F
:1045B00011FB03F399B297F8553002339BB211FB0C
:1045C00003F39BB2D31A9EB2BB8B9B00FA681344D1
:1045D0001B687A7E1946386916F072FA02463889E5
:1045E000B7F860300293B7F85C300193BB6D00936D
:1045F0007B6D314601F030FB3869FBF771FE0346F5
:104600009AB297F854309BB212FB03F39AB23B89EB
:1046100013449BB20FFA83FA97F8553002339BB2DA
:10462000BA8B12FB03F39AB2FB8813449AB23B7E17
:1046300099B2BB7E9BB211FB03F399B297F8553048
:1046400002339BB211FB03F39BB2D31A9BB20FFA56
:1046500083FBB7F848203B89D31A9EB23869FBF731
:104660003FFE03469AB297F854309BB212FB03F315
:104670009BB2F31A9BB21AB297F8553019B2B7F839
:10468000603000930B4659465046FFF7F0F8D7F8D4
:1046900000D02CE0B7F9080097F8553002339BB2F0
:1046A000BA8B12FB03F39AB2FB8813449AB23B7E97
:1046B00099B2BB7E9BB211FB03F399B297F85530C8
:1046C00002339BB211FB03F39BB2D31A9BB219B214
:1046D000B7F848203B89D31A9BB21AB297F85530E5
:1046E0001EB2B7F8603000933346FFF7C0F8BB8BBB
:1046F0000133BB83BA8B3B7E0133B97E01FB03F3ED
:104700009A42FFF6D2AE00BF00BF2437BD46BDE8D7
:10471000F08F2DE9F0438DB004AFF86008461146E4
:104720001A460346FB720B463B811346FB806B46E1
:104730001E46B7F840203B89D31A043B97F848201F
:1047400093FBF2F3FB77FB7FBB61FB7F013300221E
:10475000984691464FF000024FF000034FEAC9031C
:1047600043EA58734FEAC802FB7F013300221C461C
:1047700015464FF000024FF00003EB0043EA54737C
:10478000E200FB7F01330733DB08DB00ADEB030DF9
:1047900004AB00337B61FB7F01331A46002178694B
:1047A00016F086F9FB7F1A46F968786916F088F9E1
:1047B0007869FBF795FD03467B82B7F90800B7F9E6
:1047C0000610B7F840203B89D31A9BB21CB2B7F849
:1047D0004420FB88D31A9BB21AB2B7F85430009326
:1047E00013462246FFF743F8FB7A002B77D0B7F940
:1047F0000800B7F90610B7F840203B89D31A9BB2DE
:104800001CB2B7F84420FB88D31A9BB21AB2B7F88F
:104810005030009313462246FFF7E9FA3B890133F3
:104820009BB218B2FB8801339BB219B2B7F8402093
:104830003B89D31A9BB2023B9BB21CB2B7F844200F
:10484000FB88D31A9BB2023B9BB21AB2B7F8503026
:10485000009313462246FFF7CAFA3B8902339BB204
:1048600018B2FB8802339BB219B2B7F840203B89DB
:10487000D31A9BB2023B9BB21AB297F849309BB253
:1048800003339BB21CB2B7F8503000932346FEF7B7
:10489000EEFFB7F840203B89D31A1A1F7B8A97F89E
:1048A000481001FB03F3D31A002B00DA01335B102D
:1048B0009AB23B8913449BB2023398B2FB8804330B
:1048C00099B2B7F850300293B7F854300193FB6CAB
:1048D0000093BB6C7A6901F0BFF9B5465CE03B8997
:1048E00001339BB218B2FB8801339BB219B2B7F8FF
:1048F00040203B89D31A9BB2023B9BB21CB2B7F853
:104900004420FB88D31A9BB2023B9BB21AB2B7F881
:104910005030009313462246FFF769FA3B89013372
:104920009BB218B297F849309AB2FB8813449BB2F5
:1049300004339BB219B2B7F840203B89D31A9BB21B
:10494000023B9BB21AB2B7F85030FFF789F8B7F8BC
:1049500040203B89D31A1A1F7B8A97F8481001FB25
:1049600003F3D31A002B00DA01335B109AB23B89B0
:1049700013449BB2023398B2FB88043399B2B7F860
:1049800054300293B7F850300193FB6C0093BB6C2A
:104990007A6901F061F9B5462437BD46BDE8F08378
:1049A0002DE9F0438DB004AFF860381D80E80600B3
:1049B0007B806B461E463B791A46A02393FBF2F39D
:1049C000FB77FB7FBB61FB7F01330022984691465A
:1049D0004FF000024FF000034FEAC90343EA587357
:1049E0004FEAC802FB7F013300221C4615464FF0F8
:1049F00000024FF00003EB0043EA5473E200FB7F38
:104A000001330733DB08DB00ADEB030D04AB0033F0
:104A10007B61FB7F01331A460021786916F048F864
:104A2000FB7F1A46F968786916F04AF87869FBF74F
:104A300057FC03467B827B799BB204339BB21AB24C
:104A4000B7F8403000931346A02200210020FEF763
:104A50000EFF7B8A3A7902FB03F3C3F1A003002B1C
:104A600000DA01335B1098B2B7F8403002937B88CC
:104A70000193BB6800937B687A69022101F0ECF82E
:104A8000B54600BF2437BD46BDE8F08380B500AF12
:104A900002F0FCFA02F080FC00BF80BD2DE9F04F6F
:104AA000BFB004AF6B461E4602F06EFD002002F060
:104AB000E9FDC84B1B68013BC7F8B830C54B1B6804
:104AC0001A46002314461D464FF000024FF0000323
:104AD000EB0043EA5473E200BE4B1B681A46002306
:104AE0003A617B614FF000024FF00003D7E90445C3
:104AF0002946CB00214643EA51732146CA00B54BF3
:104B00001B680733DB08DB00ADEB030D04AB0033A0
:104B1000C7F8B430AF4B1B68013BC7F8B030AD4BA2
:104B20001B681A460023BA60FB604FF000024FF08A
:104B30000003D7E902452946CB00214643EA5173D9
:104B40002146CA00A34B1B681A4600233A607B60CB
:104B50004FF000024FF00003D7E900452946CB0093
:104B6000214643EA51732146CA009A4B1B6807331A
:104B7000DB08DB00ADEB030D04AB0033C7F8AC3052
:104B8000944B1B68013BC7F8A830924B1B681A4630
:104B9000002392469B464FF000024FF000034FEA7D
:104BA000CB0343EA5A734FEACA028A4B1B681A4680
:104BB0000023904699464FF000024FF000034FEA61
:104BC000C90343EA58734FEAC802824B1B68073394
:104BD000DB08DB00ADEB030D04AB0033C7F8A430FA
:104BE0000023C7F8E43023E0D7F8E430DBB29B00C1
:104BF000D9B2D7F8B420D7F8E43013440A461A7073
:104C0000D7F8AC20D7F8E430134400221A70D7F854
:104C1000E430DBB2DB00D9B2D7F8A420D7F8E43017
:104C200013440A461A70D7F8E4300133C7F8E43069
:104C3000D7F8E430032BD7DD0423C7F8E03026E0B3
:104C4000D7F8E030DBB29B00D9B2D7F8B420D7F860
:104C5000E03013440A461A70D7F8AC20D7F8E03099
:104C6000134400221A70D7F8E030DBB2DB00DBB26D
:104C7000C3F11F03D9B2D7F8A420D7F8E03013440A
:104C80000A461A70D7F8E0300133C7F8E030D7F899
:104C9000E030072BD4DD0823C7F8DC301FE0D7F85D
:104CA000B420D7F8DC3013441F221A70D7F8DC3058
:104CB000083BDBB21B01D9B2D7F8AC20D7F8DC3007
:104CC00013440A461A70D7F8A420D7F8DC301344EE
:104CD00000221A70D7F8DC300133C7F8DC30D7F87F
:104CE000DC300B2BDBDD0C23C7F8D8301FE0D7F806
:104CF000B420D7F8D83013441F221A70D7F8AC204C
:104D0000D7F8D83013443F221A70D7F8D8300C3B6C
:104D1000DBB2DB00D9B2D7F8A420D7F8D8301344DF
:104D20000A461A70D7F8D8300133C7F8D830D7F808
:104D3000D8300F2BDBDD01F03BFB0020FFF740FB01
:104D4000254B1B6818B2254B1B6819B24FF6E4338C
:104D5000009363238322FFF74AF81F4B1B689BB223
:104D600001339BB218B21D4B1B689BB231339BB20F
:104D700019B24FF6E4338122FEF772FE0023C7F822
:104D8000D43080E0D7F8D410154B83FB01239A1060
:104D9000CB17D21A13469B0013445B00CA1A002A91
:104DA00020D0D7F8D4309BB25B009AB20A4B1B6874
:104DB0009BB213449BB201339BB218B2074B1B68E2
:104DC0009BB263339BB219B24FF6E4330322FEF772
:104DD00022FE53E01CC2010820C2010824C20108BF
:104DE00067666666D7F8D4309BB25B009AB2964B82
:104DF0001B689BB213449BB201339BB218B2934B16
:104E00001B689BB263339BB219B24FF6E4330522A1
:104E1000FEF701FE0023C7F89C30D7F8D4305A00C3
:104E200007F19C038A49184615F0F4FDD7F8D430F1
:104E30009BB25B009AB2844B1B689BB213449CB23A
:104E400007F19C031846FBF74BFA03469BB25B0045
:104E50009BB2E31A98B27D4B1B689BB26A3399B23E
:104E60007C4B07F19C04002202924FF6E43201923F
:104E70005A6800921B68224600F0EEFED7F8D43044
:104E80000133C7F8D430D7F8D430402B7FF77AAF4E
:104E9000022001F0EFF90346032B05D101F088FA57
:104EA00002F060FBB546BCE10023C7F8D030BDE09E
:104EB000694AD7F8D03013441B780F2B28BF0F2333
:104EC000D9B2654AD7F8D03013440A461A70634AFB
:104ED000D7F8D03013441A785F49D7F8D0300B4454
:104EE0001B789A420AD25C4AD7F8D030134419781A
:104EF0005A4AD7F8D03013440A461A70524B1B68EE
:104F00009AB2D7F8D0309BB213449BB201339BB214
:104F100018B24E4B1B689BB201339BB219B2504B77
:104F20001B689BB21B019BB21AB20023FEF773FDF4
:104F30004A4AD7F8D03013441B78002B31D0424B6B
:104F40001B689AB2D7F8D0309BB213449BB201339E
:104F50009BB218B23D4B1B689AB24049D7F8D0308B
:104F60000B441B78C3F1100399B23D4B1B689BB2F5
:104F700011FB03F39BB213449BB201339BB219B2F2
:104F8000364AD7F8D03013441B789AB2344B1B689A
:104F90009BB212FB03F39BB21AB24FF47843FEF7B5
:104FA0003AFD2D4AD7F8D03013441B78002B38D067
:104FB0002A4AD7F8D03013441B78002B31D0224B2B
:104FC0001B689AB2D7F8D0309BB213449BB201331E
:104FD0009BB218B21D4B1B689AB21F49D7F8D0304C
:104FE0000B441B78C3F1100399B21D4B1B689BB295
:104FF00011FB03F39BB213449BB201339BB219B272
:10500000154AD7F8D03013441B789AB2144B1B685A
:105010009BB212FB03F39BB21AB24FF6E073FEF79A
:10502000FAFCD7F8D0300133C7F8D030D7F8D030F9
:10503000802B7FF73DAF0023C7F8CC3078E000230A
:10504000C7F8C8306BE000BF20C2010824C20108C5
:10505000C0C0010818000024A4230024BC2F002491
:1050600028C201087149D7F8CC201346DB0113444C
:10507000CA18D7F8C83013441B781A46D7F8B4308A
:105080009B5CD9026948D7F8CC201346DB01134456
:10509000C218D7F8C83013441B781A46D7F8AC307A
:1050A0009B5C5B0119436148D7F8CC201346DB01B8
:1050B0001344C218D7F8C83013441B781A46D7F8DF
:1050C000A4309B5C0B43C7F8A030594B1B689AB2C5
:1050D000D7F8C8309BB213449BB201339BB218B2CD
:1050E000544B1B689BB21B019AB2534B1B689BB27B
:1050F00013449AB2D7F8CC309BB25B009BB21344F6
:105100009BB202339BB219B2D7F8A0309BB20222F5
:10511000FEF781FCD7F8C8300133C7F8C830D7F89C
:10512000C830802B9EDDD7F8CC300133C7F8CC30A7
:10513000D7F8CC30172B82DD6423C7F8C4300023A6
:10514000BB6107F11C037D220021184615F0B0FC5D
:1051500037E08123C7F8C0302CE0022001F08AF844
:105160000346032B05D101F023F902F0FBF9B54604
:1051700057E0D7F8C030DBB2184602F0FFF802F073
:1051800081F9802001F09AFF02F0B2F902F08FFA63
:105190000346002B0ED007F11802D7F8C030134495
:1051A0001B780133D9B207F11802D7F8C030134485
:1051B0000A461A70D7F8C0305A1EC7F8C020002B14
:1051C000CBD1D7F8C4305A1EC7F8C420002BC0D1A9
:1051D0001723C7F8BC3017E0D7F8BC201346DB0113
:1051E0001344124A9818D7F8BC305A1E1346DB01F4
:1051F00013440E4A13448122194615F0C7FCD7F810
:10520000BC30013BC7F8BC30D7F8BC30002BE3DA28
:10521000064B184607F118038122194615F0B6FC13
:1052200036E6EC37BD46BDE8F08F00BFA42300246E
:1052300020C2010828C2010824C20108F0B591B0BB
:1052400004AF0023FB620023BB6200237B6007F1F5
:10525000080300221A605A609A60DA601A611A75AF
:10526000002387F82730002387F826307823FB7047
:1052700002F08AF9002002F005FA032002F026FA73
:10528000012002F047FA02F033F901F091F800230F
:105290003B620020FFF794F8A04B002202924FF6E9
:1052A000E43201925A6800921B689D4A0121002055
:1052B00000F0D2FC9B4B1B689BB217339BB219B218
:1052C0004FF6E43381221020FEF7CAFB954B1B6892
:1052D0009BB216339BB219B2924B1B689BB2103330
:1052E0009BB21AB28F4B1B689BB210339BB21BB29E
:1052F0004FF6E430029001931323009313460D22DE
:105300001020FEF7FDFE874B1B689BB216339BB245
:1053100019B2844B1B689BB210339BB21AB2814BFB
:105320001B689BB210339BB21BB24FF6E430029065
:1053300001939323009313468D229020FEF7E0FE05
:10534000BB6A9BB210339BB218B2764B1B689BB200
:1053500018339BB219B2BB6A9BB20D339BB21CB21D
:10536000704B1B689BB21E339BB21DB2BB6A9BB2D3
:1053700013339BB21BB26B4A126892B21E3292B2C6
:1053800012B24FF6E4360296019200932B46224663
:10539000FEF7B6FE634B1B6899B2604B0022029287
:1053A0004FF6E43201925A6800921B685E4A002070
:1053B00000F052FC5B4B1B689BB2083399B2574B11
:1053C000002202924FF6E43201925A6800921B6862
:1053D000564A002000F040FC524B1B6899B24F4BDC
:1053E000002202924FF6E43201925A6800921B6842
:1053F0004F4A7B2000F030FC4A4B1B689BB20833BD
:1054000099B2464B002202924FF6E43201925A685A
:1054100000921B68474A7B2000F01EFCBB6A98B2D2
:10542000404B1B689BB2203399B23C4B0022029246
:105430004FF6E43201925A6800921B683A4A00F033
:105440000BFCBB6A98B2374B1B689BB2283399B2EE
:10545000324B002202924FF6E43201925A680092D7
:105460001B68324A00F0F8FB022000F003FF0346FD
:10547000FB77042000F0FEFE0346BB77032000F01C
:10548000F9FE03467B77FB7F012B10D1BB6A5A1CC8
:10549000294B83FB0213D910D317C91A0B46DB0122
:1054A0000B44D31ABB62012387F827301CE0FB7F33
:1054B000042B19D102F0B2FE02463B6AD31A642BC8
:1054C00012D9BB6A5A1D1C4B83FB0213D910D31788
:1054D000C91A0B46DB010B44D31ABB62012387F8C0
:1054E000273002F09BFE3862BB7F012B26D1BB6ABE
:1054F0005A1E114B83FB0213D910D317C91A0B463E
:10550000DB010B44D31ABB62BB6A002B01DA802398
:10551000BB62012387F8273032E000BF1800002467
:10552000C4C001082CC20108DCC00108E4C00108A5
:10553000ECC00108F4C00108813FE00FBB7F042BE1
:105540001ED102F06BFE02463B6AD31A642B17D9B8
:10555000BB6A5A1F8C4B83FB0213D910D317C91A8D
:105560000B46DB010B44D31ABB62BB6A002B01DA8A
:105570008023BB62012387F8273002F04FFE386298
:105580007B7F012B0DD1BB6AFB62FB6ADBB2184645
:1055900001F0F4FE012387F82630012387F8273035
:1055A00008E07B7F032B05D1002387F826300123F9
:1055B00087F8273097F82630002B04D0FB1C0121F8
:1055C000184602F002F997F82730002B00F0CF8040
:1055D0006E4B1B689BB218339BB219B20023009329
:1055E0001E23A0220020FEF742F997F82630002B58
:1055F0004DD0FB6A9BB210339BB218B2634B1B6851
:105600009BB218339BB219B2FB6A9BB20D339BB2AB
:105610001CB25E4B1B689BB21E339BB21DB2FB6A71
:105620009BB213339BB21BB2584A126892B21E321D
:1056300092B212B24FF478460296019200932B4632
:105640002246FEF75DFD3B1DFA6A5149184615F0EA
:10565000E1F9504B391D002202924FF6E4320192DB
:105660005A6800921B680A460121002000F0F4FAF3
:10567000484B002202924FF4784201925A680092FD
:105680001B68454A0121692000F0E6FA0CE0414B15
:1056900000220292002201925A6800921B683F4A3F
:1056A0000121692000F0D8FABB6A9BB210339BB28B
:1056B00018B2364B1B689BB218339BB219B2BB6A47
:1056C0009BB20D339BB21CB2304B1B689BB21E3396
:1056D0009BB21DB2BB6A9BB213339BB21BB22B4A67
:1056E000126892B21E3292B212B24FF6E4360296AD
:1056F000019200932B462246FEF702FDBB6A03F59A
:1057000016623B1D2649184615F084F9BB6A98B20B
:105710001E4B1B689BB2203399B21E4B3C1D0022CE
:1057200002924FF6E43201925A6800921B682246B8
:1057300000F092FA3B1DBA6A1A49184615F06AF948
:10574000BB6A98B2114B1B689BB2283399B2114BBC
:105750003C1D002202924FF6E43201925A680092F8
:105760001B68224600F078FA002387F82730FB7F79
:10577000032B00D078E600BF00F01AFE01F0F2FE25
:1057800000BF3437BD46F0BD813FE00F2CC2010899
:10579000FCC001081800002414C1010820C1010840
:1057A0002CC1010834C1010880B500AF00224FF4BC
:1057B0000051024805F084FA00BF80BD000C025879
:1057C00080B500AF01224FF40051024805F078FA8D
:1057D00000BF80BD000C025880B500AF00224FF41E
:1057E0000041074805F06CFA052002F023FD012274
:1057F0004FF40041024805F063FA00BF80BD00BFCE
:10580000000C025880B582B000AF0346FB71002245
:105810004FF48041064805F053FAF91D4FF0FF336D
:10582000012204480BF08AFB00BF0837BD4680BD4B
:10583000000C02589831002480B582B000AF786027
:10584000396001224FF48041074805F039FA3B687E
:105850009AB24FF0FF33796804480BF06FFB00BF3A
:105860000837BD4680BD00BF000C025898310024A7
:1058700080B584B000AF78607B685A1C7A601B7872
:10588000FB7334E07B685A1C7A601B78FB72FB7AEE
:105890001846FFF7B7FF7B685A1C7A601B78BB720B
:1058A000BB7A9BB203F08003BB81BB7A03F07F031A
:1058B000BB72BB7A002B08D0BB7A19467868FFF719
:1058C000BBFFBB7A7A6813447B60BB89002B0ED088
:1058D0007B685A1C7A601B78BB81BB89FF2B02D185
:1058E0004FF4FA73BB81BB89184602F0A3FCFB7B23
:1058F0005A1EFA73002BC5D100BF00BF1037BD463A
:1059000080BD000090B585B000AF04460846114642
:105910001A462346FB710346BB710B467B71134647
:105920003B712A20FFF76EFF00233B73174B1A7859
:10593000FB791344DBB27B730023BB73134B1A78E0
:105940007B791344DBB2FB7307F10C030421184687
:10595000FFF772FF2B20FFF755FF0D4B1A78BB792D
:105960001344DBB27B730A4B1A783B791344DBB2E6
:10597000FB7307F10C0304211846FFF75DFF2C2091
:10598000FFF740FF00BF1437BD4690BD45300024EF
:105990004630002480B582B000AF0346FB71FFF7AC
:1059A00003FFFFF719FF0C48FFF762FF0B48FFF7F3
:1059B0005FFF0B48FFF75CFF0A4B00221A700A4B8F
:1059C00000221A70FB79184600F010F8FFF7F8FE75
:1059D00000BF0837BD4680BD30C2010868C201085B
:1059E00078C20108433000244430002480B584B0DC
:1059F00000AF0346FB710023FB73FB7903F0030345
:105A0000DAB2334B1A70324B1B78032B4ED801A2FB
:105A100052F823F0255A0008475A0008695A00082E
:105A20008B5A0008C023FB732A4BA0221A802A4BF2
:105A300080221A80294B1A78294B1A70294B1A7820
:105A4000294B1A7032E0A023FB73234BA0221A804B
:105A5000204B80221A80214B1A78234B1A70214B3D
:105A60001A781F4B1A7021E00023FB73194BA022F8
:105A70001A80194B80221A80184B1A78184B1A700A
:105A8000184B1A78184B1A7010E06023FB73124BF6
:105A9000A0221A800F4B80221A80104B1A78124BCA
:105AA0001A70104B1A780E4B1A7000BFFFF77CFE6D
:105AB0003620FFF7A7FE07F10F0301211846FFF775
:105AC000BBFEFFF77DFE00BF1037BD4680BD00BFA7
:105AD00042300024403000243E3000244330002473
